:20000000003A0120414F020039FB021039FB021039FB021039FB021039FB021039FB02104F
:1C00200039FB021039FB021039FB021039FB021039FB021039FB021011FB021002
:200040002DE9F04FBA4C05460120ADF15C0DAE7821781090287843283EDC432800F0DD8690
:20006000282820DC282800F0F287002801F06983801E01F05183401E01F0CB83401E01F027
:20008000C483C01E01F03B83401E01F0E282401E01F0D882DFF8F882DFF8F8C2C01F122835
:2000A0004ED901F05EBB2A3800F0C287401E00F0B087DFF8D8C2401E00F04A870E3800F029
:2000C000E986401E01F08D83401E01F08683401F00F0B48601F045BBE1281EDCE12801F083
:2000E0004983453800F07886401F00F05986401E00F03A86401E00F02D86401E00F01F8699
:20010000DFF800C353381C282FD9373800F0DE81401E00F0A98001F024BBE43801F02683B3
:20012000801E00F08580401F57D00E384FD0401E47D0401E38D0401E01F0158301F011BBC2
:20014000DFE810F0770A3C0A5F0B0F0B5A0B250A160A0F0BF409D3090F0B9E0969090F0B99
:20016000560B530B99086D089807DFE810F0320B2E0B2A0BAE05260B220B1E0BA305170B95
:20018000860548051705EC04D904C904BB04AF04A6049D04120B9104090B57041B04F803D9
:2001A000ED037903690343036F68002F00F0EA853878032814BF02200320C249087000F056
:2001C000E9BD6868002800F0DD8501F01ABB6868002800F0D78501F014BB6868007878B9EC
:2001E00000202AF003FF29F0E7FF10980FA98DF83C00522028F0A2F92BF034FB01F00DBB7B
:200200004FF6FF702AF0F2FE20784FF4807124F08FFD20784FF4807123F03EF900200DF180
:200220003D018DF83D00522028F088F901F0F5BA6868002801F0F182A34D01886980807A5B
:2002400060B92DF006F840F28A21B0FBF1F228780821521D2DF0CAF801F0DFBA608F1099C6
:200260002BF0B3FF01F0D9BA68681195002800F0978300688346807E2AF090FF061C00F09B
:20028000B582DBF81C7000254FF003082C463878A04200F3FF800F2410FB04F0401CC0B2E3
:2002A00040191EF0DBFE0028129000F09D8227F013F9002840F0EC80129800210D460170AF
:2002C00046E01298BBF80C80032315FB03F6BA199BF81A9052880F2115FB0104414648469C
:2002E00028F0EAFBBA195288824608AB484626F02DFA641CBAF1FF0F1CD0D8B1AC489DF8D7
:2003000027300168D80838BF8C2014D39DF826001623207103FB0A10C18800F10E02A4F830
:2003200005100189C4F80B200020A4F8071002E05018002086202070B8194078BB19607097
:2003400058881299608008786D1CEDB2401C08703878A842B5DC129C9BF81A00BBF80CA0D1
:200360009BF80A9000250BF10E074FF00F0829461497227813908A426DDC28462DF0E1F8F4
:20038000071C62D00246002648E0C046605200208C590020F453002016FB08F021182018B4
:2003A0004078491C02F8010B487802F8010B887802F8010B4888001202F8010B0B785BBBCD
:2003C0004B780BBB087902F8010B487902F8010BB1F80500001202F8010BC87902F8010B39
:2003E000B1F80700001202F8010B087983462BF07CFF88B1D1F80B10584619F02FF9024621
:200400000AE0C04684540020487A02F8010BB1F80900001202F8010B761CF6B22078B0429E
:20042000BADC002100911098019002900391CDF810900595069713980791149952460923C5
:2004400010F03AFB38462CF0AFFF204627F0B8FA2BF08AFD39E111FB08F3E018E3185F7863
:200460002D1DADB2401C87B9477867B9007903462BF03BFF6D1DADB238B118461EF0D8FF2C
:20048000401985B201E0AD1CADB2491CC9B272E71298A7E114FB08723078BBF80C1052887E
:2004A00008AB26F053F950B19DF8260001462BF01CFF20B108461EF0BBFF2D18EDB2641CA3
:2004C000E4B2E4E6981500205058002068681195002800F0658200681290807E2AF05EFE34
:2004E000002800F083811298D0F81C8098F80000002800F07B818000401C1EF0AFFD002870
:20050000139000F071812CF0BDFC26F0E5FF002840F067814FF0000ACDF850A0544698F81F
:200520000000A04200F3E680BAF1010F40F08E80C94DA878EA68162111FB00F081B2562023
:200540002CF044FE05F10C0440B9A8782268162111FB00F081B256202CF03EFEBF480078E1
:20056000802124F0E5FB2F78B8001EF077FDB8465FEA000B6AD02E78B8F1000F0CD005F149
:200580001800594642784A70428810F8144B4A807F1E01F8044BF5D1002E3DD037464FF093
:2005A00000094FF0140AAEB305F1180412E0C046F8630020002808BF4E4607D0416806687E
:2005C000216127F0FDF9207B401E2073304627F0F7F92E7820690028ECD1761EF6B216FB22
:2005E0000AF2A0184188618041786170C188E1808188A18001890C30218109C804F10C0104
:2006000081E80900105D2070A318C3F8109083F80C902E707F1EC6D110F07EF9B8F1000F3D
:2006200011D018355C4647466078618828F0FEFDFF2804D02678810001EB00116E547F1E13
:2006400004F10404F0D1584627F0BAF914981399087018B900204870109F0F70129890F89B
:200660001AA00C4600F10E098689857A2078042110FB01F080462CF064FF071C1ED0014602
:2006800000202278824222DC012A03D164780CB9DDF8408000200090109901910291039098
:2006A00004953246CDF814800723069749460790504610F001FA38462CF076FE139827F082
:2006C0007FF92BF051FC29F0C5FA00208FE08200A3185B780B70A3189B784B70A318DB78B1
:2006E000A2188B70B2F80320401CC0B21212CA70091DC6E7129B9E890E2014FB00856D1C5A
:200700009F7EB5F80190314638464A4628F0D4F9834608AB384626F019F8BBF1FF0F48D021
:20072000002846D02F78002F58D19DF82600E97888423CD19DF82700C00836D3B648016895
:20074000A8884FF6FF72824201D1EF88B7B1162202FB0B16F080E8883081E8782BF0C5FD1A
:2007600000B30E3600210422304620F032FBE8781EF05EFED5F80A10024610E0162000FB6E
:200780000B156889E880A889042205F10E0600212881304620F01DFB042205F11201304672
:2007A0002BF004FEDDF840A018E08C2002E08D2000E08720149BDDF84CC099000CEB01028A
:2007C000507028780CEB01075B1C0CEB0106B870DAB21492B5F80110A6F80310641CE4B266
:2007E0009DE6139827F0ECF8102000E00220119D01F008B86868002800F0D280C749097874
:20080000064600F11207C1B1AFB121F08FFD044606F110002CF05CFCA0420CD108A800904F
:2008200032469023002001460EF04EFB08A839461AF0C6F902E0022000E01098044679E0B8
:200840006868002800F0AC806A6810785188928819F08EF9FEE3C046EC6300208554002058
:200860006868002800F09C8090F800804688B0F804A0C188B0F808B00A301290C64807793F
:200880001191002F00F03781C2490F68002F00F07982814678680078804551D12BF052FCD4
:2008A00000284DD0037C002B4AD04469002C47D000200C22834240F3658210FB02F1615A59
:2008C0008E423AD10E201EF0C9FB071C00F01381002407F10A0004235B1E00F8014BFBD1C0
:2008E000BC80FF2038704FF6FF737B803C81FC8087F8008012997E80119BA7F804A004224D
:20090000FB8007F10A00A7F808B02BF04FFD08201EF0A4FBD9F8141018B9384627F050F824
:20092000E9E007604160C9F8140099F81000401C89F81000204600F065BF401CC0B2B9E79B
:200940003F68002FA6D11DE2686848B300206870686821F0EBFCA968088000F05EBFAF6803
:20096000F7B1002264466A70AD68267860786F1C002E08BF2A700ED0402127F001F84FF4F2
:200980007A710F2300F2E730B0FBF1F116FB03100F3828702678002F00F03F87304680E048
:2009A000284616E02846614687688A8E91F8373091F8364091F83A6091F839E091F83BA09F
:2009C00091F83C9091F83D8091F83850D1F830C00FB90546D6E10027477087683A81826876
:2009E000D3728268947282681573826896738268C2F804C0826882F80DE0C96A8268116016
:200A0000816881F80FA0816881F81090806880F8118000F002BFC046F86300206F68002F9A
:200A200000F0B081002068706868077C1FB1C0896446343420806868077B1FB181686446CA
:200A400030342160877CD54927B1427C08460D300270686807791FB10268084602606868F3
:200A6000077D27B1C27C08460F3002706868877D27B1427D0846103002706868077E002FEE
:200A800000F0CB86C27D08461130027000F0C5BEA868002800F07681002068702CF0BAFB7A
:200AA000AF68387000F0B9BECA48A9680078002900F0688100216970F2E76868002800F0B8
:200AC00061816868007825F037FDC3E26868002800F05881002068706868007806F06AFBA2
:200AE00000F09BBEA868002800F04C810020687026F092F810B9109800F084BE0078CFE74F
:200B00006868002800F03E810020687069680888897824F047FE00F080BEC046CA5200200B
:200B20006868002800F02E81D94C6968082204F110002BF03BFC686801896180807A2070E2
:200B400000202C4666E36868002800F01B810188ADF838104088ADF83A000EA9532027F0D8
:200B6000EDFC50200DF13A0127F0E8FCE1200DF13E012AF077F868689DF83E10007988422B
:200B800000F008818DF83E000DF13E01E12027F0D5FCFFE098590020EC630020686800289C
:200BA00000F0F080007828F057FA686894F83C104078884213D084F83C000DF13F01E120F0
:200BC0002AF050F868689DF83F104078884206D08DF83F000DF13F01E12027F0AFFC686812
:200BE000109E407806FA00F0E0642BF069F90027A4F89470304624F027FA3846A1E76F688F
:200C0000002F00F0BF80387884F84A007E886687387A84F83C007B89E3877A68E264B989CB
:200C2000A4F84810B87B84F85C00F87B84F82900387C84F827007E696665B86994F8961041
:200C4000A065387F884201D028F006FA696804F15D001D312CF0F1FB94F84A0004F12406B7
:200C6000082840F097802120742132462CF0B4FA0020022128F018F98CE06968002900F023
:200C8000E8810888498828F023FC78B969680888109A498826F0CAFC69680888498828F020
:200CA00017FC002808BFC82000F0AC856968097941706FE06868002800F0CB816A685088F8
:200CC000111D128829F025FEC4E16868002800F0C081077846884FF6FF74ADF82060B44222
:200CE0008DF8227017D0E01EB04214D0A01EB04211D002208DF82400ADF8266009A820F0DA
:200D0000A1F8012818BF10980BD1BDF82600ADF82000109800E000208DF8230008A821F005
:200D20004BFFE41E8046B44205DCD14981F82B70109881F82A0029F059FF40468AE168681F
:200D4000002800F086816A6810889178D27828F053FA7FE16868002800F07B816868017AC3
:200D6000427A23F05FF975E16868002800F0718141788DF8201081788DF8211000782BF06C
:200D8000D7F810B9022000F03DBD0C3008A902222BF00CFB002000F035BDC046B054002050
:200DA0006968002900F05581A868002800F05181087808A92AF0C1FB6868A96800780870A1
:200DC0009DF82000A96848709DF82100A968887000F0E9BCE01A00206868002800F0398185
:200DE0000A300778002F0CBF0022109A47780FB142F0020287780FB142F00402C7780FB1C9
:200E000042F00802007908B142F04002696808880023891C27F0FCFD1CE16868002800F0D2
:200E2000188102206F688DF828003988ADF82010FA78B97808A824F02BF80BE1686800286F
:200E400000F0078102218DF8281001884FF6FF70884205D0821E8A4202D0C01E88420BD19C
:200E60002CF00CF9ADF820006868C27A837A811C08A826F0EDFA687068680188ADF8201033
:200E8000C27A837A811C08A826F0E2FAE2E0C046105300206C68002C00F0DB8002208DF89D
:200EA00028002188ADF820106346626994F80490B4F80680267AD4F80CB0277C618811926F
:200EC0001A1D14680346F21912FB03F00F305FFA80FABAF14E0F00F39A802CF0CFF8884237
:200EE00033D12170081260702BF024FAA41C014620462CF0A2FA044684F8009084F80180C2
:200F00004FEA2820A070E670241D66B15846A41E017804F8021F30F8021B761E4FEA212148
:200F20006170F5D1A41C27705FB11198641E017804F8021F30F8021B7F1E4FEA21216170C4
:200F4000F5D1C348202253465DE0184600F05ABC6F68002F7DD002218DF828103888ADF8AC
:200F60002000DCF804307A88BC79D7F808803E7BD7F81090B888A71917FB01F1891D5FFA90
:200F800081FEBEF14E0F42DC9DF828100F2918BF022908D1BDF820704FF6FF71B94204BF10
:200FA000891EADF820104FF6FF71914208BF8A1E03F8012B111203F8011B03F8010B07123D
:200FC00003F8017B03F8014B64B140469B1E017803F8021F30F8021B641E4FEA212159705F
:200FE000F5D19B1C1E705EB15B1E4846017803F8021F30F8021B761E4FEA21215970F5D158
:2010000060460622734608A921F0E0FFFAE31020F8E36868E8B102206F688DF828003988F0
:20102000ADF820107988052208A82AF065FF88E5686870B102206F688DF828003988ADF81B
:2010400020103A79798808A82AF02CFC02E0686810B902202E46DCE1022268688DF828202B
:201060000188ADF82010418808A82AF045FFF1E7BC5200202C466368002B00F0CD80187DFB
:201080002AF0AAFF002800F0C7809D691C331F78002F0CBF002002205F780FB140F010002F
:2010A0009F780FB140F00800DF780FB140F020001F790FB140F040005F790FB140F08000AA
:2010C00083466068007D2BF0D5FE5FEA000800F0A3806168887A8DF829008889ADF82A0057
:2010E000087802288DF828000CD001280AD00F2808D0032809D1891C08A808222BF056F9BD
:20110000616802E04888ADF820008F7B002F73D078001DF0A3FF061C08BF10207DD0002165
:201120006068877B8F4261DCC18A838CCDF84480826A15950C2F129190F822901393BDF8EB
:20114000208014924CDA404623F05EFA0C2816D14FF6FE7023F058FA0C2810D1DFF814C33C
:2011600010999CF82C3100200CF59A7C1CF8082B9342C4BF131C081C491C0C29F6DBBE4D36
:201180004FF6FE7305EBC00568686B8018B126F017FC0020686077B14FEA470A50461DF0FA
:2011A0005DFF6860002808BF10201AD06868314652462BF0FBF8A5F80280B0486F70149B70
:2011C0000078159F287011990093129A019708A8CDF808B0139BCDF80C900DF063FF00E04F
:2011E00002206070304626F0EBFB16E300694A00105A491CB05293E7886A00900195CDF8B7
:2012000008B091F822000390CA8A8B8C08A841460DF048FF25461DE702202646F9E068684C
:2012200038B300782AF0D8FE071C22D0387B25F05DF90028687040F0F08240464568002D26
:2012400000F0EB822E46002126B9B74204D0E4E260520020B74209D1BD4219BF38680860A6
:201260003968416038462CF093F8D6E231463668EAE72E46CCE034462E467068002800F06B
:20128000C78000782AF0A8FE002840F0BF802BF041F9052880F2B8800027204677702AF07E
:2012A0008DFE051C01D0287B68B11C201DF0D6FE051C00F0B28239461C221FF08AFDDDF86B
:2012C00040902C7100E0B9467068007828737068007A44462876A01C286114201DF0BEFE1B
:2012E0000028686141D0394614221FF072FD71686A6949689079897900F0F00001F00F0170
:201300000143917170684068696980888880706840686969007808707068406869694088C9
:201320004880706840686969C079C871706840686969007B08736869C07940001DF08EFEF6
:20134000696988606C69A06818B13846E179814250DC207B40001DF081FE206169690C6937
:201360001CB138460A7B82423ADC05F10C00804619F0F4FA0446022C18BFB82C06D1287B57
:2013800025F0B4F8404619F0E9FA04463CB9B9F1010F20D1284627F0ABFBC8B11BE0B9F1E7
:2013A000010F15D0686968B183681BB1184626F007FB686903691BB1184626F001FB6869D7
:2013C00026F0FEFA4046394610221FF002FD02E028462BF0DDFF022C18D0B82C16D01CE295
:2013E00073685B6842001B690969D35A53526969401CB7E77268526841009268A3688A5ABB
:20140000CA526C69401CA1E7D12002E0D02000E002203546A8E16868002800F06E81A86847
:20142000002800F06A81002108221FF0D2FC69680878498828F0F4FF071C19D00020A96817
:20144000687038880880A968B8788870AC68A078002800F0E2811DF001FE6060AA685068F6
:20146000002800F0DA819278F91C2AF09FFFD4E1B120EFE5140E0020400F0020D7520020CE
:201480006F68002F00F03981AF68002F00F035810024664668686C703768017820463FB1C6
:2014A0003A79914204BF401CC0B23F68002FF7D1A9680870A868007840001DF0CFFDA9683C
:2014C000376848606868A96800784968002F00F0A4813A79904204D1FA88661C21F81420CC
:2014E000F4B23F68002FF4D197E16F68002F00F004816868002764466F700678206890B1F1
:2015000001798E420BD1002F04BF0568256002D001683960056826F053FA284601E0074681
:2015200000680028ECD126F0ABFB76E102206F686870002F00F07181644639787A88206884
:20154000002800F06A8100270379994202D1C3889A4204D0074600680028F5D15DE107B99B
:2015600067460168396026F02BFA26F089FB1AE16868002800F0C180807800280CBF0022B6
:20158000109A68681099008821F04BFB62E56968002900F0B280887828B1C87800280CBFDA
:2015A0001099032100E000216A68107908B141F040011088527914F0B1FD4BE5686800289A
:2015C00000F09B8030462AF0F9FC041C13D11C201DF044FD041C00F0208100211C221FF0CE
:2015E000F8FB2671204627F083FA20B9204626F0E7F9D1202EE5E0888A4940F00800E0805B
:2016000040F00400E08002202BF092FD864903202BF08EFD68680168089100798DF82400DE
:20162000109F8DF825708DF8267008A822F03AFC10E56868002860D068680088002103F045
:20164000D1F9EAE06F68002F57D0686800786070A9E076486F680678002F4ED068680021D7
:201660002A2269701FF0B5FB608F696808806868B4F84870867269688F81E08F6968C882A7
:201680006868082204F1240707F139010E302AF08DFE2AF04FFE014668680822801C2AF0BD
:2016A00085FE6868082207F11C0118302AF07EFE94F83C10686880F82310109869685C4E44
:2016C00081F8200031784A0824BF6A6882F824008A0824BF6A6882F82500CA0824BF6A68B6
:2016E00082F826000A0924BF6A6882F82700C90924BF696881F828008FE0022034E0686845
:2017000000283FF4A6AC90F9000004462AF002FCA86800B1047046E06F68002F3FF499AC58
:201720000021109869706A6810706868417068680227877068680626C670696803240C719D
:201740006BE0686800283FF484AC407818B1FF20032127F0A9FB2BF09DFC10983549086022
:20176000FEE7122076E40020687056E029461FF0FDFD51E0002030496870EF780F704CE09E
:20178000002068702BF0B3FA4FF4FA702AF05AF843E00020687028F059FE3EE008464FF437
:2017A000807122F0A7FE002054E4294621F046FD32E0294614F0F2FE2EE029461AF0E4FF87
:2017C0002AE029461FF086FA26E0294624F02DFC22E0294624F08EF81EE0294620F074FB58
:2017E0001AE029461BF010FD16E02AF087FE09E0294623F0D5F80FE03046294607F020FCB4
:201800000AE012208046FFF798BA294606F0AAFF02E0294607F09CFA1090109817B0BDE8FE
:20182000F08FC046F9760200E9CB0200E0500020766A00207C052043244F00202DE9F04FE0
:2018400004464FF6FE70ADF15C0D217AADF85400606808AA15F08EFC002800F063849DF853
:2018600022000228B4BF012700279DF824000228A8BF0027BDF82A104FF0000A4FF6F87004
:2018800088420ED04FF6FE70401F884209D04FF6FE70001F884204D04FF6FE70C01E884220
:2018A00000D157462BF0E4FB9DF82310884240F03984002F00F03684208D9DF82660678EAB
:2018C000ADF84C00ADF82E7056B161689DF821209DF83C3001202AF0B1FD002840F0228446
:2018E0009DF82570DFF8C4B2DFF8C4825646002F4BD19DF83D00574658BBBDF82A000346C3
:2019000025F0FEFF5546022808BF0125002D9DF8225018BF012759460988994208BF47F0C7
:20192000020727B1002D14BF402120210F43184625F0E6FF012808BF47F00107002D3DD011
:20194000129800782BF08BF9012818BF27F0010734E09DF8411041B1FF2906D09DF84000E8
:20196000119A27F02FFC50B128E0B8F83A00BDF82A10884205D098F84A0004281ED10126DD
:201980001CE09DF82650222720E0BDF82A10FF2028F046FD002804BF3D1C082708D09DF8AE
:2019A000250047F001052C2740F001008DF8250005F00305012D08BF47F011079DF826504B
:2019C00007F00200304308BF47F0800795B998F82F0078B107F0220022280BD007F0420069
:2019E000422840F09F8312980078062818BF072840F09883F8094FEAA71555D398F83200AA
:201A00001299BDF82A2080080AD20878C01E01282CD9001F2AD0C01E28D0801E26D003E0C6
:201A20000878401E0A2821D9BAF1000F1ED1B8F83A00904240F076830D780520BDF82C4043
:201A40008DF8110004A829F02DFE002800F06A830269032313271370511C0F704C702212D1
:201A60008A70CD7044800AF0EBF95BE368081BD30878032802D148780D2815D09DF82800DC
:201A800038B1BDF82C000E990FF0B0F9012800F045839DF8270038B1BDF82A000D990FF023
:201AA000A5F9012800F03783B8F84800B4F84410884209D1CDF800A0208DB4F8421094F87D
:201AC0004620534615F0DCFB9DF82600002847D0208DB4F8421027F0FBFC9DF85190061CE0
:201AE00026D1B9F1000F12D198F89000012839D112980078062801D1680833D2BDF82E1076
:201B00004FF6FE70401C884240F0BB800AE3042029F0F1FC011C00F00583642008700127B1
:201B20004F70208D488098F8000024F089FBF9E29DF821106068F5780A18537BAB4203D0C3
:201B4000F37050467060606840180421401C29F0F8FF7168814200F2E582401C706001E009
:201B60009DF8519098F832008008C0F0DB82B9F1000F24D0BDF82C002AF0D0FBD0B9A349B0
:201B8000A34CBDF82C000B6822699901A1EB83019047012840F0C6826169BDF82C008847DB
:201BA000A168BDF82C008847BCE2C0468A180020501800206168487800F0DF0048709DF8D9
:201BC000320038B161688879401E8871C0B28DF8320008B907F07F07380924D39DF8250070
:201BE000F9084FF4805A14D279091AD3811011F0070F01F0070604D0072E1CBF761EF6B2AC
:201C00000EB907F07F0700F0E30040EA8600C0B205E020F01C00C11021F0030108438DF8C4
:201C200025006168087298F84A00042800F0FF81092800F0FC8117F0610F40F0EB809DF881
:201C40002200012811D112980078052800F0D68003280AD1BDF82A002AF060FB28B1218DE1
:201C600008A815AA002301F02BFB9DF8320068B99DF82200012804D112980078032800F0E1
:201C8000518208A8214623F00BFA4BE229F0E0FF002840F047829DF83D0000286DD19DF82F
:201CA0002400BDF82A10FD100028ADF854102ED13A0930D29DF82220012A28D00846002126
:201CC0001FF0DAFD002620B14079012816D0022814D0BDF85400B4F8441027F0F9FB28B164
:201CE000807829F03BFC08B1082807DBBDF82C002AF014FB18B104208DF824000126BDF855
:201D00002A10002E08BF022272D09DF824006A0838BF002300D340230DF13D021FF0E6FD84
:201D200030B1616808784AF0200A00F03F0008709DF83D0040B1BDF82A1010A825F0C0FD32
:201D40004AF0400AADF854009DF82200012806D0BDF82A00BDF82C1000221CF0D5F8680815
:201D60002CBF40220022BDF82C10BDF82A0018F0BFFA08B14AF0200A33E09DF840009DF8C9
:201D80004110119A27F01EFA00282ED09DF8410038B9BDF82A00ADF854002BF0D5FA00BBAE
:201DA0001DE011999DF8286001EB400030F8020C002EADF854000CBF082010209DF8276097
:201DC0000EB10830C0B29DF82560002106B1012140186168401CC2B2505C401E50544AF0AD
:201DE000400A29F04BF98146A6E0BDF82A100B22BDF82C0000231FF031FB93E1218D08A8C2
:201E000015AA002301F05CFA8CE1C046B8F30200A417002078084FF0000967D39DF83300D4
:201E2000B4F828B0C14D494616900920EA79169B934206D1BDF82C302A88934201D1AE7862
:201E40002EB9401E05F1080501F10101EED1092921D0AE79E6B1B8F84810584628F0E8FB05
:201E600008B1761EAE71B24815210279FF2A02D00288934504D0491E00F12400F5D102E0F6
:201E8000A879401EA871A8792628A4BF4E46AE7127F060072AE029F0F1F881469DF832000D
:201EA00028B9BDF82C00218D814202D11EE0BDF82C00B8F83A10884202D198F80500A8B1B8
:201EC000218D08A84A4613F0C7FA58B1380932BFBDF82A004FF6F870C01D4AF0040AADF8BF
:201EE000540003E027F020074FF00009B8094FEAA71510D394F8460094F8476094F9483082
:201F00008DF81000E26B8DF8116004A98DF8123008A804F021FA68080ED3218D08A815AA48
:201F20004B4601F0CDF95FEA000905D012980078012808BF4AF0100ABDF854104FF6FE7000
:201F4000884208BF4FF000097A481C30007801282BD1618E4FF6F870C01D884225D0218D17
:201F6000884222D0BDF82A204FF6F870401C90421BDDBDF82C00884217D02BF0E5F9A0B1F7
:201F80000179012918BF02290FD101218DF810104088ADF81C0004A823F000FD28B105A829
:201FA00023F0B0FA08B128F021FE37F07F0000F0B980B9F1000F00F0B58020891DF04EF8CB
:201FC000071C00F0AF80616822892AF0EFF9002505959DF822008DF81000CDF80090CDF824
:201FE00004A004AE0295BDF854100396228D237A384619F0FFFBB0B998F80100002800F063
:2020000091808DF81C908DF81E508DF81D50BDF82A00ADF81A00BDF82C70ADF8187006A8CF
:202020002AF014FB7EE0384625F0CAFC7AE05946BDF82A000988814209D025F061FC02281F
:2020400005D09DF8250000F0030001286AD19DF8220000284DD012980178042903D19DF8E5
:202060003C10022940D00178072905D19DF83C2098F80000042A06D0032953D108A80021B4
:2020800016F074FF4EE04FF4806122F051FE092088F84A0027484178022904BF0021C177B2
:2020A0002AF048F901460D982AF022F8012839D1102029F020FA07460E991298401C8FB3D3
:2020C00002223A704378027802EB03227A80807878704A2026F032FA9DF8260010B9164982
:2020E0000520087039461EE5002008A90DF02CFE18E094F8460094F8477094F948608DF802
:202100001000E26B8DF8117004A98DF8126008A804F022F906E0BDF82A0001E0BDF82C0072
:2021200023F044FE17B0BDE8F08FC046A80E0020A0120020BC520020E05000206D4A2DE966
:20214000F04FADF14C0D10780F91090C80F02B840F999346890B80F0FC830F99890980F03F
:202160002F830F99490980F0B1820F98DFF89491C00980F0368260480F990078090A80F031
:2021800022820F98DFF874A1DFF87481400A80F0BB800F98000B80F097800F999BF80300D0
:2021A000490B80F0878054460F99606AC90B6BD20F992078890839D20F98E188800A18D2D7
:2021C0000F98000907D301200F9F8BF8050087F0080000F007BC0F98C00A08D3BBF84800A5
:2021E000012125F013F90F9880F48060FAE30020F8E3BBF84850ABF848105020A11D26F03F
:202200009DF9E688102744466089854205D0864204D020462AF041F800E066817F1E04F1C6
:202220001C04F1D10F9880F40070DBE340B301A82BF08EF82AF010FF49460546032091F887
:20224000238091F824608DF80D0003A829F02AFA071C15D038690B2100F8011B00F8018BE7
:2022600006700126BE772AF065F878627D807E7701A838620023BE763846237009F0E0FDC8
:202280000F9880F00200ADE380B149461431097801290BD18047A06A00B180479BF800002D
:2022A0004FF480414FF47A722BF09DF80F9880F4804097E320B100208BF8030025F01EF844
:2022C0000F9880F480508DE325F018F84946087A01280BD1497A49B19BF800004FF47A72E9
:2022E00012FB01F24FF400612BF07DF80F9880F4006077E35018002082580020A417002078
:20230000E0100020BC5200202AF0B8FE4FF6FE71814200F054819BF832008008C0F04F81A6
:2023200000252C46284628F0C1FB071C19D03879012816D0022814D0F879411CF9719BF81F
:202340008B1081420DDABC727C72388827F0DAFB388801A928F0C6FD01A823F0D3F828F08C
:2023600045FC6D1C152DDDDBA8F11C0610274FF6FE75119436F81C0F85420CD0307B9BF810
:202380008B40411C8442317305DA1198B0747074308827F0B7FB7F1EECD15446032104F18D
:2023A000380010F8047F0FB17F1E0770491EF8D1BE4C152605F1010934F8240F81451FD0FD
:2023C00001208DF804006788ADF8107001A823F0E5FAA8B1A8F11C05102735F81C0F218859
:2023E000814208D0BDF80610814204D002A8A91C29F07EFE10B1284629F04FFF7F1EECD1EC
:20240000761ED9D1119D2C46284628F04FFB48B1017931F0040105D1807A29F09FF808B1BC
:20242000641CE4B26D1C152DEEDB28F08FFF119E5FEA00080ED03546284628F00FF928B18C
:20244000807C29F08BF808B1761CF6B26D1CEDB2A845F1DCA019C7B2002F41D0B8001CF0D9
:20246000FDFD1090002808BF119F3BD0BA00FF211EF0AFFC119E3546B44218DD284628F0EA
:2024800015FB031C10D0187930F004000CD1987A29F064F8011C07D0009718885A7A109B6A
:2024A0001DF07FFB761CF6B26D1C152DE4DBB8F1000F17D0119C204628F0D0F8061C0AD043
:2024C000B07C29F04BF8011C05D00097109B3088727C1DF066FB641CE4B2A045EBDC01E089
:2024E000119810909BF83000002808BF4FF0620805D029F097FFC0F154005FFA80F80320BB
:20250000B8F1600F98FBF0FAA8BF4FF01F0ADDF840904FF6FE7BABF1020BB8F1000F0EBFC6
:20252000119D2025DDF84480BA45A6BF3C1C45F040055446032014FB00F0801C8DF80500F7
:2025400001A829F0AFF84E46031C26D01869082104F01F02017045EA02014170801CA4B165
:202560002246C01E361F16F8041F00F8031F318809124170B17801F0070CF178521E01F0F9
:20258000070141EA0C118170EDD1A3F802B001209876184609F054FC00E00120E90906D24E
:2025A000641EE4B20CB109EB84093F1BFFB205F040052843B1D0109808B125F001FA0F987C
:2025C00080F480700EE230B9BC488178012902D100214170817024F027F90F9880F0800036
:2025E00000E2B74C0925002106264FF00408A778002F3FD07F1EFBB26079A37029F040FD47
:20260000071C36D05BB9787B022808BF7E7330D07E733868407BF02124F0FAFB29E0A3791D
:202620001BB9787B032812D023E023790BB3E078401EC3B2E370E3B99BF82500E0702079AE
:20264000401EC3B22371787B032812D123B92046394625F015FA0CE087F80D802AF0F9FD25
:2026600000F00F00401C38819BF80000202121F041FF01216D1E04F10804B8D19BF8000057
:20268000012915D0402122F053FB494691F82A00012817D14846002180F82A1090F82B0003
:2026A0001AF0F8FE28F0A2FA0CE0C0467C120020402125F065F928B99BF800004021642297
:2026C0002AF091FE0F9880F040008BE1102125F057F930B99BF8000010214FF47A722AF002
:2026E00082FEC248DFF80883417808F5C674491ECFB217BB012141700020052129F092F987
:20270000071C1BD006253846052129F08BF90646388978B1401E80B2388158B97889C008E6
:2027200002D3387B27F0D6F97D733868407BF02124F06EFB371CE6D100E0477028274FF61D
:20274000FE7600252079A0B1FF2812D0401E2071C0B270B96079032805D1608821880222D4
:2027600020F0FEFE6079012803D0268066806571A5717F1E04F10804E4D108F1DC040827A5
:20278000207A401E2072C0B230B99A48214627F0F1FA90B9668025707F1E04F10A04EFD1E5
:2027A000954A0C2112F8080F08B1401E1070491EF8D10F9880F0100014E123F055FFE4E7D7
:2027C000202125F0DDF828B9DBF81000002808BF012616D02AF0EAFF04462AF031FC4FF437
:2027E0007A716043B0FBF1F1DBF81000002808BF002004D088428CBF4FF0FF30081A460805
:2028000069D00020042129F00DF9071C63D0FF254FF0FF3A06244FF001093846042129F0FA
:2028200001F910903889864204D8801B83B23B8113B14DE000203881BB7B012B02D178890D
:20284000C0083FD3002B36D08DF804508DF805508DF806A03968086AC97F02AA14F08AFCFE
:202860004FF00008012808BFC8465FEA08001DD0788A40F08000ADF83600B87B8DF8380058
:202880007889000908D3BDF8360040F48070ADF83600387B8DF83A007B6913B1187BADF817
:2028A000180001A9002202A803F056FD7C73387B1DF05AFF0CE087F80D9009E09415002082
:2028C000A80E00207C733868407BB72124F0A0FA109F002FA1D10FF0DDFF9BF80030002044
:2028E000012129F09FF818B11846202121F002FE0020042129F096F8B3B278B15A460789E3
:20290000147829F08FF8F8B9BB42AEBF0027FF1ABFB2204627B9202121F0ECFD00200DE031
:202920007A0020212AF062FD2AF040FF04462AF087FB4FF47A716043B0FBF1F0CBF81000F4
:202940000F9880F020004DE00289BA42D8BF171CD7E72AF08EFD294C0546201D00680746AD
:2029600098B157F80C1C9BF8000021B94FF4005120F092FD03E04FF4005121F0BBFD204651
:2029800039460022001D26F0A5FE28462AF00AFF2FB13846FEF752FF384628F0C3FE0F988D
:2029A00080F400501EE021F077FD071C17D0144920310A78FF2A0FD03C780B460020944293
:2029C00007D0401CC0B2C200D1189A5CFF2AF6D102E0496838468847384628F0A3FE0F9803
:2029E00080F4004013B0BDE8F08FC046846B0020140E002093700200380F0020AC59002054
:202A0000E0EF02002DE9F04FA848AA4A0178A8481170A94D4170A9495C30E860ADF1540D56
:202A2000086024F047FEA649B54801F5E471B34CDFF8D0920F9100F5047101F120021092A6
:202A400001F1A20201F592718B469D49491D1291AD4980461192091D13918BE2D8F824009D
:202A6000D8F81C70964E850005EBC005ED19377810351B2F1FD130469AA1042228F042FC7B
:202A800030B3304698A1042228F03CFCF0B1304696A1042228F036FCB0B1304694A104223E
:202AA00028F030FC70B1304692A1052228F02AFC002840F03681402F0BDD5B2FBCBF2037E1
:202AC000FFB206E0FD2704E0FC2702E0FB2700E0FA27287995F805A0022859D0032840F0AE
:202AE000B3800F98002140F2A5121EF072F9002610982A79CDF828B0119B0890032A09935E
:202B000041D16B7963B90D2F31D101206871A86806681EB1C08808A90022B047012627E0DE
:202B20001B2F2ED07F2F2CD0FC2F07D0FD2F0FD1A9688888CB881B185B1E04E0A968888870
:202B4000CB881B185B1C93FBF0F242439B1ACB80A868066836B1C08800220D2F08BF01228E
:202B600008A9B04700260D2F18BF01266E7156B10A982968802226F013FD012012F02EF823
:202B800001E0304668716879504518BF1B2759E00F98002140F2A5121EF01BF90026119B98
:202BA000CDF834B04FF0FF320C931098ADF8382011460B902B79ADF83A10022B42D16B790F
:202BC0002BB90D2F1BD101206871FE201AE00D2F07D01B2F13D130466871AE684EB1F92019
:202BE00004E030466871AE681EB1FF200BA90EAAB047002088F8010011F0F0FF01266B799F
:202C000003B33846AE6816B10BA90EAAB047012011F0E4FFBDF93A000126B0F1FF3F0ED067
:202C2000BDF93810B1F1FF3F09D0A8F82E00A8F82C10324688F8012023F06AFA02E00020A1
:202C400088F80100012E6CD0D8F81C20D8F82410B7F10D0036D00E381BD0643814D07D3857
:202C600001285ED8107A01285BD0FD2F1CBF0144491C02D1107A4118491EB1FBF0F2424336
:202C8000891AC8F8241049E0D768D8F8280057B140E0BAF1000F02D06F79002F3ED0D8F894
:202CA0002020C8F81C20117A491EEAE720010020A4340020C06B0020501A00200452002091
:202CC00054410020880000EBC100801814300778E7B1012F22D1476807B3084639468847F0
:202CE0001CE0C0461B5B41001B5B42001B5B43001B5B44001B0000000000C046384E002029
:202D00000C41002050180020EC5800204768C8F828100020C8F82400C8F81C70002011F042
:202D20005DFFAB48002105221EF053F8D8F80800129905222AF0BAFAA08920F04000A08191
:202D4000410A08D319F0B8FAA2894FF6FF6122F480701140A181800A10D3A56DA06B226C31
:202D6000A84204D11AB1002008219047226C606BA84203D112B10120082190470020A0816D
:202D8000C1488168480AC0F0A680BD48BD4F0578387801286DD02AF0EFF9011C00F0958051
:202DA00099F824708A7BB64B89F82420B9F83A608A7B08691A708A898B7BA9F83A200122A1
:202DC0000092002201920122029200220392049342780592406800232122069001200790FA
:202DE000F2200DF069FE1E20BE4989F82470BC4AA9F83A60A24B087090681D7000282AD0B6
:202E0000C5490D6814352F6857B102693969914205D007F114052F68002FF7D100E097B9C3
:202E2000AF49CF687FB178682AF0BEFAAC480021C068139F416038682AF0B6FAA849002076
:202E40000E46C860B0682AF0AFFAA5490020886028680F46B860BB4881692AF08DF9002873
:202E600033D0084632212AF087FAC5482AF025FB2BE0B448824990F85A00B24E0870B6F8F2
:202E80005810B9F83A60A9F83A10C54999F8247089F8240001230093002201920293039226
:202EA000A84B049093F85B001A460590D06D04232122069001200790F2200DF0FDFD89F831
:202EC0002470A9F83A606E4805706F488168074621F48071B9609B48C0688A0A3CD3071C1B
:202EE00032D0C668F968B1421DD839468F68F0B1856881420FD0034601E02B469D68B5B1AD
:202F0000ABB1A942F9D1A868986028462AF04CFA8C48C0680BE0C04800682AF045FA894948
:202F20002846C86003E0F968891BF960BF68002FD7D14EB18349C96930B1084631462AF0FF
:202F40001BFABD482AF0B9FA4F484F4A816821F40070906021F40071C80A07D322F076FC46
:202F600049484949806820F4806088601BF03AFC21F078F9444840684FF0FF312AF00EFCE0
:202F80000028F7D04048007821F086FA051C00F076812F782078C72F0FDCC72F00F0A4807F
:202FA000923F00F0D180BF1E00F0C880313F00F0C1807F1E00F0BB80C9E0E03F66D0BF1EA6
:202FC00008D07F1E00F0AF80BF1E00F0A780BEE05441002095F84000443080B22AF0B1FADE
:202FE000071C00F0B4802E1D381D0C22314629F0F9FB28693861287D387595F9150078752C
:20300000A87DB875E87D14360A223146F87507F1180029F0E7FB688C788495F8240087F874
:20302000250095F8250087F8260095F8260087F8270095F8270087F8280095F8280087F82C
:203040002900E86AF86295F8300087F83000686B786395F8380087F83800E86BF86395F8CA
:20306000402005F1410107F1410087F8402029F0B9FB384601F0BAFF38462AF095F966E03F
:20308000405500206C580020501A00202F792A1D002007B101202AF075F86F79A7B1EF88E7
:2030A0001FB900202AF06EF817E05088401C608181482AF004FA606D4FF47A712AF05CF941
:2030C0007D482AF0FAF908E0002060817A482AF0F6F9606D00212AF04FF919F0EDF836E016
:2030E000E458002014180020744AA97B2F8A84F88E102E1DA4F89070336871681360FF287E
:20310000516002DA401CC0B2207000201DF028FD17F0BEFB1BE0C046EC580020A988A81D57
:2031200017F082FC13E0281D26F0E8F80FE020F0D9FB0CE0E81C1DF013FD08E0E81C0BF015
:20314000F7FB04E0244F0020281D1AF0AFF828784FF0010A712825DC712851D0652811DC58
:20316000652866D0801F77D042387ED0183870D0401E6BD0401E012877D9801E5ED071E0C1
:20318000984F0020663851D0801E4BD0801E03286BD9001F42D0401E3AD0401E34D061E067
:2031A000704F002091280FDC91285ED0723802285BD9C01E20D0401E1AD0401E55D0C01E26
:2031C00053D0801E51D04DE092380DD0C01E01284BD93038062848D91B3846D0801E012827
:2031E00043D9093841D03DE0EF6A002F3DD035E0AF68002F39D031E06F69002F35D02DE021
:20320000EF68002F31D029E0EF68002F2DD025E0EF68002F29D021E0304F0020EF68002FF1
:2032200023D01BE0EF68002F1FD017E0EF68E7B114E0EF68CFB111E0BC4F00202F46786908
:2032400008B124F0BDFBFF697FB107E06F6967B104E06F694FB101E0AF6837B1384624F04C
:20326000AFFB02E04FF0000A02E0284628F05AFABAF1010F03D015B1284628F053FAA0896D
:2032800000283FF47DAD81090DD314F0FFFF1AF051F900201DF064FCA2894FF6DF7122F08A
:2032A00020001140A181C109FFF44AAD98F8000001283FF4D3ABFEE7004F0020BC4E0020DF
:2032C0002DE9F04F064693460020ADF13C0DABF80000B06A099303460078884629F0BFFCB1
:2032E00048B17089044624F00BFB022804BFABF80040B36A01D0002009901878C84DDFF885
:203300002493401E0A2800F20B84DFE810F02F03B3020C04A0028D0151010904BE00880052
:2033200066000B00BD4C207D012840F0F9835B1CB06913F8015B1F782AF046F8002800F0A3
:20334000F7830379002B00F0F383032B80F2F0830E2D1CDCDFB9D04907752DB901EB85011B
:203360000A6AC261096A0AE001EB85010B6A9A01A2EB8302C2610A6A9101A1EB82018161AB
:20338000012180F8201027F031FC002500E001250320B689E47F8DF8190006A828F082F950
:2033A000071C00F0C58338690C2100F8011B00F8015B04700124BC7728F0BCFF786204A956
:2033C000304627F08FFD10B17C7704A838627E80BC76384608F034FDAAE35C1C207820F056
:2033E0001F0700F01F00012840F09A83641C04A821462AF022F8284604A95D3028F078FE25
:20340000002800F08D83002F40F08A830834A2786178207801EB022125F012FC88E3688FBD
:203420007189884240F07C835C1C14F8016B04A821462AF002F8284604A95D3028F058FE6C
:2034400006F01F0726F01F06002800F07183002E40F06E8378001BF001FE011C00F0688340
:2034600067B184460834384663782278401E04F1020402EB03222CF8022BF5D100910AF02E
:2034800074F9084624F09CFA52E35C789A1C34F07F0704F01F0E40F04B83377F03201EFB4D
:2034A00000F0801CC1B2B94240F04283002714F01F0F04BF4FF6FE7C614618D0D9789B784F
:2034C00070464D4603EB012C5378117812F802EF01EB03213EF0770340F02A832B888B4224
:2034E00008BF0EF00707521C401EEDD1BFB960464FF6FE72824212D004F06002602A0ED038
:203500004D462A88A30907D2E30902D2904203DD0EE3904203DD0BE39142C0F20983B08994
:2035200029F012FF002836D1B0894FF6FF7127F07FF8041C14D125F0B1FF041C00F0F88262
:2035400000211C221DF045FCB0894D460E35208028886081AA23A3740222227401216174E9
:20356000207C032805DB0220072F2074BCBF7F1CFFB2677400202073A01C28F0D3FA00289A
:2035800040F0D682307A002800F0D282B169A01C29F053FFCCE20021C171017A032905DBC4
:2035A0000221072F0172BCBF7F1CFFB24772BFE2484671890088884240F0B282307F022807
:2035C00040F0AE82AA4C201D00884FF6FE71814240F0AE82162027F08EFF071C00F0A882E2
:2035E00001213970B07900280CBF081C02207870B06A4078B872000902D2B08925F070F827
:20360000B169B81C29F019FF0020F8742878394622F016FEB089A0808AE2C046BC520020C1
:20362000501800208A180020708924F069F9002840F076825F78B94987B10C2F03F102033C
:2036400080F276828C463D465A7818786D1E03F1020300EB02202CF8020BF5D14846758935
:203660000488DFF8D892AC4200F0B280B37C002B00F05E823B1C0A974FF0000811D0A74A32
:2036800038464146921E32F8023F9C4206D0401E01F10101F7D104E074F302000A914FF015
:2036A0000108284600211EF0E7F800280B907ED0407901287BD10B98807910F0180F76D03D
:2036C0000B984188384628F0E9FC10B9B8F1010F6DD109F533794FF6FE704FF000080C97FC
:2036E000B6F80CB0CDF820904FF0010A0D90C14611E0B8F1010F08BF4FF0010908D029F052
:20370000A8FDC0B290FBF8F101FB08F1A0EB01094FF00008C246089D10271C3D35F81C4F78
:203720004FF6FE70A04213D0A34511D00C98214628F0B4FC60B96B7C53B1072B08DA08F164
:203740000100BAF1000F5FFA80F801D1C14521DD7F1EE3D1B34D152735F8244F0D98A04253
:203760001AD0A34518D00C98214628F097FC98B96B7A8BB1072B0FDA287901280CD002287C
:203780000AD008F10100BAF1000F5FFA80F803D1C14501DC0D9407E07F1EDDD1B8F1000F88
:2037A00002D0B9F1000FA4D00D980B994880B37C5A4C581EB074F77C00970A9D01950294AD
:2037C00001220392B189B269708919F0C1FDAFE1B4890C2F80F2AC818846ADF81040BD48AD
:2037E0008DF812700168CDF8148009B104A88847204620F009FF0C2803D14FF6FE7020F082
:2038000003FF0C2880F2948109EBC00505F59675686808B124F0D4F82FB178001BF01EFC47
:20382000686010B984E1002068606C80C2486F70007828706878002800F07A8168680028DA
:2038400000F076817A00414628F0B0FD70E1307F022840F06581099828B94D4671892888BC
:20386000884240F06581099831460CF06DFA5EE1A4170020B5F84810404625F029FEA8461E
:20388000074608202FB17D781DB90221397007257D70B16A0A79CC788B794D7891F802A04D
:2038A000CF7904EB02244A7902EB03296A0928BF1020AA0924BF0830C0B235F0700340F03D
:2038C0003781327F904240F0338105F07005680938BF002006D306A8083129F0AEFD25F03E
:2038E00010050820A90907D3B16A091804A8083129F0A3FD25F020052046514626F0B4FC28
:2039000008280DDA8D4B410001EBC001C9188879B84240F30D818F71002002E0320E0020CB
:203920000420B8F83A10A14219D048B9B189484601222B4611F0C2FB28B1F9E0140E00208E
:20394000042840F0F58006A804AE009049463A46534601962046029515F03CF9E8E0B1892E
:20396000484601222B4611F0A9FBE1E0B5F84810404625F0ADFD4FF00609041C03D060785C
:20398000002800F0CD80B06A817847780891C378017900F1050A03EB01200990404622F062
:2039A0009BFC9AF8001009185FFA81FAB80928BF4FF00E0937F0780040F0B28007F01800CB
:2039C000182800F0AD80307F814540F0A9804FF00009CDF800900899B089524643461DF017
:2039E000BFFF032800F09C80002807F078074DD117F0180F18D195F8310028B1B0894146A8
:203A000001223B4611F05AFB09984FF6FE714A463B4611F053FB002838D14FF6FF70ABF86F
:203A2000000039E07C12002047F00107780928BF47F00207B08939461DF01EFF90B18179BB
:203A400011F0180F0ED0417901290BD154B14088B5F8481025F03CFD20B1437813B1607858
:203A600098425DDCB089414601223B4611F026FB60B94FF6FF70347AABF80000002C0CBF98
:203A80004946B169B089524628F028FABBF800104FF6FF70884243D1012000900899B08992
:203AA000524643461DF05CFF0998394624F0CEFC698F81422ED1099829F046FC60B100793F
:203AC000012818BF022807D1099804A927F00AFA08E0C0462051002028F02CFC014604A8C9
:203AE00029F0ABFC307A012803D1B16906A829F0A4FC06A8009004AF0197B06A407840F053
:203B0000300002900999089BB0894A4615F062F848460CE0B06A80F805A027F0AFFA06E01F
:203B20004FF00009F4E70999304615F01FFA099009980FB0BDE8F08FD7520020F00E0020A8
:203B40002DE9F04F954C04F128000768ADF14C0D17B1002087F84500DFF83CA2002517F11E
:203B600048030BD0BF6D8B4E73612FB950460068D0F84C05804773695868706029F079FC86
:203B80001290082018F00CF81EF098FB564610B1BBA029F0FFFD21F04FF9684628F05CFF67
:203BA000042069468DF80000284629F04BF9E06328F094FE09A829F0ADF8042009A98DF82B
:203BC0002400284629F0AEF8606328F091FE0DA829F0B0F804200DA98DF83400284629F09A
:203BE000B1F8616BA06319B9ADA029F0D3FDA06B10B9B0A029F0CEFDE06B10B9B2A029F0BE
:203C0000C9FD3068D0F8E00380473068D0F818028047DAF800002F460726A03001687B5813
:203C200023B118468047DAF80000A030761E07F10407F3D1D0F8B8028047EB2029F024FA03
:203C4000A06A2F4670B105A8FF2108221DF0C1F8A06A05A9082227F055FD04F12806012870
:203C600018BF37689D4A0CCA05A8391C80E80C0021D108201BF0F2F95FEA000856D0A8F17B
:203C80000206032729F0E5FA06F8020F7F1E4FEA20207070F6D11020F82706F8020F414649
:203CA000082204F1440088F8077028F07FFB404623F086FE04E004F14400082228F076FB2B
:203CC0000120082105AA29F081FA04F14406002818BF092826D127F064F980081DD205A859
:203CE000FF2108221DF075F807AFFF21082238461DF06FF80120294608223B4628F038FF84
:203D000080B9384605A9082227F0FCFC28B930463946082228F04AFB04E001200821324602
:203D200029F05AFAE220314624F008FC27F039F9400834BF2E1C0126694F5520012107F149
:203D40003A0229F043FA18B916B1284626F094FB644FE22007F1440126F084FF304620F015
:203D600033FF05A8294610221DF033F8BB469BF8010030F0010016D15B4F05A910223846E6
:203D800027F0C0FC60B9394605A8102228F00EFB09E0C0464054002014010020200100209F
:203DA00005A825F027FF6220102105AA29F00EFA28B926B16220102105AA29F00DFA05A8B1
:203DC000294610221DF005F8304616F053F9304624F078FB304616F0C3FB05A825F00AFF6E
:203DE00040F20110102105AA29F0F0F930B92EB140F20110102105AA29F0EEF905A8294697
:203E000010221CF0E6FF1EB12846012125F04CF824201BF023F90028206400F0A681E06A4F
:203E2000216B221D1EF0CEFFDAF80010D1F84C138847216C201D0860E06A216B04F10802FC
:203E40001EF0C0FF11F038FC216C04F108004860E06A216B04F10C021EF0B4FF04F1300966
:203E600004F12C08D34ED44F236C3070D9F80010D8F8000003F1080C07F1100E2B4639E04D
:203E800052616E646F6D5F736565644175746F6D617469632829206661696C656400C0463E
:203EA00041455343434D206F70656E206661696C656400C0414553454342206F70656E20AA
:203EC0006661696C656400C054524E47206F70656E206661696C656400C046C0A8F50200C6
:203EE00084540020BC52002074F302004EF823505B1CDBB2002BF9D07D61CCF8002004F1CB
:203F000010021EF05FFFC14FB870BF48BBF830603D700BF13C01BE8029F08FFA0BF14C068D
:203F200004F11003216C9BF82600CB6004F114027870D9F80010D8F80000FE601EF042FFB7
:203F4000B349B44E0870B44ABE60B44B7A62206CBB6204F1140604F11802D9F800100661E5
:203F6000D8F8000011921EF02DFFAD4EB071022286F824204FF6FE70B08328F0DBF9A249D5
:203F8000A8480560D84829F058FAA748A7498160A74BC360A74A0261A7483822FF211CF0A3
:203FA00018FFA648A74B8360A74AC260A44941600570A64B0361A64A4261A749C161A54B27
:203FC0008361A64A3A61A749B961A54B7B61A64AFA6106F1300016F0C1FCC34809272C30D0
:203FE0007F1E40F8045BFBD1B07948F2010122F0A7FDB0794FF4004122F0A2FDB07948F2E5
:20400000210122F09DFDB07948F2220122F098FDB079202122F094FDB079212122F090FD8E
:20402000B079222122F08CFD206C11994161D8F80000D9F8001004F11C021EF0C3FE8B4E35
:2040400048F21501307022F07BFD3078382122F077FD884F884BF760854833610222706108
:20406000216C86F828204FF6FE7704F11C03D8F800008B61D9F80010378404F12006324634
:204080001EF0A0FE074699484770024692F83B0010B102208BF80E007848C580C5608570EF
:2040A0004561057405700121017148F20201384622F046FD384648F2010122F041FD384640
:2040C00048F2040122F03CFD6E486D4F39496E4B38616E4A4B600846236C8260D9F800100D
:2040E000D8F80000DE6104F124021EF06BFE684B207068499870284629F01AF866490120BA
:2041000029F016F86549042029F012F86449062029F00EF86349072029F00AF862490820D0
:2041200029F006F898784FF6FE71491C22F008FD5F4E604B604A5D4873606C49B260604E39
:204140005E4B88620846BE605F4A43625F4F5D4B5F4E18481A605F4AC76003461F461E6138
:20416000206C7A6104F12406066216F0C0F816F08FF9129829F016FB12F042FC27F07AF868
:20418000DAF80000D0F8D40090F8430027F084F8DAF80000D0F8582429460120904728F0BE
:2041A000B5FC4D48DAF804700570F868007860B904E0C04650580020244F0020DAF80000F6
:2041C000D0F858242846014690471BF01FFC4348058145812B460360424A4360404807215F
:2041E00026F0C8FC1BF020FD24F08AF924F048FB9BF80100022804D14FF40040012118F08F
:20420000B1FF13B0BDE8F08F745500204055002040590020915C010031CE010055CD02009E
:20422000E05000201C5300208058002061030200AD77010055860100700E0020D05700205B
:2042400001AB000065B90200FD2E0200A396020059B00200F18F0200E5B5020019AE010039
:20426000C993010011B00200A1C200007C550020D989020045A3020015AC0200EC6300204A
:204280006C580020F9CA020053A30000D16502008C59002039CC0200FDCB020011CC020092
:2042A00025CC0200FDC7020015C80200C5600200E01A002001780200ED5902003D5A0200C9
:2042C0007F7702005C180020A16E020049A101008143020007700200B96B0020486B002000
:2042E000EC00002007D50200F4500020845400202DE9F04FDFF814B3C34C01214FF0E047EE
:20430000ADF12C0DDBF804002569C06808931F400170C84807924FF0000101704FF0020033
:2043200000EA020008BF002840F0F482DFF80893DFF8088311464FF480301E46002708400B
:20434000374008BF002832D100204FF4003110EA060701EA020108BF00290ED137464FF4DC
:204360008001384001EA020108BF002900F0C682002028711EF092FEC0E22871EB2024F07D
:20438000F1FF4A460020414610700878862801D125F06AF829F06DF8E1690A68002313711E
:2043A0000968E16129F0FEF927F094FEA6E20020DBF80070287107F1B8000168DFF880A2FB
:2043C0000F782FB951460F7817B1D0F89404804725F030F8812756469A4937709A4D086007
:2043E000FF232B702778A7700021A1812069DBF80050007A4A460E46801E81B2D5F800015E
:204400001670C0890A918842C0F26C82E1690831096804F1180001600426A6810A98DBF8A0
:204420000060657EA17EE37E04F11902C01E80B206F1B80C0A9005EB012051786081C1F3D5
:204440000119DCF80010237109780692002908BFB9F1020F00F04682B9F1020F00F34282DC
:2044600019B110F0070F00F03D82667800F00705AD1E022D08BF002E00F0348231B14146D5
:204480000978862902D1002D40F02C82001300F00200022864DA35435AD1DCF81C0090F886
:2044A0008300022851D0E1690C31097805A801700527A78128F0DDFF45460646287886289B
:2044C00040D1DBF80000403001680F6837B9D0F80C058047DBF80000006C07689DF91400C0
:2044E00029F00DF87877DBF80000016C096800228A77006C9DF914100068C177304629F086
:2045000051F92679678928F0B4FF41460A7807F01007862A15D1BB4D05F11E031A88521C1B
:204520001A8087220A7029F03DF9E879B04206D11FB900201DF0A2FF07E01B20FAE7E92093
:20454000F8E70646304629F02DF927F0C3FDCBE141460878862803D124F086FFA7786678D9
:204560008FB186B9012F00F0BD816089022F03D110F0070F40F0B681032F05D100F00701F3
:20458000032901D0AEE16089010980F0AB81011301F00201022902DA810A80F0A381069933
:2045A0004978C1F38108B8F1010F4FEAA111099100F09881012900F09581B9F1020F14DADD
:2045C00000F00701012918BF03290ED1B8F1000F0BD1099F002F00F0858159460968AC3189
:2045E00009680F78002F00F07D81BD49B9F1020F0ED0099E11F808708A5DB918CFB256B39D
:20460000C10928D3BF1E13E0A0680020140100200A46099908EB0207891809793A7952187A
:20462000C109D7B212D2099958EA010613D0BF1CFFB210E074590020BA6B0020BD6B00207F
:20464000B86B00209C6B00202D1A0020099958EA010608BF02270A9AC0F30020391A607113
:204660008A42C0F23F81DBF800601146C91B091888B2D6F850122081743080B28847002895
:204680006678606100F02E81002174221CF0A1FB0020E07062891EB9C14902F020000870B7
:2046A000BF48617906784FF0000C002E30D000292ED102F00700032808D0012828D1DBF809
:2046C0000000D0F8D40090F882600EB3DBF80400406906781EB128F033F9FE2815D0DBF824
:2046E0000000D0F84C02804750B9DBF80000D0F84402804720B96289617994F803C007E058
:204700000420E0706289617901E00420E07084466569268905F1740305F17400AB65069B3C
:20472000686093F801902E812089C9F3011A0029A5F85C001878AA8100F078004AEA0000ED
:204740004CEA000028744FF0FF06AE730CBF2079002085F83A8085F84900099885F8300053
:20476000A089002FA0EB010086B2A68100F0B580E169E78068463A468919083119F0DAFA3A
:20478000BF19B8B2A0812846017C4FEAA90212F0030F02F003076D4601F0400843D0BAF12D
:2047A000020F4FF0000301D1C9090BD29DF801209DF8001001EB0221A0F844100DF10205CA
:2047C000A0F84210804EB0F84410B6F842208A4203D04FF6FF728A4223D1032F14D06A7808
:2047E000297801EB022189B24186B6F84020AD1C01208A4214D04FF6FF728A4218BF181CD2
:204800000EE0C0464057002060692946323028F014FE606937363146323027F069FC083561
:204820000346002B56D00698407886111ED06169BAF1020F03D0087CC00903D309E058EA5C
:20484000070306D16A782878AD1C00EB0220A1F84200032E05D068782A7802EB00220A851E
:2048600004E060692946283028F0E7FD59460968AC310A686089167886B1BAF1020F0DDA18
:2048800000F00702012A18BF032A0BD162692FB94E4BB2F842201B8893421BD100F007025F
:2048A000032A05D0012A18D1886A90F88200A0B1D1F89C116069884778B90020069FE07041
:2048C000B97866697878C1F3011100F078000843307402E01EF0E2FB06E00FF005F803E039
:2048E00070FB020027F0E8FB28F0C3FDE1690A68002313710968E16128F054FF079A089FB0
:20490000202100201140384008BF002930D027F09BFB2DE02E4991F90000002803DD91F930
:204920000000401E08702B4991F90000002803DD91F90000401E0870114600201E464FF021
:2049400080770840374008BF00280DD0224991F90000002803DD91F90000401E08701F4811
:204960000121017027F006FE002028711EF096FB184A92F90000A8B1079B089F02214FF040
:20498000E0401940384008BF002914D092F90000002810DCDBF80000D0F84C0580470AE016
:2049A000BA6B0020DBF800700D480021D7F85824017008469047DBF80400C06800210BB03D
:2049C0000170BDE8F08FC046405400208254002077590020765900207859002075590020D4
:2049E000725900202DE9F04F0023ADF1340D099094480A910022C37150260372011D0A708C
:204A0000A02383720024837340224271884646722146C17303688189C4728F2241F430517C
:204A200082716FF30F038181214601744CF2101119430160C049DFF804B381F8322022464B
:204A40009BF800000B9260B9204620F0BDF8BA4890F83200000911D3204608A98DF820007D
:204A600009E0084690F83200000907D301200DF121018DF82100522023F060FD15F037FC61
:204A800027F018FDDFF8E4925FEA000A40F0C98013F058FE5FEA000A40F0B7802046A64A68
:204AA0000C90742124322120154628F08FFB002858D12120214674222B4628F059F80028A0
:204AC00050D19D48408F4FF6FE7181424AD00120994F0C9097F84A00082806D0042804D0EC
:204AE00013F0C8FC20460C903CE00C9C42200DF122018DF8224023F021FD05F12F01432005
:204B000023F01CFD05F12C01472023F017FD05F11C014A2023F012FD05F11A014B2023F08A
:204B20000DFD05F12401304623F008FD05F11601532023F003FD05F12D01542023F0FEFC8A
:204B400005F11801E12023F0F9FC384690F83200000938BF0B9C52200DF122018DF82240E4
:204B600023F0ECFC0B9C15E0DDF82CA050E00B9AA60006EBC40621460C23F0190090012077
:204B800023F0CCFD20B9B85DFF2804BF0020B855641CA4B2B9F80000D9F80470A042E6DCC4
:204BA00013F00EF88E48001D006800B1804724F0E8F90C98F8B128F061FAABF81C0028B9C4
:204BC00098F8000000F0F80088F800008548401C0078022818BF012004D1574A002182F809
:204BE0004A1003208BF80A0039350BF11400294628F023FC01E04FF0090A784C0020608090
:204C000022F0E2FBBAF1000FAED0744C4FF0010A494890F83C10012707FA01F0CBF80C0015
:204C200074E013F08FFD13F025FC434A21207421243228F0D1FA02A8FF210C221CF0C9F80C
:204C40004D4609E0706A0020214601200C2202AB24F058FC641CA4B22888A042F4DC02A831
:204C6000FF2110221CF0B5F80B9C03202146102202AB24F047FC641C152CF6DB5848006828
:204C800000B1804726F002F8002006220B99ADF8100002A81CF09DF814201AF0DFF9061C68
:204CA0001BD0C94808300068A0B103270224A0B202A90622801927F079FBA41D7F1EF6D149
:204CC00004A93046022227F071FB4C201421324628F082FA304622F073FE18201AF0BEF96B
:204CE000071C10D00B9C182221461CF072F80620214618223B4624F005FC641C032CF6DB16
:204D0000384622F05DFE1CF0C9F9344CAE4DBAF1010FA14674D1334C074E677824363FB379
:204D2000012F0DD0022F13D198F8000000F0F80040F002000AE0C04650180020E0500020DF
:204D400098F8000000F0F80040F0010088F800009E4826F014FC002808BF00200FD003200D
:204D60008BF80A0004278BF809700AE0A459002098F8001001F0F80188F8001002208BF8B9
:204D80000A0028F066FAA76B099900F07F000818CBF80C706430022180B20B90FF2024F058
:204DA00083F801201DF0FAFA8D494FF6FE70431C48870F46F8870020A1F8483024F04CF941
:204DC0006078012813D10A9801280DD002A8002108221BF0FEFF02A807E0C04694580020A6
:204DE000E4570020BC520020002022F029FF21207421324628F0F0F90020022124F054F8DE
:204E00007848AF6877498089544640F00100888187B912201AF022F90646002EAE606DD0C2
:204E20004FF6FE70B61F0327411C26F8060F7F1E7180FAD1002C61D106AB4C200021022217
:204E400027F096FE002852D1BDF8180000284ED004284CDA18201AF001F903274FF0020848
:204E600000240646AB681FFA88F14C2006221B1927F07EFE88BBA868015B4FF6FE728A4292
:204E80002BD056B300962018418800221823062023F044FC3069AA6800F2E933336110192B
:204EA000418805F10C02880000EBC100A9681350081973694188880000EBC1008018A968DA
:204EC00043600819418818223346062024F01AFB3046002118221BF07CFF7F1E04F1060450
:204EE00008F10608BED116B1304622F069FD3E4B7120002108224C3327F03AFE27F01AFA09
:204F000027F038FF01206870314EC9F80C600027AF703048C9F8100025F064FD2F482E49AB
:204F2000BAF1000F086014D02D4890F8650080B93846622102AA1FF0F1FB02A8394625F0EA
:204F40000EF9384618F0A6FA02A8394610221BF040FFDBF8100050B10BF110040768206894
:204F600022F02EFD38460028CBF81000F6D109984FF6FF71814221D0012000278BF80000DF
:204F80000BF1080201468BF80870852028F01EF90BF1080428B9852039460122234627F045
:204FA000E7FD0B9801469BF8060019B901211FF0A1FA03E00A46012128F018FA26F070F8EF
:204FC00050460DB0BDE8F08F94150020745500206924010025CE020078570020D5CE010092
:204FE00050180020706A0020BC5200202DE9F04F0746C54C97F824000026ADF1840D01281D
:20500000ADF83C6006D197F828102078012902D148B9B6E2207830B9387D022800F0B18200
:20502000032800F0AE826078CC4D012810D1CA482179007888420BD097F83800E32840F05F
:20504000A082CD48804627F005FF012800F08F824FF4FA60F860E86927F0C4FF40B9E869A4
:20506000F96828F089F905F1980028F026FA02E0F9680818F86097F8250002288DF8300021
:2050800003D008B9F86A0D9005E00DA807F11801082227F0A7FB0CA80DF13E010FAA1DF038
:2050A000B5F958B913A807F13401042227F09AFBBDF83C000DF13E0120F018FF2078012861
:2050C00000F0BB80002840F05C82397D31F0010018BF042940F0558268463146242228F009
:2050E00032FA384669460CF0D7F897F81780BDF8000010F0070F06D000F0070002280CBFD9
:2051000014270B2700E00F279DF81900C01987B2384628F016FA5FEA000900F03282044666
:205120006946022227F05EFBBDF80000A41C10F0070F18D000F00700022823D102200DF184
:20514000080A8DF82400082251460AA827F04AFB20460822514627F045FB9DF81000083466
:2051600004F8010B0EE00DF1040A8DF824600AA80422514627F036FB20460422514627F033
:2051800031FB241D05A92046042227F02BFB9DF81800241D04F8010B9DF8190004F8010B7F
:2051A0009DF8190068B10799002900F0EA810246204627F017FB9DF819002418079828F08C
:2051C000F3F808A92046022227F00CFB9DF8220004F8020FB24CE068FFB248B90C2028F08B
:2051E000B0F9E06000B186604770C0F8049015E0E4680834206820B100F1080420680028A9
:20520000FAD10C2028F09DF9206038B183680BB1866020684770C0F804902068011C00F0D3
:20522000B08181F8008009A809F08CFAA869322128F0A2F805F17400A1E197F83800E32840
:2052400005D1206918B18047002800F09A8197F83800E2280DD0E3280BD0E02809D0E128AE
:2052600007D097F82800012803D0387D032840F08881BDF83C0000280CBFB0460DF13E086D
:2052800031462822684628F05EF90AA83146032228F059F997F838C0DFF8ECB2BCF1E30FDD
:2052A00023D097F8250010F0070F16D000F0070002281AD102A807F11801082227F092FAB7
:2052C00097F830009DF8283097F838C08DF8100003F0F80040F0020005E0F86A9DF82830B5
:2052E000019003F0F8008DF82800BCF1E30F0DD097F829109DF82800C90000F0F70001F0E3
:205300000801014306E0C0466C5800209DF8281041F008018DF8281097F826309DF82920E9
:205320009DF82800190102F0EF0200F0CF0001F03001022B42F0200241EA00018DF8292057
:205340009DF82A208DF8281002F0F8008DF82A0006DA9BB118E0C0468C180020244F002097
:2053600097F8273053B1012B0ED19DF8290000F0FC0040F0040005E0E04F00209DF8290068
:2053800000F0F8008DF82900387D032807D1FB6B9DF82900099340F008008DF829009DF884
:2053A00029009DF8282097F84030800100F4006100F4F860084302F030019DF82820014337
:2053C00002F008009DF82820084302F007017A6B8DF818C0084305923043ADF8000023B1A1
:2053E0008DF8193007F141000790BBF83A00ADF8200097F91500082805DC10F16D0FB8BFB3
:205400006FF06C0000E00820BB7D6E3040B2002B4FEA60000CBF311C022197F8179040EA92
:2054200081108DF82200BDF8000010F0070F06D000F0070102290CBF14270B2700E00F2722
:20544000800A06D29DF81800E22808BF8DF8196001E03F1DBFB29DF819003F18BFB23846CC
:2054600028F06FF85FEA000A00F08B8006466946022227F0B7F9BDF80000B61C10F0070FDC
:2054800010D000F00700022812D102A93046082227F0A8F99DF81000083606F8010B07E051
:2054A000E458002001A93046042227F09BF9361D05A93046042227F095F99DF81800361D5D
:2054C00006F8010B9DF8190006F8010B9DF8190060B10799002954D00246304627F082F90E
:2054E0009DF819003618079827F05EFF08A93046022227F077F99DF8220006F8020FBDF850
:205500000000800A04D3701C09A9042227F06AF985F85B70F220BBF84870E378C5F85CA073
:20552000A9F10C0685F85500E188A5F85670002B85F85A6006BF0F204FF6FD71022085F879
:205540005400B8F1000FA5F84C100AD098F80100800906D305F1580008F10B0126F04AFDC9
:2055600064E60CA81CF0E4FAA5F858005EE6404627F0A5FF286AC82127F0FEFE404627F09E
:205580009CFF21B0BDE8F08F501800202DE9F04FCD4C0D46280CADF1140D80F02382DFF853
:2055A00018A3680880F0FA81A41FC64EE079A90880F0BD81A90980F0A781DFF80483E80BAB
:2055C00080F04F81BB48DFF8F4920768680980F02A81280928BF85F0080080F02582680A12
:2055E00080F0BB80E80880F0AE802069E90980F09180280A63D2A80A5CD2C24C280B2CD2F0
:20560000E80A28D3142019F029FD071C20D000262434B046207A012813D1009704203146DA
:205620004246142323F07AF858B9206838606068314614223B467860042023F063FF84F812
:205640000880761C0C34282EE4DB384622F0B8F985F48060E8E10020E6E1182019F0FEFC56
:20566000071C24D00026B046207A012813D10097062031464246182323F050F858B9206865
:2056800038616068314618223B467861062023F039FF84F80880761C0C34032EE4DB3846E9
:2056A000414618221BF095FB384622F089F985F40060B9E11AF086FC85F40070B4E11DF0F2
:2056C000B3FF2078052819D1A07904211FF030FBA07904211DF0E0FE062026F0DFFE514618
:2056E000087800F00700022801D027F073FB25F07DFA1AF067FC24F00FFE01E025F076FA33
:20570000012024F0B9FE0320012104F06FFF85F0800089E1A0B11AF025F82069076820699E
:2057200022F04EF927615FB1FA8802E0F888801AF8803F68002FF9D1A079402127F056FEFD
:2057400085F0400070E1FF20032123F0ADFB27F0A1FCB74901200860FEE74A4692F84A00BF
:20576000082818BF04285BD124322120742127F033FDB04E7068318800241BE0A30003EB18
:20578000C403C75C37F07F0212D017F07F07C754034405D101A8FF210C221BF01AFB01AB0D
:2057A000012021460C2223F0ADFE304631884068641CA4B2A142E1DC9F4E4FF0FF0944466A
:2057C0000027F06994F8211080291FD161798DF8091022798DF808206388ADF806302088C5
:2057E000ADF8040084F82190217D8DF80C10E2798DF80B20A3798DF80A30A0690490394692
:20580000102201AB032023F07DFEF0697F1C2434152FD7DB00B180470020022123F044FBAA
:2058200085F4807000E14FB17968087818B1486800781CF02BFA3F68002FF5D127F01EFCCE
:20584000A08326F077FD7D480078012806D14A4610784FF40061642227F0C8FD85F01000BB
:20586000E2E00120022125F00DF9C6B276B3F00019F0F4FB5FEA00092AD083464FF0010A1F
:20588000444615272079012818BF02280DD18DF804A06088ADF8100001A820F07FF820B1DA
:2058A00002A9584627F0C9FD83467F1E04F12404E8D10DE098590020746A00205018002002
:2058C000A0120020D0520020E65000204FF00009B9F1000F12D076B10F204FF6FC778DF8E8
:2058E0000C001F24ADF8047001A932464B465448009416F091FD484622F062F885F4804096
:2059000092E0C046A015002050B92078062802D1072026F0C3FD3078012801D125F0A2FF42
:20592000A07910211EF0E6FD85F020007CE000BB2178A07908291AD126F0B8F9092026F0AC
:20594000ADFD40480078052806D0072809D10720012104F04BFE04E0012025F0D3F91DF018
:2059600063FE3078012816D125F07CFF13E010210FE027F077FBEF2803DB002025F0C2F9FD
:2059800009E027F06FFB1030C0B227F07DFBA07901211EF0AFFD85F0020045E0012026F094
:2059A0007DFD51460978122011F0070F10D1211D0978022907D001290AD1082026F06EFDBC
:2059C00027F008FA04E0082026F068FD15F070FF28B1207801214FF47A7227F007FD85F061
:2059E000010021E0184E18E00178491E012911D919390DD0B93908D02A3903D1316849B190
:205A0000884707E00FF0C0FD04E001F06BFD01E010F054FE384625F085FE20781EF03CFDAF
:205A2000071CE1D185F4004005B0BDE8F08FC0467C052043A4590020D0570020C45200207B
:205A400060520020A0540020885500202DE9FC47D44C0F460546F80B80F006826078DFF8A0
:205A60005883B90F80F0AA81B90880F09D81F90A80F00281390B80F0CC80380907D2F80F82
:205A8000C0F0288227F080471CF0B0FE22E227F0F0FC814625F096FE002800F0B480082029
:205AA00027F03AFB002840F0AE80802027F034FB002840F0A880684618F058FB012803D1A8
:205AC0000098002800F09F8094F84102002840F09A8000250126E8B226F0A0FF48B1837A25
:205AE0003BB1867290F9090006FA00F0C0B223F035FB6D1C032DEED3032084F8200004F559
:205B0000CC7027F0AEFC484627F04CFED34800252A460168056050F8081CD14940F8085CF9
:205B200004F15C0025F09EFD40460068006B8047A168401A010BA06AC1F1FF3282422CBF39
:205B400008444FF0FF30A06294F82C0020B12069A16AB1EBC02F25D925F044FE294600B16C
:205B60003146081C1BD0BF4840F6090101804580417B06F00F0221F00F010A434273017BB0
:205B800005F00F0321F00F0143EA010202732946416027F02FF9418811F4406FFBD084F825
:205BA0002C60A56220F064FECE4829460560022025F0BEFA022023F05DFF112015F09AFCAA
:205BC000207818B96068483027F069FCC648007810B90E2015F08EFC94F82D0020B184F88E
:205BE0002D50052023F046FFC048606284F82050B4F9B000B4F9B210884214BF0220072043
:205C00001AF01AF902E0484627F0CCFD27F008073AE720B1042023F02DFF002060706568DF
:205C200022F0BEFE38B12846ED696FF4807100224FF00073A847E06858B140460068006B28
:205C40008047E2686168801AC860000BC8600026E660A74904F15C00002225F003FD02216E
:205C6000D4F89C0084F8201018B104F1DC0027F01EFC27F4006707E727F0FBFB064625F067
:205C8000A1FDD4F894100028894600F08480002900F081809749042504F15C00002284F8F9
:205CA000205025F0DFFC304627F07CFD04F5CC7027F0D7FB40460068006B8047E0604FF0C1
:205CC000010884F80180284623F0ECFED9F810006060D9F81000416AC90803D3036A2946A3
:205CE0000022984740461EF00DF9606880F81580606815F03BFE6568D5F808A040F60A02AA
:205D0000D01F564600F1010C00E01E46736833B119888A4203D0884218BF8C45F5D100215E
:205D20007160727B08F00F0322F00F0213437373D9F80C201288904224D06046904221D076
:205D40002B8E03B3696305F13002518095F83C0001F00F0320F00F00034385F83C3095F868
:205D60003D0008F00F0320F00F00034385F83D307260707B01F00F0520F00F0045EA00017C
:205D8000717300E0E160504627F034F85146404625F0CEF902E0304627F004FD27F48067BA
:205DA00098E0C046C84600200DF0A0FBD4F89C0008B927F002078DE08C0100104E4A11683B
:205DC00041F08001116020B1042023F053FE0020607027F04EFB8246D8F85400016804207E
:205DE0008847D0B1287DC0B1A068B0B18146D8F800002E69006B8047A0EB09002861000B4C
:205E00002861B04202D280194008286140F6C41181422CBFB0F5967F2961504627F0C2FC61
:205E200022F0BEFD80B1EE6928466FF4807100224FF00073B047D4F89400002808BF47F0FA
:205E4000020701D01CF0D2FC2846AD6900214FF080630A46A84727F000573BE01410044097
:205E6000AD450200846A002027F003FBD4F8AC6066B306F1280106C90A234FF0E0450B404F
:205E8000154008BF002B21D106F1280191E8000306F1280595E8060006F1280322EA09024D
:205EA00021EA080183E8060027F07CFCB16879B1B9F1000F08BFB8F1000F09D03069B6F932
:205EC0003010B5684B464246A84701E027F06AFC27F4804727B104F1DC00394627F0E7FAFD
:205EE000BDE8FC870000046012FB020065850100BD790100A5B70200CC2108402DE9F04FFD
:205F0000AF4DDFF8C0A2287F0C46E108ADF1140D80F04D81200C28BF48F2010680F01A810E
:205F2000600B28BF84F4805080F01082BA4EB01D0088210A80F0CE80200B04D311F092F8F2
:205F400084F4006002E2E00980F0A080AF68A00B5BD26869E10B38BF0020C0F0F781AD492B
:205F600048C96A4648C2098811802F6938B9384626F088FC6861C0B997B90B2011E0017B69
:205F8000FF2906D031F07F000FD101F07C0104290BDBA86940B9384626F074FC686120B952
:205FA000002026F077FF2DE0686168784FF4804141F2883227F01AFA297F6869082919D0D0
:205FC0000188ADF80010017A8DF80810017B491CC9B231F07F07017306D10188427A68462A
:205FE00025F060FC686909E0008800210A4623F003F9F7E7017B41F040010173406926F06F
:2060000041FCA86184F48040A0E14FF000094FF0030BC8468FB96878B9F1010F04D04FF4E5
:2060200000511EF085FE05E04FF400514FF47A7227F0DCF984F4005088E17E68307818B360
:20604000F02821DC594642466B4620F07FFBD8B1029803889BB985F836808DF80DB08DF8CD
:206060000C8003AA0A20594621F02AFE0AF10400016885F8368039B13078884704E001887C
:206080004FF00109491E01803F68C3E720F0C4FD07462878BFB1401EC0B22870A0B16878B7
:2060A0004FF4804121F06CFC30B9286926F0EAFB10B938781DF0E6FF6878402143F698224F
:2060C00027F094F9287810B90B2026F0E3FE84F040003BE1002120F07BFDB04698F8006032
:2060E000FF25CEB14FF6FF7308F1040000219C4610F8142F52080BD3C7884FB1BC4507D09C
:2061000053B10289BF1ABAB29342C4BF0D1C131C761E01F10101EBD1FF2D18D0A80000EB10
:206120000510404418300189C088401A80B250B988F80150FF2008F011F9FF2128460A4647
:2061400021F0ECF90020A8F8060025F0EBFB84F08000FBE068781EF09FF9071C08BF84F4D1
:20616000004000F0F3803878D32810D0297F814219D095F83720A96A0A2805D0092812D18B
:20618000696AB81C88470EE03A7161B1F9E73846C189891B05D0C81E05D1384619F0D8FFA3
:2061A00001E018F0F7FD384625F0BCFAD2E7697850B1001F00F0C280801E00F0B580C3E067
:2061C00084540020E01A002095F83700C10880F08980810876D20009C0F0B6800620287722
:2061E00026F0BEFF002869D020F016FDEE68071C64D07068407880083AD338780321002280
:206200006B4620F0A3FA48B970684078410833D20E201FE0B0ED0200EC63002002980188E3
:20622000B52912DAB421018068784FF47A724FF4005127F0DBF85046416829B10078FF28F9
:2062400014BF3878FF208847EE6870684078400803D2092026F01EFE09E0092003218DF8B4
:206260000C0003AA8DF80D100A2021F029FDEE6870684078410867D336490E6816B98008AD
:206280001CD361E038781DF0FDFE002600B101263046032610B10E2026F0FCFD0C202870B7
:2062A0006878402143F6982227F0A0F80A208DF80D6003AA31468DF80C002FE00E2026F0D7
:2062C000E9FD41E0042695F838002E7740083BD395F83A0028B325F039FE3046012104F053
:2062E00085F91EE005F11C00052695F838100670890816D395F83A1099B901270021042288
:20630000EF701AF066FD2E7721F0FAFC022003218DF800706A468DF801000A2021F0D0FC8D
:2063200012E0304600210DE0002085F83600287732220846042127F059F805E025F006FE48
:206340000420012104F052F984F0040005B0BDE8F08FC046D45700202DE9F04FADF1840D92
:206360001B91CB491C923CC9064610A83CC00EC980E80E0000248DF84240317F8DF843407A
:20638000B28D8DF84D40D6F828C0ADF844400F46ADF85A20F2898DF854706046ADF84A20E0
:2063A000027802F00303022B8DF8402000F3C38123461D93401C1F9353083CD202F00C0E86
:2063C000BEF10C0F0CD053093CBF10F8013B8DF84230BEF1080F04BF01238DF84C3001D006
:2063E0008DF84C40BEF10C0F0AD0737903F00303012B0CD142F00C0273898DF8402004E0F5
:2064000045780378801C03EB0523ADF84430530911D245780378801C03EB0523ADF8463035
:2064200003784578801C03EB0523ADF8483010F8013B8DF8433010F8013B32F07F058DF8AA
:2064400055301ED0037833F003058DF8413040F06E8103F0030EBEF1030F00F0688113F06D
:20646000030F00F101000ED010F8013B02F00305022D8DF8573004BF10F8013B8DF85830AD
:2064800001E08DF841401490A0EB0C003F1AFFB2B942C0F24C81C91B8DF85470C8B28DF82A
:2064A0004D00074300F04781D00907D3708921F027FA002840F03F819DF8402002F00C00A4
:2064C0002146001F08BF01211E91910933D301211F9180B3B28926F0D1FD904202D1F08DB8
:2064E000000A0ED226F0CAFD904222D0F08D01460B0A38BF101C07D39DF8402002F0030C45
:206500002EE07089ADF85A20804626F0B7FDBDF85A10884205D040461EF0F4FE002800F069
:206520000A818648026810A940469047002840F002819DF84020F08D02F0030C01460B0AD8
:206540000ED2D3090CD39DF8413013F0030F07D102F00C030C2B03D0082B1CBF01231D93C0
:20656000DFF8E081BCF1020F00F0C280BCF1010F00F0908012F0030F40F0DD80704A92F851
:206580002F20012A03D1B779002F00F0D4809DF8542002231A92040A9DF84250BDF846B050
:2065A000BDF848A09DF855E09DF857C0DDF850908DF86430B2899DF84370ADF85C2034D250
:2065C0001E9F40461A30046897B91D9F1FB1104610A918F02DFA1F9800901C9F0197B07CE2
:2065E0001B9A0290F37C17A910A815F0B5FDA2E0307C002C8DF8560000F09D8026F03EFD23
:20660000BDF85C20904240F0968030791F9F00901C9D01971B9A02951D9B039196F8300093
:2066200010A9049017A8A04785E0ADF830008DF820308DF8227034798DF833407189ADF8FD
:2066400018108DF835E08DF82350ADF826B0ADF828A0CDF82C90307C8DF836C0B27C8DF83D
:20666000320096F830308DF83420354C8DF83730B4F8481096F83270ADF824101A998DF86F
:20668000387006A8ADF82A1007F076FA53E0C04698F802001D9FB58937B1000A04D2284663
:2066A00010A918F0C5F9B5899DF85400B6791030C0B224F020FF071C3DD07D810220387028
:2066C0003E737C709DF854203A7207F110057D609DF84000800928BF01247C721499786899
:2066E00025F064FE4046007839461FF0A9FD22E09DF8417040462230B189036817F0030F13
:2067000010D110A807901048ADF8181006A923F031FB80B1062141730068407B214620F090
:2067200077FB08E03BB110A82246984703E08DF84D408DF8544021B0BDE8F08F7457002026
:206740005018002042550020DD5F02002DE9F04FD24CDFF84C93DFF84C83080CADF1140D1A
:20676000019180F0D4810846400838BF0020C0F0D881676827F01AF8054626F061FC4FF413
:206780007A764FF6FF726843B0FBF6F081B267B13B887888CB1A9BB2984210DDC01A824272
:2067A000C8BF82B2FF68002FF2D14FF6FF70904200F095802078012126F018FE8FE0B879B4
:2067C00002287FD026F0F2FF054626F039FC97F838204946684301F10A03B0FBF6F038803A
:2067E0001878904266DD97F83600FF2808D197F83800401C87F8380097F8370087F83600DA
:2068000097F8356097F839300020012101E0401CC0B283420FDD97F8365001FA00F285F043
:20682000FF052A42F3D03618814097F83600F6B2014387F8361097F83400B98F10FB06F292
:20684000891A89B28842C7BFFF2087F83600011C97F8360099F82520FF2818BF97F83A00B7
:2068600006D140460078642510FB02F212FB05F0788046B9388D3E7A40F020003885386C94
:2068800087F82E600BE03A8D4FF6DF70104038853D6C87F82E6097F8342012FB06507862C2
:2068A000F879CEB287F82D0007F110007E8407F063F910E0B87E97F82A10FA8BE92322F04C
:2068C000C3F805E0387CFF2802D0B86924F02AFF384622F0DFFF207801211DF00BFE019836
:2068E00080F001001DE12878012840F00D8195F8338095F813A06F6995F831006988022277
:2069000023F044FC05F11C0405F1020B06460020002E02907BD1687F400876D3A87FCDF82F
:206920000CA026F0A7FABA4605F11009071C60D01C2018F093FB061C59D000211C221AF00C
