:20000000003A0120CD52020039FB021039FB021039FB021039FB021039FB021039FB0210C0
:1C00200039FB021039FB021039FB021039FB021039FB021039FB021011FB021002
:200040002DE9F04FB94C05460120ADF15C0DAE7821781090287843283CDC432800F0D98697
:2000600028281EDC282800F0F287002801F09A82801E01F08482401E01F00183401E01F091
:20008000FA82C01E01F07082401E01F01582401E01F00982DFF8F4C2C01F12284ED901F0A5
:2000A00091BA2A3800F0C287401E00F0AE87DFF8D8C2401E00F047870E3800F0E786401E49
:2000C00001F0C082401E01F0B982401F00F0B28601F078BAE1281EDCE12801F07C82453841
:2000E00000F07686401F00F05786401E00F03886401E00F02B86401E00F01D86DFF8FCC257
:2001000053381C282FD9373800F0DC81401E00F0A98001F057BAE43801F05982801E00F05D
:200120008580401F57D00E384FD0401E47D0401E38D0401E01F0488201F044BADFE810F025
:20014000AA096B09970A420A920A54094409420A22090109420ACC089D08420A8E0A8B0A86
:20016000860A6F089A07DFE810F0650A610A5D0AAC05590A550A510AA1054A0A8405460533
:200180001505EA04D704C804BA04AE04A4049B04450A8F043C0A55041904F603EB037703FA
:2001A000670341036F68002F00F0E8853878032814BF02200320C149087000F0E7BD686855
:2001C000002800F0DB8501F052BA6868002800F0D58501F04CBA6868007878B900202BF0BD
:2001E00053F92AF037FA10980FA98DF83C00522028F08AFB2BF084FD01F045BA4FF6FF70F8
:200200002BF042F920784FF4807124F057FF20784FF4807123F006FB00200DF13D018DF891
:200220003D00522028F070FB01F02DBA6868002801F02982A24D01886980807A60B92DF08F
:2002400074FA40F28A21B0FBF1F228780821521D2DF035FB01F017BA608F10992CF013FABD
:2002600001F011BA68681195002800F0958300688046807E2BF0E0F9061C00F0B382D8F8E5
:200280001C7000254FF003092C463878A04200F3FD800F2410FB04F0401CC0B240191FF086
:2002A000A7F80028129000F09B8227F0DBFA002840F0EA80129800210D46017046E01298BB
:2002C000B8F80C90032315FB03F6BA1998F81AA052880F2115FB01044946504628F0EEFD3F
:2002E000BA195288834608AB504626F0F5FB641CBBF1FF0F1CD0D8B1AB489DF82730016842
:20030000D80838BF8C2014D39DF826001623207103FB0B10C18800F10E02A4F80510018950
:20032000C4F80B200020A4F8071002E05018002086202070B8194078BB19607058881299AB
:20034000608008786D1CEDB2401C08703878A842B5DC129C98F81A00B8F80CB098F80A9028
:20036000002508F10E0729461497227813904FF00F088A426BDC28462DF04CFB071C60D065
:200380000246002646E0C046A05500203457002016FB08F0211820184078491C02F8010B66
:2003A000487802F8010B887802F8010B4888001202F8010B0B785BBB4B780BBB087902F8EC
:2003C000010B487902F8010BB1F80500001202F8010BC87902F8010BB1F80700001202F881
:2003E000010B087982462CF0E0F988B1D1F80B10504619F09BFB02460AE0C046C01A00202F
:20040000487A02F8010BB1F80900001202F8010B761CF6B22078B042BADC00210091109896
:20042000019002900391CDF81090059506971398079114995A46092310F05CFB38462DF0BB
:200440001FFA204627F0A2FC2BF0ECFF39E111FB08F3E018E3185F782D1DADB2401C87B932
:20046000477867B9007903462CF09FF96D1DADB238B118461FF0A6F9401985B201E0AD1C0F
:20048000ADB2491CC9B274E71298A7E114FB09723078B8F80C10528808AB26F01DFB50B1D6
:2004A0009DF8260001462CF080F920B108461FF089F92D18EDB2641CE4B2E6E69815002062
:2004C000705B002068681195002800F0658200681290807E2BF0B0F8002800F0838112982B
:2004E000D0F81C8098F80000002800F07B818000401C1EF07DFF0028139000F071812CF0C5
:200500002DFF27F0AFF9002840F067814FF00009CDF850904C4698F80000A04200F3E68066
:20052000B9F1010F40F08E80C94DA878EA68162111FB00F081B256202DF0B4F805F10C0490
:2005400040B9A8782268162111FB00F081B256202DF0AEF8BF480078802124F0AFFD2F78D2
:20056000B8001EF045FFB8465FEA000B6AD02E78B8F1000F0CD005F11800594642784A708A
:20058000428810F8144B4A807F1E01F8044BF5D1002E3DD037464FF000094FF0140AAEB3F7
:2005A00005F1180412E0C04638680020002808BF4E4607D041680668216127F0E7FB207BEA
:2005C000401E2073304627F0E1FB2E7820690028ECD1761EF6B216FB0AF2A0184188618002
:2005E00041786170C188E1808188A18001890C30218109C804F10C0181E80900105D2070F3
:20060000A318C3F8109083F80C902E707F1EC6D110F0A0F9B8F1000F11D018355C4647462D
:200620006078618829F01EF8FF2804D02678810001EB00116E547F1E04F10404F0D15846F8
:2006400027F0A4FB14981399087018B900204870109F0F70129890F81AA00C4600F10E09F7
:200660008689857A2078042110FB01F080462DF0D1F9071C1ED0014600202278824222DC32
:20068000012A03D164780CB9DDF8408000200090109901910291039004953246CDF81480AA
:2006A0000723069749460790504610F023FA38462DF0E6F8139827F069FB2BF0B3FE29F016
:2006C000FFFC00208FE08200A3185B780B70A3189B784B70A318DB78A2188B70B2F80320EC
:2006E000401CC0B21212CA70091DC6E7129B9E890E2014FB00856D1C9F7EB5F801A03146FA
:200700003846524628F0DAFB834608AB384626F0E3F9BBF1FF0F48D0002846D02F78002F04
:2007200058D19DF82600E97888423CD19DF82700C00836D3B6480168A8884FF6FF728242FF
:2007400001D1EF88B7B1162202FB0B16F080E8883081E8782CF029F800B30E360021042226
:20076000304620F0C2FCE8781FF02CF8D5F80A10024610E0162000FB0B156889E880A889A8
:20078000042205F10E0600212881304620F0ADFC042205F1120130462CF068F8DDF840906A
:2007A00018E08C2002E08D2000E08720149BDDF84CC099000CEB0102507028780CEB0107FD
:2007C0005B1C0CEB0106B870DAB21492B5F80110A6F80310641CE4B29DE6139827F0D6FAB0
:2007E000102000E00220119D00F042BF6868002800F0D280C7490978064600F11207C1B195
:20080000AFB121F059FF044606F110002CF0CCFEA0420CD108A80090324690230020014647
:200820000EF09CFA08A839461AF032FC02E0022000E01098044679E06868002800F0AC807A
:200840006A6810785188928819F0FAFB00F0CABD2C680020C11A00206868002800F09C8023
:2008600090F800904688B0F804A0C188B0F808B00A301290C64807791191002F00F03881B9
:20088000C2490F68002F00F07982804678680078814551D12BF0B4FE00284DD0037C002BFA
:2008A0004AD04469002C47D000200C22834240F3658210FB02F1615A8E423AD10E201EF031
:2008C00097FD071C00F01481002407F10A0004235B1E00F8014BFBD1BC80FF2038704FF6BE
:2008E000FF737B803C81FC8087F8009012997E80119BA7F804A00422FB8007F10A00A7F869
:2009000008B02BF0B3FF08201EF072FDD8F8141018B9384627F03AFAEAE007604160C8F88D
:20092000140098F81000401C88F81000204600F09FBE401CC0B2B9E73F68002FA6D11DE2AA
:20094000686848B300206870686821F0B5FEA968088000F098BEAF68F7B1002264466A70FC
:20096000AD68267860786F1C002E08BF2A700ED0402127F0EBF94FF47A710F2300F2E7302F
:20098000B0FBF1F116FB03100F3828702678002F00F07986304680E0284616E028466146BC
:2009A00087688A8E91F8373091F8364091F83A6091F839E091F83BA091F83C9091F83D807D
:2009C00091F83850D1F830C00FB90546D6E10027477087683A818268D372826894728268F2
:2009E0001573826896738268C2F804C0826882F80DE0C96A82681160816881F80FA081683B
:200A000081F81090806880F8118000F03CBEC046386800206F68002F00F0B08100206870FD
:200A20006868077C1FB1C0896446343420806868077B1FB18168644630342160877CD549DD
:200A400027B1427C08460D300270686807791FB10268084602606868077D27B1C27C084611
:200A60000F3002706868877D27B1427D0846103002706868077E002F00F00586C27D0846CE
:200A80001130027000F0FFBDA868002800F07681002068702CF02AFEAF68387000F0F3BD3D
:200AA000CA48A9680078002900F0688100216970F2E76868002800F061816868007825F09F
:200AC00001FF00F08FBC6868002800F05781002068706868007806F0A3FA00F0D4BDA868B7
:200AE000002800F04B810020687026F05BFA10B9109800F0BDBD0078CEE76868002800F0BF
:200B00003D810020687069680888897825F010F800F0B9BD0A5600206868002800F02E8123
:200B2000D94C6968082204F110002BF09FFE686801896180807A207000202C466BE3686863
:200B4000002800F01B810188ADF838104088ADF83A000EA9532027F0D7FE50200DF13A0105
:200B600027F0D2FEE1200DF13E012AF0C9FA68689DF83E100079884200F008818DF83E0041
:200B80000DF13E01E12027F0BFFEFFE0B85C00202C6800206868002800F0F080007828F094
:200BA0005DFC686894F83C104078884213D084F83C000DF13F01E1202AF0A2FA68689DF8BD
:200BC0003F104078884206D08DF83F000DF13F01E12027F099FE6868109E407806FA00F097
:200BE000E0642BF0CBFB0027A4F89470304624F0F1FB3846A1E76F68002F00F0BF803878A8
:200C000084F84A007E886687387A84F83C007B89E3877A68E264B989A4F84810B87B84F836
:200C20005C00F87B84F82900387C84F827007E696665B86994F89610A065387F884201D08D
:200C400028F00CFC696804F15D001D312CF05EFE94F84A0004F12406082840F097802120DE
:200C6000742132462CF024FD0020022128F01EFB8CE06968002900F0A3840888498828F0C0
:200C800043FE78B969680888109A498826F094FE69680888498828F037FE002808BFC82008
:200CA00000F0A0836968097941706FE06868002800F086846A685088111D12882AF077F8E1
:200CC00090E36868002800F07B84077846884FF6FF74ADF82060B4428DF8227017D0E01E9E
:200CE000B04214D0A01EB04211D002208DF82400ADF8266009A820F031FA012818BF109803
:200D00000BD1BDF82600ADF82000109800E000208DF8230008A822F015F9E41E8046B44279
:200D200005DCD34981F82B70109881F82A002AF0ABF9404656E36868002800F041846A685B
:200D400010889178D27828F059FC4BE36868002800F036846868017A427A23F029FB41E309
:200D60006868002800F02C8441788DF8201081788DF8211000782BF039FB10B9022000F01C
:200D800077BC0C3008A902222BF070FD002000F06FBCC046EC1A00206968002900F01084A2
:200DA000A868002800F00C84087808A92AF013FE6868A968007808709DF82000A9684870D0
:200DC0009DF82100A968887000F01EBCD05A00206868002800F0F4830A300778002F0CBF2E
:200DE0000022109A47780FB142F0020287780FB142F00402C7780FB142F00802007908B10E
:200E000042F04002696808880023891C27F0E6FFE8E26868002800F0D38302206F688DF8B3
:200E200028003988ADF82010FA78B97808A824F0F5F9D7E26868002800F0C28302218DF811
:200E4000281001884FF6FF70884205D0821E8A4202D0C01E88420BD12CF07CFBADF8200064
:200E60006868C27A837A811C08A826F0B7FC687068680188ADF82010C27A837A811C08A8C7
:200E800026F0ACFCAEE2C046505600206C68002C00F0968302228DF828202088ADF82000D1
:200EA0006346618894F804A0B4F80680267AD4F80CB06069277C1190181D0468F31913FB4E
:200EC00002F00F305FFA80F9B9F14E0F39DC2CF041FB884233D12170081260702BF08AFCB1
:200EE000A41C014620462CF011FD044684F800A084F801804FEA2820A070E670241D66B1B9
:200F00005846A41E017804F8021F30F8021B761E4FEA21216170F5D1A41C27705FB11198E0
:200F2000641E017804F8021F30F8021B7F1E4FEA21216170F5D1C84820224B465FE010462D
:200F400096E3102094E36F68002F00F0398302218DF828103888ADF82000DCF804307A8850
:200F6000BC79D7F808803E7BD7F81090B888A71917FB01F1891D5FFA81FEBEF14E0F42DC11
:200F80009DF828100F2918BF022908D1BDF820704FF6FF71B94204BF891EADF820104FF6F8
:200FA000FF71914208BF8A1E03F8012B111203F8011B03F8010B071203F8017B03F8014B40
:200FC00064B140469B1E017803F8021F30F8021B641E4FEA21215970F5D19B1C1E705EB103
:200FE0005B1E4846017803F8021F30F8021B761E4FEA21215970F5D160460622734608A93A
:2010000022F0AAF934E31020ECE16868002800F0D78202206F688DF828003988ADF820108A
:201020007988052208A82BF0C5F986E56868002800F0C68202206F688DF828003988ADF858
:2010400020103A79798808A82AF07AFEBDE26868002800F0B582022268688DF82820018862
:20106000ADF82010418808A82BF0A4F9BAE1C046FC5500202C466368002B00F0CE80187D1D
:201080002BF008FA002800F0C8809D691C331F78002F0CBF002002205F780FB140F01000D4
:2010A0009F780FB140F00800DF780FB140F020001F790FB140F040005F790FB140F08000AA
:2010C00083466068007D2CF041F95FEA000800F0A4806168887A8DF829008889ADF82A00EE
:2010E000087802288DF828000CD001280AD00F2808D0032809D1891C08A808222BF0B6FB5B
:20110000616802E04888ADF820008F7B002F74D078001EF06DF9061C02D11020254654E260
:2011200000216068877B8F4261DCC18A838CCDF84480826A15950C2F129190F8229013937F
:20114000BDF8208014924CDA404623F023FC0C2816D14FF6FE7023F01DFC0C2810D1DFF8D0
:20116000F0C210999CF82C3100200CF59A7C1CF8082B9342C4BF131C081C491C0C29F6DB8F
:20118000C34D4FF6FE7305EBC00568686B8018B126F0FCFD0020686077B14FEA470A504611
:2011A0001EF026F96860002808BF10201AD06868314652462BF05AFBA5F80280BD486F70DF
:2011C000149B0078159F287011990093129A019708A8CDF808B0139BCDF80C900DF0ACFE38
:2011E00000E002206070304626F0D0FD4BE200694A00105A491CB05293E7886A0090019581
:20120000CDF808B091F822000390CA8A8B8C08A841460DF091FE2546E4E02546A0E16868FA
:20122000002800F09D8100782BF034F9071C00F09781387B25F020FB0028687040F02382D5
:20124000C84845683E46002D00F01D822F46002127B9BE4204D016E2A0550020BE4209D160
:20126000B54219BF306808603168416030462CF0FBFA08E239463F68EAE76868002800F015
:201280006F81A868002800F06B81002108221FF02CFF69680878498829F010FB071C19D073
:2012A0000020A968687038880880A968B8788870AC68A078002800F0E6811EF099F860609A
:2012C000AA685068002800F0DE819278F91C2BF0CDFAD8E1B12085E06F68002F00F0408126
:2012E000AF68002F00F03C810024664668686C703768017820463FB13A79914204BF401C6C
:20130000C0B23F68002FF7D1A9680870A868007840001EF06DF8A968376848606868A968C0
:2013200000784968002F00F0AE813A79904204D1FA88661C21F81420F4B23F68002FF4D14A
:20134000A1E16F68002F00F00B816868002764466F700678206890B101798E420BD1002F6D
:2013600004BF0568256002D001683960056826F00DFD284601E0074600680028ECD126F058
:2013800065FE80E102206F686870002F00F07B81644639787A882068002800F07481002784
:2013A0000379994202D1C3889A4204D0074600680028F5D167E107B967460168396026F098
:2013C000E5FC26F043FE1FE16868002800F0C880807800280CBF0022109A686810990088ED
:2013E00021F0E5FD2C4699E66968002900F0B880887828B1C87800280CBF1099032100E02E
:2014000000216A68107908B141F040011088527914F0E2FFE6E76868002800F0A180304691
:201420002BF02AF8041C15D11C201DF0E1FF041C00F0298100211C221FF057FE26712046C6
:2014400027F058FD30B9204626F0A0FCD120C9E7140E0020E0888E4940F00800E08040F035
:201460000400E08002202CF0CFF88A4903202CF0CBF868680168089100798DF82400109F8B
:201480008DF825708DF8267008A822F0D1FEA9E7400F00206868002862D0686800880021E4
:2014A00003F0D6F9EFE06F68002F59D0686800786070A9E01756002077486F680678002FFB
:2014C0004ED0686800212A2269701FF00EFE608F696808806868B4F84870867269688F8168
:2014E000E08F6968C8826868082204F1240707F139010E302BF0BAF92BF07CF90146686863
:201500000822801C2BF0B2F96868082207F11C0118302BF0ABF994F83C10686880F82310D6
:20152000109869685D4E81F8200031784A0824BF6A6882F824008A0824BF6A6882F82500BA
:20154000CA0824BF6A6882F826000A0924BF6A6882F82700C90924BF696881F8280092E062
:20156000022032E0AC5C0020686848B390F9000004462AF02DFFA86800B1047044E06F68FB
:20158000F7B10021109869706A6810706868417068680227877068680626C6706968032414
:2015A0000C7170E0686858B1407818B1FF20032127F07CFE2BF0DAFF109839490860FEE7C5
:2015C00002200FE712200DE7002068705BE0294620F058F856E0002032496870EF780F703C
:2015E00051E0002068702BF0EEFD4FF4FA702AF077FB48E00020687029F076F943E008466A
:201600004FF4807123F03CF90020EBE6294621F0DBFF37E0294615F01FF933E029461BF0D3
:201620001BFB2FE029461FF0E1FC2BE0294624F0C2FE27E0294624F023FB23E0294620F0B2
:2016400009FE1FE029461BF0F3FF1BE0304629460EF0DAFF16E02BF0B1F909E0294623F03B
:2016600065FB0FE03046294607F09EFD0AE012208046FFF75EBB294607F028F902E02946DB
:2016800007F01AFC1090109817B0BDE8F08FC046857A0200C1D0020020540020B66E002098
:2016A0007C052043D45200202DE9F04F04464FF6FE70ADF15C0D217AADF85400606808AA99
:2016C00015F042FF002800F063849DF822000228B4BF012700279DF824000228A8BF0027B1
:2016E000BDF82A104FF0000A4FF6F87088420ED04FF6FE70401F884209D04FF6FE70001FD6
:20170000884204D04FF6FE70C01E884200D157462BF01AFF9DF82310884240F03984002F80
:2017200000F03684208D9DF82660678EADF84C00ADF82E7056B161689DF821209DF83C3067
:2017400001202BF0DBF8002840F022849DF82570DFF8C4B2DFF8C4825646002F4BD19DF86C
:201760003D00574658BBBDF82A00034626F0AEFA5546022808BF0125002D9DF8225018BFD9
:20178000012759460988994208BF47F0020727B1002D14BF402120210F43184626F096FA3F
:2017A000012808BF47F00107002D3DD0129800782BF0C1FC012818BF27F0010734E09DF8FE
:2017C000411041B1FF2906D09DF84000119A27F0FBFE50B128E0B8F83A00BDF82A1088428C
:2017E00005D098F84A0004281ED101261CE09DF82650222720E0BDF82A10FF2029F05EF82B
:20180000002804BF3D1C082708D09DF8250047F001052C2740F001008DF8250005F003055B
:20182000012D08BF47F011079DF8265007F00200304308BF47F0800795B998F82F0078B132
:2018400007F0220022280BD007F04200422840F09F8312980078062818BF072840F09883B4
:20186000F8094FEAA71555D398F832001299BDF82A2080080AD20878C01E01282CD9001FCF
:201880002AD0C01E28D0801E26D003E00878401E0A2821D9BAF1000F1ED1B8F83A00904292
:2018A00040F076830D780520BDF82C408DF8110004A82AF045F9002800F06A830269032304
:2018C00013271370511C0F704C7022128A70CD7044800AF0FFF95BE368081BD3087803283B
:2018E00002D148780D2815D09DF8280038B1BDF82C000E990FF098FA012800F045839DF806
:20190000270038B1BDF82A000D990FF08DFA012800F03783B8F84800B4F84410884209D13D
:20192000CDF800A0208DB4F8421094F84620534615F090FE9DF82600002847D0208DB4F826
:20194000421027F0E1FF9DF85190061C26D1B9F1000F12D198F89000012839D1129800789E
:20196000062801D1680833D2BDF82E104FF6FE70401C884240F0BB800AE304202AF009F88F
:20198000011C00F005836420087001274F70208D488098F8000024F019FEF9E29DF82110FE
:2019A0006068F5780A18537BAB4203D0F37050467060606840180421401C2AF020FB7168CA
:2019C000814200F2E582401C706001E09DF8519098F832008008C0F0DB82B9F1000F24D064
:2019E000BDF82C002AF0FAFED0B9A349A34CBDF82C000B6822699901A1EB83019047012807
:201A000040F0C6826169BDF82C008847A168BDF82C008847BCE2C0468A180020501800202D
:201A20006168487800F0DF0048709DF8320038B161688879401E8871C0B28DF8320008B9DB
:201A400007F07F07380924D39DF82500F9084FF4805A14D279091AD3811011F0070F01F00B
:201A6000070604D0072E1CBF761EF6B20EB907F07F0700F0E30040EA8600C0B205E020F00B
:201A80001C00C11021F0030108438DF825006168087298F84A00042800F0FF81092800F075
:201AA000FC8117F0610F40F0EB809DF82200012811D112980078052800F0D68003280AD13A
:201AC000BDF82A002AF08AFE28B1218D08A815AA002301F02BFB9DF8320068B99DF82200B6
:201AE000012804D112980078032800F0518208A8214623F09BFC4BE22AF008FB002840F075
:201B000047829DF83D0000286DD19DF82400BDF82A10FD100028ADF854102ED13A0930D29A
:201B20009DF82220012A28D00846002120F030F8002620B14079012816D0022814D0BDF882
:201B40005400B4F8441027F0DFFE28B1807829F053FF08B1082807DBBDF82C002AF03EFEFF
:201B600018B104208DF824000126BDF82A10002E08BF022272D09DF824006A0838BF002319
:201B800000D340230DF13D0220F03CF830B1616808784AF0200A00F03F0008709DF83D0087
:201BA00040B1BDF82A1010A826F070F84AF0400AADF854009DF82200012806D0BDF82A00FD
:201BC000BDF82C1000221CF0B3FB68082CBF40220022BDF82C10BDF82A0018F0F1FD08B1DA
:201BE0004AF0200A33E09DF840009DF84110119A27F0EAFC00282ED09DF8410038B9BDF869
:201C00002A00ADF854002BF00BFE00BB1DE011999DF8286001EB400030F8020C002EADF8C9
:201C200054000CBF082010209DF827600EB10830C0B29DF82560002106B101214018616873
:201C4000401CC2B2505C401E50544AF0400A29F063FC8146A6E0BDF82A100B22BDF82C00C0
:201C600000231FF087FD93E1218D08A815AA002301F05CFA8CE1C04694F80200A4170020D7
:201C800078084FF0000967D39DF83300B4F828B0C14D494616900920EA79169B934206D1CA
:201CA000BDF82C302A88934201D1AE782EB9401E05F1080501F10101EED1092921D0AE794F
:201CC000E6B1B8F84810584628F000FF08B1761EAE71B24815210279FF2A02D0028893453C
:201CE00004D0491E00F12400F5D102E0A879401EA871A8792628A4BF4E46AE7127F0600751
:201D00002AE029F009FC81469DF8320028B9BDF82C00218D814202D11EE0BDF82C00B8F878
:201D20003A10884202D198F80500A8B1218D08A84A4613F0EFFC58B1380932BFBDF82A00D8
:201D40004FF6F870C01D4AF0040AADF8540003E027F020074FF00009B8094FEAA71510D3B6
:201D600094F8460094F8476094F948308DF81000E26B8DF8116004A98DF8123008A804F069
:201D800021FA68080ED3218D08A815AA4B4601F0CDF95FEA000905D012980078012808BF39
:201DA0004AF0100ABDF854104FF6FE70884208BF4FF000097A481C30007801282BD1618E90
:201DC0004FF6F870C01D884225D0218D884222D0BDF82A204FF6F870401C90421BDDBDF8C9
:201DE0002C00884217D02BF01BFDA0B10179012918BF02290FD101218DF810104088ADF8C8
:201E00001C0004A823F090FF28B105A823F040FD08B129F039F937F07F0000F0B980B9F105
:201E2000000F00F0B58020891DF0E2FA071C00F0AF80616822892AF019FD002505959DF8A2
:201E400022008DF81000CDF80090CDF804A004AE0295BDF854100396228D237A384619F03F
:201E600031FFB0B998F80100002800F091808DF81C908DF81E508DF81D50BDF82A00ADF875
:201E80001A00BDF82C70ADF8187006A82AF03EFE7EE0384625F07AFF7AE05946BDF82A0064
:201EA0000988814209D025F011FF022805D09DF8250000F0030001286AD19DF822000028E1
:201EC0004DD012980178042903D19DF83C10022940D00178072905D19DF83C2098F80000A5
:201EE000042A06D0032953D108A8002117F0A6FA4EE04FF4806123F0E1F8092088F84A00E5
:201F000027484178022904BF0021C1772AF072FC01460D982AF04AFB012839D1102029F003
:201F200038FD07460E991298401C8FB302223A704378027802EB03227A80807878704A20D7
:201F400026F0E2FC9DF8260010B916490520087039461EE5002008A90DF040FE18E094F8FB
:201F6000460094F8477094F948608DF81000E26B8DF8117004A98DF8126008A804F022F958
:201F800006E0BDF82A0001E0BDF82C0024F0D4F817B0BDE8F08FC046A80E0020A012002041
:201FA000FC550020205400206D4A2DE9F04FADF14C0D10780F91090C80F02B840F9993463C
:201FC000890B80F0FC830F99890980F02F830F99490980F0B1820F98DFF89491C00980F0A9
:201FE000368260480F990078090A80F022820F98DFF874A1DFF87481400A80F0BB800F983F
:20200000000B80F097800F999BF80300490B80F0878054460F99606AC90B6BD20F992078C8
:20202000890839D20F98E188800A18D20F98000907D301200F9F8BF8050087F0080000F030
:2020400007BC0F98C00A08D3BBF84800012125F0A3FB0F9880F48060FAE30020F8E3BBF81B
:202060004850ABF848105020A11D26F04DFCE688102744466089854205D0864204D020468A
:202080002AF069FB00E066817F1E04F11C04F1D10F9880F40070DBE340B301A82BF0C4FBC8
:2020A0002BF046FA49460546032091F8238091F824608DF80D0003A829F042FD071C15D0F2
:2020C00038690B2100F8011B00F8018B06700126BE772AF08FFB78627D807E7701A8386216
:2020E0000023BE763846237009F0F4FD0F9880F00200ADE380B149461431097801290BD159
:202100008047A06A00B180479BF800004FF480414FF47A722BF0D0FB0F9880F4804097E375
:2021200020B100208BF8030025F0AEFA0F9880F480508DE325F0A8FA4946087A01280BD143
:20214000497A49B19BF800004FF47A7212FB01F24FF400612BF0B0FB0F9880F4006077E3C1
:2021600050180020A25B0020A4170020E0100020FC5500202BF0EEF94FF6FE71814200F0F5
:2021800054819BF832008008C0F04F8100252C46284628F0D9FE071C19D03879012816D0DD
:2021A000022814D0F879411CF9719BF88B1081420DDABC727C72388827F0DAFE388801A9CC
:2021C00029F0DEF801A823F063FB28F05DFF6D1C152DDDDBA8F11C0610274FF6FE751194B0
:2021E00036F81C0F85420CD0307B9BF88B40411C8442317305DA1198B0747074308827F0B4
:20220000B7FE7F1EECD15446032104F1380010F8047F0FB17F1E0770491EF8D1BE4C1526F0
:2022200005F1010934F8240F81451FD001208DF804006788ADF8107001A823F075FDA8B145
:20224000A8F11C05102735F81C0F2188814208D0BDF80610814204D002A8A91C2AF0A6F967
:2022600010B128462AF077FA7F1EECD1761ED9D1119D2C46284628F067FE48B1017931F06D
:20228000040105D1807A29F0B7FB08B1641CE4B26D1C152DEEDB29F0A7FA119E5FEA000881
:2022A0000ED03546284628F027FC28B1807C29F0A3FB08B1761CF6B26D1CEDB2A845F1DCBB
:2022C000A019C7B2002F41D0B8001DF091F81090002808BF119F3BD0BA00FF211EF005FF08
:2022E000119E3546B44218DD284628F02DFE031C10D0187930F004000CD1987A29F07CFBE5
:20230000011C07D0009718885A7A109B1DF013FE761CF6B26D1C152DE4DBB8F1000F17D092
:20232000119C204628F0E8FB061C0AD0B07C29F063FB011C05D00097109B3088727C1DF009
:20234000FAFD641CE4B2A045EBDC01E0119810909BF83000002808BF4FF0620805D02AF050
:20236000C1FAC0F154005FFA80F80320B8F1600F98FBF0FAA8BF4FF01F0ADDF840904FF65B
:20238000FE7BABF1020BB8F1000F0EBF119D2025DDF84480BA45A6BF3C1C45F0400554463A
:2023A000032014FB00F0801C8DF8050001A829F0C7FB4E46031C26D01869082104F01F02E9
:2023C000017045EA02014170801CA4B12246C01E361F16F8041F00F8031F3188091241704D
:2023E000B17801F0070CF178521E01F0070141EA0C118170EDD1A3F802B00120987618460D
:2024000009F068FC00E00120E90906D2641EE4B20CB109EB84093F1BFFB205F0400528438E
:20242000B1D0109808B125F0B1FC0F9880F480700EE230B9BC488178012902D10021417048
:20244000817024F0B7FB0F9880F0800000E2B74C0925002106264FF00408A778002F3FD026
:202460007F1EFBB26079A3702AF068F8071C36D05BB9787B022808BF7E7330D07E73386809
:20248000407BF02124F08AFE29E0A3791BB9787B032812D023E023790BB3E078401EC3B253
:2024A000E370E3B99BF82500E0702079401EC3B22371787B032812D123B92046394625F04E
:2024C000C5FC0CE087F80D802BF02FF900F00F00401C38819BF80000202122F0D1F901211A
:2024E0006D1E04F10804B8D19BF80000012915D0402122F0E3FD494691F82A00012817D17F
:202500004846002180F82A1090F82B001BF0D6F928F0BAFD0CE0C0467C120020402125F0E8
:2025200015FC28B99BF80000402164222BF0C4F90F9880F040008BE1102125F007FC30B962
:202540009BF8000010214FF47A722BF0B5F9C248DFF80883417808F5C674491ECFB217BBA9
:20256000012141700020052129F0AAFC071C1BD006253846052129F0A3FC0646388978B1B8
:20258000401E80B2388158B97889C00802D3387B27F0D6FC7D733868407BF02124F0FEFD3C
:2025A000371CE6D100E0477028274FF6FE7600252079A0B1FF2812D0401E2071C0B270B9D0
:2025C0006079032805D160882188022221F08EF96079012803D0268066806571A5717F1EEA
:2025E00004F10804E4D108F1DC040827207A401E2072C0B230B99A48214627F0F1FD90B9A1
:20260000668025707F1E04F10A04EFD1954A0C2112F8080F08B1401E1070491EF8D10F9844
:2026200080F0100014E124F0E5F9E4E7202125F08DFB28B9DBF81000002808BF012616D0CA
:202640002BF01CFB04462AF067FF4FF47A716043B0FBF1F1DBF81000002808BF002004D05A
:2026600088428CBF4FF0FF30081A460869D00020042129F025FC071C63D0FF254FF0FF3ABD
:2026800006244FF001093846042129F019FC10903889864204D8801B83B23B8113B14DE074
:2026A00000203881BB7B012B02D17889C0083FD3002B36D08DF804508DF805508DF806A022
:2026C0003968086AC97F02AA14F03EFF4FF00008012808BFC8465FEA08001DD0788A40F0FD
:2026E0008000ADF83600B87B8DF838007889000908D3BDF8360040F48070ADF83600387B0D
:202700008DF83A007B6913B1187BADF8180001A9002202A803F056FD7C73387B1EF0EEF9AF
:202720000CE087F80D9009E094150020A80E00207C733868407BB72124F030FD109F002FC8
:20274000A1D110F0C5F89BF800300020012129F0B7FB18B11846202122F092F80020042131
:2027600029F0AEFBB3B278B15A460789147829F0A7FBF8B9BB42AEBF0027FF1ABFB2204660
:2027800027B9202122F07CF800200DE07A0020212BF095F82BF072FA04462AF0BDFE4FF439
:2027A0007A716043B0FBF1F0CBF810000F9880F020004DE00289BA42D8BF171CD7E72BF09E
:2027C000C1F8294C0546201D0068074698B157F80C1C9BF8000021B94FF4005121F022F8A2
:2027E00003E04FF4005122F04BF8204639460022001D27F0A5F928462BF03CFA2FB1384617
:20280000FEF752FF384629F0DBF90F9880F400501EE022F007F8071C17D0144920310A7853
:20282000FF2A0FD03C780B460020944207D0401CC0B2C200D1189A5CFF2AF6D102E04968CC
:2028400038468847384629F0BBF90F9880F4004013B0BDE8F08FC046146F0020140E0020B3
:202860001F740200380F0020CC5C0020BCF402002DE9F04FA848AA4A0178A8481170A94D49
:202880004170A9495C302861ADF1540D086025F0D7F8A649B54801F5E471B34CDFF8D092C6
:2028A0000F9100F5047101F12002109201F1A20201F592718B469D49491D1291AD4980464D
:2028C0001192091D13918BE2D8F82400D8F81C70964E850005EBC005ED19377810351B2F6C
:2028E0001FD130469AA1042228F05AFF30B3304698A1042228F054FFF0B1304696A1042209
:2029000028F04EFFB0B1304694A1042228F048FF70B1304692A1052228F042FF002840F01F
:202920003681402F0BDD5B2FBCBF2037FFB206E0FD2704E0FC2702E0FB2700E0FA272879C5
:2029400095F805A0022859D0032840F0B3800F98002140F2A5121EF0C8FB002610982A7971
:20296000CDF828B0119B0890032A099341D16B7963B90D2F31D101206871A86806681EB116
:20298000C08808A90022B047012627E01B2F2ED07F2F2CD0FC2F07D0FD2F0FD1A9688888D6
:2029A000CB881B185B1E04E0A9688888CB881B185B1C93FBF0F242439B1ACB80A8680668A3
:2029C00036B1C08800220D2F08BF012208A9B04700260D2F18BF01266E7156B10A9829685F
:2029E000802226F0F9FF012012F0BAF901E0304668716879504518BF1B2759E00F98002191
:202A000040F2A5121EF071FB0026119BCDF834B04FF0FF320C931098ADF8382011460B9032
:202A20002B79ADF83A10022B42D16B792BB90D2F1BD101206871FE201AE00D2F07D01B2F64
:202A400013D130466871AE684EB1F92004E030466871AE681EB1FF200BA90EAAB04700205B
:202A600088F8010012F07CF901266B7903B33846AE6816B10BA90EAAB047012012F070F953
:202A8000BDF93A000126B0F1FF3F0ED0BDF93810B1F1FF3F09D0A8F82E00A8F82C10324689
:202AA00088F8012023F0FAFC02E0002088F80100012E6CD0D8F81C20D8F82410B7F10D00B9
:202AC00036D00E381BD0643814D07D3801285ED8107A01285BD0FD2F1CBF0144491C02D1C9
:202AE000107A4118491EB1FBF0F24243891AC8F8241049E0D768D8F8280057B140E0BAF1AF
:202B0000000F02D06F79002F3ED0D8F82020C8F81C20117A491EEAE720010020A4340020A7
:202B200018700020D04B00204455002054410020880000EBC100801814300778E7B1012FED
:202B400022D1476807B30846394688471CE0C0461B5B41001B5B42001B5B43001B5B440099
:202B60001B0000000000C046E85100200C410020501800200C5C00204768C8F82810002097
:202B8000C8F82400C8F81C70002012F0E9F8AB48002105221EF0A9FAD8F80800129905226C
:202BA0002AF0F0FDA08920F04000A081410A08D319F0EAFDA2894FF6FF6122F48070114037
:202BC000A181800A10D3A56DA06B226CA84204D11AB1002008219047226C606BA84203D1FA
:202BE00012B10120082190470020A081C148C168480AC0F0A680BD48BD4F057838780128EF
:202C00006DD02AF025FD011C00F0958099F824708A7BB64B89F82420B9F83A608A7B086968
:202C20001A708A898B7BA9F83A200122009200220192012202920022039204934278059236
:202C4000406800232122069001200790F2200DF051FF1E20BE4989F82470BC4AA9F83A601E
:202C6000A24B087090681D7000282AD0C5490D6814352F6857B102693969914205D007F130
:202C800014052F68002FF7D100E097B9AF49CF687FB178682AF0F4FDAC480021C068139F24
:202CA000416038682AF0ECFDA84900200E46C860B0682AF0E5FDA5490020886028680F4654
:202CC000B860BB4881692AF0C3FC002833D0084632212AF0BDFDC5482AF058FE2BE0B448F2
:202CE000824990F85A00B24E0870B6F85810B9F83A60A9F83A10C54999F8247089F824008B
:202D0000012300930022019202930392A84B049093F85B001A460590D06D0423212206907E
:202D200001200790F2200DF0E5FE89F82470A9F83A606E4805706F48C168074621F480713B
:202D4000F9609B48C0688A0A3CD3071C32D0C668F968B1421DD839468F68F0B18568814209
:202D60000FD0034601E02B469D68B5B1ABB1A942F9D1A868986028462AF082FD8C48C06852
:202D80000BE0C04800682AF07BFD89492846C86003E0F968891BF960BF68002FD7D14EB1A0
:202DA0008349C96930B1084631462AF051FDBD482AF0ECFD4F484F4AC16821F40070D060F1
:202DC00021F40071C80A07D322F006FF49484949C06820F48060C86011F08AF921F008FCAA
:202DE000444880684FF0FF312AF040FF0028F7D04048007821F016FD051C00F076812F78D5
:202E00002078C72F0FDCC72F00F0A480923F00F0D180BF1E00F0C880313F00F0C1807F1ECA
:202E200000F0BB80C9E0E03F66D0BF1E08D07F1E00F0AF80BF1E00F0A780BEE054410020B1
:202E400095F84000443080B22AF0E4FD071C00F0B4802E1D381D0C22314629F02FFF2869A0
:202E60003861287D387595F915007875A87DB875E87D14360A223146F87507F1180029F09D
:202E80001DFF688C788495F8240087F8250095F8250087F8260095F8260087F8270095F894
:202EA000270087F8280095F8280087F82900E86AF86295F8300087F83000686B786395F894
:202EC000380087F83800E86BF86395F8402005F1410107F1410087F8402029F0EFFE384694
:202EE00001F0BAFF38462AF0CBFC66E0405800208C5B0020D04B00202F792A1D002007B1C2
:202F000001202AF0ABFB6F79A7B1EF881FB900202AF0A4FB17E05088401C608181482AF079
:202F200037FD606D4FF47A712AF092FC7D482AF02DFD08E0002060817A482AF029FD606DF9
:202F400000212AF085FC19F01FFC36E0045C002014180020744AA97B2F8A84F88E102E1DAF
:202F6000A4F89070336871681360FF28516002DA401CC0B2207000201EF0B8FE17F0F0FEE3
:202F80001BE0C0460C5C0020A988A81D17F0B4FF13E0281D26F0CEFB0FE020F069FE0CE08F
:202FA000E81C1EF0A3FE08E0E81C0BF00BFC04E0D4520020281D1AF08DFB28784FF0010A85
:202FC000712825DC712851D0652811DC652866D0801F77D042387ED0183870D0401E6BD089
:202FE000401E012877D9801E5ED071E048530020663851D0801E4BD0801E03286BD9001F7E
:2030000042D0401E3AD0401E34D061E02053002091280FDC91285ED0723802285BD9C01E8F
:2030200020D0401E1AD0401E55D0C01E53D0801E51D04DE092380DD0C01E01284BD93038AE
:20304000062848D91B3846D0801E012843D9093841D03DE0EF6A002F3DD035E0AF68002F76
:2030600039D031E06F69002F35D02DE0EF68002F31D029E0EF68002F2DD025E0EF68002F7F
:2030800029D021E0E0520020EF68002F23D01BE0EF68002F1FD017E0EF68E7B114E0EF68CA
:2030A000CFB111E06C5300202F46786908B124F06DFEFF697FB107E06F6967B104E06F6907
:2030C0004FB101E0AF6837B1384624F05FFE02E04FF0000A02E0284628F072FDBAF1010F64
:2030E00003D015B1284628F06BFDA08900283FF47DAD81090DD315F031FB1AF02FFC0020AB
:203100001EF0F4FDA2894FF6DF7122F020001140A181C109FFF44AAD98F8000001283FF4AB
:20312000D3ABFEE7B05200206C5200202DE9F04F064693460020ADF13C0DABF80000B06AEE
:20314000099303460078884629F0F5FF48B17089044624F0BBFD022804BFABF80040B36A42
:2031600001D0002009901878C84DDFF82493401E0A2800F20B84DFE810F02F03B3020C04C3
:20318000A0028D0151010904BE00880066000B00BD4C207D012840F0F9835B1CB06913F8D3
:2031A000015B1F782AF079FB002800F0F7830379002B00F0F383032B80F2F0830E2D1CDCA9
:2031C000DFB9D04907752DB901EB85010A6AC261096A0AE001EB85010B6A9A01A2EB8302E2
:2031E000C2610A6A9101A1EB82018161012180F8201027F049FF002500E001250320B689FF
:20320000E47F8DF8190006A828F09AFC071C00F0C58338690C2100F8011B00F8015B04704C
:203220000124BC7729F0E6FA786204A9304628F0A7F810B17C7704A838627E80BC763846E1
:2032400008F048FDAAE35C1C207820F01F0700F01F00012840F09A83641C04A821462AF02C
:2032600055FB284604A95D3029F0A0F9002800F08D83002F40F08A830834A2786178207849
:2032800001EB022125F0DEFE88E3688F7189884240F07C835C1C14F8016B04A821462AF0BC
:2032A00035FB284604A95D3029F080F906F01F0726F01F06002800F07183002E40F06E83F2
:2032C00078001CF095F8011C00F0688367B184460834384663782278401E04F1020402EB8E
:2032E00003222CF8022BF5D100910AF088F9084624F04CFD52E35C789A1C34F07F0704F07E
:203300001F0E40F04B83377F03201EFB00F0801CC1B2B94240F04283002714F01F0F04BF85
:203320004FF6FE7C614618D0D9789B7870464D4603EB012C5378117812F802EF01EB032118
:203340003EF0770340F02A832B888B4208BF0EF00707521C401EEDD1BFB960464FF6FE7238
:20336000824212D004F06002602A0ED04D462A88A30907D2E30902D2904203DD0EE39042EA
:2033800003DD0BE39142C0F20983B0892AF048FA002836D1B0894FF6FF7127F097FB041CD3
:2033A00014D126F097FA041C00F0F88200211C221DF09BFEB0894D460E35208028886081B2
:2033C000AA23A3740222227401216174207C032805DB0220072F2074BCBF7F1CFFB2677423
:2033E00000202073A01C28F0FBFD002840F0D682307A002800F0D282B169A01C2AF086FA18
:20340000CCE20021C171017A032905DB0221072F0172BCBF7F1CFFB24772BFE248467189AF
:203420000088884240F0B282307F022840F0AE82AA4C201D00884FF6FE71814240F0AE820B
:20344000162028F0A6FA071C00F0A88201213970B07900280CBF081C02207870B06A40785A
:20346000B872000902D2B08925F020FBB169B81C2AF04CFA0020F8742878394623F0A6F832
:20348000B089A0808AE2C046FC550020501800208A180020708924F019FC002840F0768234
:2034A0005F78B94987B10C2F03F1020380F276828C463D465A7818786D1E03F1020300EB37
:2034C00002202CF8020BF5D1484675890488DFF8D892AC4200F0B280B37C002B00F05E8240
:2034E0003B1C0A974FF0000811D0A74A38464146921E32F8023F9C4206D0401E01F1010195
:20350000F7D104E050F802000A914FF00108284600211EF03DFB00280B907ED0407901280A
:203520007BD10B98807910F0180F76D00B984188384629F011F810B9B8F1010F6DD109F56C
:2035400033794FF6FE704FF000080C97B6F80CB0CDF820904FF0010A0D90C14611E0B8F1BB
:20356000010F08BF4FF0010908D02AF0DEF8C0B290FBF8F101FB08F1A0EB01094FF00008AC
:20358000C246089D10271C3D35F81C4F4FF6FE70A04213D0A34511D00C98214628F0DCFF17
:2035A00060B96B7C53B1072B08DA08F10100BAF1000F5FFA80F801D1C14521DD7F1EE3D147
:2035C000B34D152735F8244F0D98A0421AD0A34518D00C98214628F0BFFF98B96B7A8BB17B
:2035E000072B0FDA287901280CD002280AD008F10100BAF1000F5FFA80F803D1C14501DCCA
:203600000D9407E07F1EDDD1B8F1000F02D0B9F1000FA4D00D980B994880B37C5A4C581EC4
:20362000B074F77C00970A9D0195029401220392B189B26970891AF09FF8AFE1B4890C2FDA
:2036400080F2AC818846ADF81040BD488DF812700168CDF8148009B104A88847204621F08E
:2036600099F90C2803D14FF6FE7021F093F90C2880F2948109EBC00505F59675686808B15E
:2036800024F084FB2FB178001BF0B2FE686010B984E1002068606C80C2486F7000782870C1
:2036A0006878002800F07A816868002800F076817A00414629F0DAF870E1307F022840F0F2
:2036C0006581099828B94D4671892888884240F06581099831460CF081FA5EE1A4170020BC
:2036E000B5F84810404626F00FF9A846074608202FB17D781DB90221397007257D70B16A13
:203700000A79CC788B794D7891F802A0CF7904EB02244A7902EB03296A0928BF1020AA0978
:2037200024BF0830C0B235F0700340F03781327F904240F0338105F07005680938BF002023
:2037400006D306A808312AF0E1F825F010050820A90907D3B16A091804A808312AF0D6F8CF
:2037600025F020052046514626F0CCFF08280DDA8D4B410001EBC001C9188879B84240F345
:203780000D818F71002002E0320E00200420B8F83A10A14219D048B9B189484601222B46F2
:2037A00011F0EAFD28B1F9E0140E0020042840F0F58006A804AE009049463A46534601962D
:2037C0002046029515F06EFCE8E0B189484601222B4611F0D1FDE1E0B5F84810404626F028
:2037E00093F84FF00609041C03D06078002800F0CD80B06A817847780891C378017900F1AF
:20380000050A03EB01200990404622F02BFF9AF8001009185FFA81FAB80928BF4FF00E099A
:2038200037F0780040F0B28007F01800182800F0AD80307F814540F0A9804FF00009CDF840
:2038400000900899B089524643461EF015FA032800F09C80002807F078074DD117F0180F9F
:2038600018D195F8310028B1B089414601223B4611F082FD09984FF6FE714A463B4611F07D
:203880007BFD002838D14FF6FF70ABF8000039E07C12002047F00107780928BF47F002077A
:2038A000B08939461EF074F990B1817911F0180F0ED0417901290BD154B14088B5F8481002
:2038C00026F022F820B1437813B1607898425DDCB089414601223B4611F04EFD60B94FF66F
:2038E000FF70347AABF80000002C0CBF4946B169B089524628F050FDBBF800104FF6FF70BB
:20390000884243D1012000900899B089524643461EF0B2F90998394624F07EFF698F8142F8
:203920002ED1099829F07CFF60B10079012818BF022807D1099804A927F022FD08E0C04655
:203940006054002028F056FF014604A829F0DEFF307A012803D1B16906A829F0D7FF06A831
:20396000009004AF0197B06A407840F0300002900999089BB0894A4615F094FB48460CE08C
:20398000B06A80F805A027F0C7FD06E04FF00009F4E70999304615F051FD099009980FB0A8
:2039A000BDE8F08F17560020F00E00202DE9F04F954C04F128000768ADF14C0D17B1002097
:2039C00087F84500DFF83CA2002517F148030BD0BF6D8B4E73612FB950460068D0F84C0543
:2039E000804773695868706029F0ACFF1290082018F03EFB1EF028FE564610B1BBA02AF0BF
:203A000031F921F0DFFB684629F092FA042069468DF80000284629F081FCE06329F0CAF9C3
:203A200009A829F0E3FB042009A98DF82400284629F0E4FB606329F0C7F90DA829F0E6FBAE
:203A400004200DA98DF83400284629F0E7FB616BA06319B9ADA02AF005F9A06B10B9B0A040
:203A60002AF000F9E06B10B9B2A02AF0FBF83068D0F8E00380473068D0F818028047DAF8A3
:203A800000002F460726A03001687B5823B118468047DAF80000A030761E07F10407F3D182
:203AA000D0F8B8028047EB2029F05AFDA06A2F4670B105A8FF2108221DF017FBA06A05A9D4
:203AC000082228F06DF804F12806012818BF37689D4A0CCA05A8391C80E80C0021D1082030
:203AE0001BF086FC5FEA000856D0A8F10206032729F01BFE06F8020F7F1E4FEA20207070C0
:203B0000F6D11020F82706F8020F4146082204F1440088F8077028F0A9FE404624F036F917
:203B200004E004F14400082228F0A0FE0120082105AA29F0B7FD04F14406002818BF092853
:203B400026D127F07CFC80081DD205A8FF2108221DF0CBFA07AFFF21082238461DF0C5FA55
:203B60000120294608223B4629F06EFA80B9384605A9082228F014F828B9304639460822D6
:203B800028F074FE04E001200821324629F090FDE220314624F0B8FE27F051FC400834BF6D
:203BA0002E1C0126694F5520012107F13A0229F079FD18B916B1284626F0ACFE644FE22007
:203BC00007F1440127F09CFA304621F0C3F905A8294610221DF089FABB469BF8010030F025
:203BE000010016D15B4F05A91022384627F0D8FF60B9394605A8102228F038FE09E0C04633
:203C000080570020140100202001002005A826F027FA6220102105AA29F044FD28B926B1DF
:203C20006220102105AA29F043FD05A8294610221DF05BFA304616F085FC304624F028FE6C
:203C4000304616F0F5FE05A826F00AFA40F20110102105AA29F026FD30B92EB140F20110C4
:203C6000102105AA29F024FD05A8294610221DF03CFA1EB12846012125F018FB24201BF0C3
:203C8000B7FB0028206400F0A681E06A216B221D1FF05EFADAF80010D1F84C138847216CCD
:203CA000201D0860E06A216B04F108021FF050FA11F060FE216C04F108004860E06A216BCA
:203CC00004F10C021FF044FA04F1300904F12C08D34ED44F236C3070D9F80010D8F8000019
:203CE00003F1080C07F1100E2B4639E052616E646F6D5F736565644175746F6D6174696314
:203D00002829206661696C656400C04641455343434D206F70656E206661696C656400C004
:203D2000414553454342206F70656E206661696C656400C054524E47206F70656E206661D5
:203D4000696C656400C046C084FA0200C01A0020FC55002050F802004EF823505B1CDBB20D
:203D6000002BF9D07D61CCF8002004F110021FF0EFF9C14FB870BF48BBF830603D700BF164
:203D80003C01BE8029F0C2FD0BF14C0604F11003216C9BF82600CB6004F114027870D9F845
:203DA0000010D8F80000FE601FF0D2F9B349B44E0870B44ABE60B44B7A62206CBB6204F1E0
:203DC000140604F11802D9F800100661D8F8000011921FF0BDF9AD4EB071022286F8242038
:203DE0004FF6FE70B08328F005FDA249A8480560D84829F08BFDA748A7498160A74BC360ED
:203E0000A74A0261A7483822FF211DF06EF9A648A74B8360A74AC260A44941600570A64BA7
:203E20000361A64A4261A749C161A54B8361A64A3A61A749B961A54B7B61A64AFA6106F102
:203E4000300016F0F3FFC34809272C307F1E40F8045BFBD1B07948F2010123F037F8B079D3
:203E60004FF4004123F032F8B07948F2210123F02DF8B07948F2220123F028F8B0792021A1
:203E800023F024F8B079212123F020F8B079222123F01CF8206C11994161D8F80000D9F851
:203EA000001004F11C021FF053F98B4E48F21501307023F00BF83078382123F007F8884FBB
:203EC000884BF7608548336102227061216C86F828204FF6FE7704F11C03D8F800008B6185
:203EE000D9F80010378404F1200632461FF030F9074699484770024692F83B0010B1022086
:203F00008BF80E007848C580C56085704561057405700121017148F20201384622F0D6FF27
:203F2000384648F2010122F0D1FF384648F2040122F0CCFF6E486D4F39496E4B38616E4A4D
:203F40004B600846236C8260D9F80010D8F80000DE6104F124021FF0FBF8684B20706849F6
:203F60009870284629F050FB6649012029F04CFB6549042029F048FB6449062029F044FBDE
:203F80006349072029F040FB6249082029F03CFB98784FF6FE71491C22F098FF5F4E604BAD
:203FA000604A5D4873606C49B260604E5E4B88620846BE605F4A43625F4F5D4B5F4E1848BA
:203FC0001A605F4AC76003461F461E61206C7A6104F12406066215F0F0FB16F0C1FC12981F
:203FE00029F048FE12F0F6FE27F092FBDAF80000D0F8D40090F8430027F09CFBDAF800000F
:20400000D0F8582429460120904728F0EBFF4D48DAF804700570F868007860B904E0C046C8
:20402000705B0020D4520020DAF80000D0F858242846014690471BF0B3FE4348058145811A
:204040002B460360424A43604048072126F0E0FF1BF0B4FF24F03AFC24F0F8FD9BF8010013
:20406000022804D14FF40040012119F08FFA13B0BDE8F08F7458002040580020605C0020A3
:204080004D5F010059D201002DD20200205400205C560020A05B0020F5060200817B0100CB
:2040A000258B0100700E0020F05A002095A9000001BE0200893202000F9B0200F5B4020034
:2040C000F593020081BA0200E9B2010099980100ADB4020035C100007C580020A58D0200CA
:2040E000E1A70200B1B002002C6800208C5B0020D1CF0200E7A100005D690200AC5C0020FE
:2041000011D10200D5D00200E9D00200FDD00200D5CC0200EDCC020051640200D05A00202B
:204120008D7B0200795D0200C95D02000B7B02005C1800202D72020019A601000D470200A2
:2041400093730200117000209C6F0020EC000020D9D9020034540020C01A00202DE9F04FD4
:20416000DFF814B3C34C01214FF0E047ADF12C0DDBF804002569C06808931F400170C8482B
:2041800007924FF0000101704FF0020000EA020008BF002840F0F482DFF80893DFF808833F
:2041A00011464FF480301E4600270840374008BF002832D100204FF4003110EA060701EAF3
:2041C000020108BF00290ED137464FF48001384001EA020108BF002900F0C6820020287185
:2041E0001FF022F9C0E22871EB2025F0D7FA4A460020414610700878862801D125F050FB52
:2042000029F0A0FBE1690A68002313710968E16129F030FD28F0BCF9A6E20020DBF80070D6
:20422000287107F1B8000168DFF880A20F782FB951460F7817B1D0F89404804725F016FB31
:20424000812756469A4937709A4D0860FF232B702778A7700021A1812069DBF80050007A65
:204260004A460E46801E81B2D5F800011670C0890A918842C0F26C82E1690831096804F1FE
:20428000180001600426A6810A98DBF80060657EA17EE37E04F11902C01E80B206F1B80C41
:2042A0000A9005EB012051786081C1F30119DCF80010237109780692002908BFB9F1020F9F
:2042C00000F04682B9F1020F00F3428219B110F0070F00F03D82667800F00705AD1E022D51
:2042E00008BF002E00F0348231B141460978862902D1002D40F02C82001300F0020002287D
:2043000064DA35435AD1DCF81C0090F88300022851D0E1690C31097805A801700527A781FC
:2043200029F010FB454606462878862840D1DBF80000403001680F6837B9D0F80C05804770
:20434000DBF80000006C07689DF9140029F040FB7877DBF80000016C096800228A77006C82
:204360009DF914100068C177304629F083FC2679678929F0E7FA41460A7807F01007862A85
:2043800015D1BB4D05F11E031A88521C1A8087220A7029F06FFCE879B04206D11FB90020A5
:2043A0001EF032FA07E01B20FAE7E920F8E70646304629F05FFC28F0EBF8CBE141460878F4
:2043C000862803D125F06CFAA77866788FB186B9012F00F0BD816089022F03D110F0070F02
:2043E00040F0B681032F05D100F00701032901D0AEE16089010980F0AB81011301F0020133
:20440000022902DA810A80F0A38106994978C1F38108B8F1010F4FEAA111099100F0988192
:20442000012900F09581B9F1020F14DA00F00701012918BF03290ED1B8F1000F0BD1099F63
:20444000002F00F0858159460968AC3109680F78002F00F07D81BD49B9F1020F0ED0099EEF
:2044600011F808708A5DB918CFB256B3C10928D3BF1E13E0E06C0020140100200A46099951
:2044800008EB0207891809793A795218C109D7B212D2099958EA010613D0BF1CFFB210E05F
:2044A000945C0020127000201570002010700020F46F00202D1A0020099958EA010608BF69
:2044C00002270A9AC0F30020391A60718A42C0F23F81DBF800601146C91B091888B2D6F843
:2044E00050122081743080B2884700286678606100F02E81002174221CF0F7FD0020E07087
:2045000062891EB9C14902F020000870BF48617906784FF0000C002E30D000292ED102F053
:204520000700032808D0012828D1DBF80000D0F8D40090F882600EB3DBF8040040690678B7
:204540001EB128F069FCFE2815D0DBF80000D0F84C02804750B9DBF80000D0F844028047A3
:2045600020B96289617994F803C007E00420E0706289617901E00420E07084466569268992
:2045800005F1740305F17400AB65069B686093F801902E812089C9F3011A0029A5F85C005E
:2045A0001878AA8100F078004AEA00004CEA000028744FF0FF06AE730CBF2079002085F86C
:2045C0003A8085F84900099885F83000A089002FA0EB010086B2A68100F0B580E169E780F4
:2045E00068463A468919083119F0B8FDBF19B8B2A0812846017C4FEAA90212F0030F02F0BC
:2046000003076D4601F0400843D0BAF1020F4FF0000301D1C9090BD29DF801209DF80010B7
:2046200001EB0221A0F844100DF10205A0F84210804EB0F84410B6F842208A4203D04FF6D2
:20464000FF728A4223D1032F14D06A78297801EB022189B24186B6F84020AD1C01208A42BB
:2046600014D04FF6FF728A4218BF181C0EE0C046405A002060692946323029F047F960695F
:2046800037363146323027F091FF08350346002B56D00698407886111ED06169BAF1020FF5
:2046A00003D0087CC00903D309E058EA070306D16A782878AD1C00EB0220A1F84200032E94
:2046C00005D068782A7802EB00220A8504E060692946283029F01AF959460968AC310A68E6
:2046E0006089167886B1BAF1020F0DDA00F00702012A18BF032A0BD162692FB94E4BB2F86F
:2047000042201B8893421BD100F00702032A05D0012A18D1886A90F88200A0B1D1F89C1101
:204720006069884778B90020069FE070B97866697878C1F3011100F078000843307402E0AC
:204740001EF072FE06E00FF0EDF803E04C00030027F010FF29F0F6F8E1690A68002313714F
:204760000968E16129F086FA079A089F202100201140384008BF002930D027F0C3FE2DE0A6
:204780002E4991F90000002803DD91F90000401E08702B4991F90000002803DD91F9000020
:2047A000401E0870114600201E464FF080770840374008BF00280DD0224991F9000000286A
:2047C00003DD91F90000401E08701F480121017028F030F9002028711EF026FE184A92F986
:2047E0000000A8B1079B089F02214FF0E0401940384008BF002914D092F90000002810DC51
:20480000DBF80000D0F84C0580470AE012700020DBF800700D480021D7F858240170084696
:204820009047DBF80400C06800210BB00170BDE8F08FC04680570020C2570020975C0020E8
:20484000965C0020985C0020955C0020925C00202DE9F04F0023ADF1340D099094480A91AC
:204860000022C37150260372011D0A70A02383720024837340224271884646722146C17357
:2048800003688189C4728F2241F4305182716FF30F038181214601744CF2101119430160A5
:2048A000C049DFF804B381F8322022469BF800000B9260B9204620F04DFBBA4890F832006B
:2048C000000911D3204608A98DF8200009E0084690F83200000907D301200DF121018DF895
:2048E0002100522024F010F814F067FF28F042F8DFF8E4925FEA000A40F0C98014F08AF9AD
:204900005FEA000A40F0B7802046A64A0C90742124322120154628F0C5FE002858D12120F7
:20492000214674222B4628F08FFB002850D19D48408F4FF6FE7181424AD00120994F0C9034
:2049400097F84A00082806D0042804D013F0FAFF20460C903CE00C9C42200DF122018DF8AE
:20496000224023F0D1FF05F12F01432023F0CCFF05F12C01472023F0C7FF05F11C014A20AB
:2049800023F0C2FF05F11A014B2023F0BDFF05F12401304623F0B8FF05F11601532023F00A
:2049A000B3FF05F12D01542023F0AEFF05F11801E12023F0A9FF384690F83200000938BFEA
:2049C0000B9C52200DF122018DF8224023F09CFF0B9C15E0DDF82CA050E00B9AA60006EB5F
:2049E000C40621460C23F0190090012024F07CF820B9B85DFF2804BF0020B855641CA4B23A
:204A0000B9F80000D9F80470A042E6DC13F0C2FA8E48001D006800B1804724F0B4FC0C9802
:204A2000F8B128F097FDABF81C0028B998F8000000F0F80088F800008548401C00780228BE
:204A400018BF012004D1574A002182F84A1003208BF80A0039350BF11400294628F056FFE9
:204A600001E04FF0090A784C0020608022F072FEBAF1000FAED0744C4FF0010A494890F862
:204A80003C10012707FA01F0CBF80C0074E014F0C1F813F057FF434A21207421243228F0A6
:204AA00007FE02A8FF210C221CF01FFB4D4609E0B06E0020214601200C2202AB24F03EFF65
:204AC000641CA4B22888A042F4DC02A8FF2110221CF00BFB0B9C03202146102202AB24F06C
:204AE0002DFF641C152CF6DB5848006800B1804726F01AFB002006220B99ADF8100002A802
:204B00001CF0F3FA14201AF073FC061C1BD0C94808300068A0B103270224A0B202A906226B
:204B2000801927F0A3FEA41D7F1EF6D104A93046022227F09BFE4C201421324628F0B8FD22
:204B4000304623F023F918201AF052FC071C10D00B9C182221461CF0C8FA06202146182240
:204B60003B4624F0EBFE641C032CF6DB384623F00DF91CF01FFC344CAE4DBAF1010FA1465C
:204B800074D1334C074E677824363FB3012F0DD0022F13D198F8000000F0F80040F0020005
:204BA0000AE0C046501800202054002098F8000000F0F80040F0010088F800009E4826F0C4
:204BC0002CFF002808BF00200FD003208BF80A0004278BF809700AE0C45C002098F800101B
:204BE00001F0F80188F8001002208BF80A0028F09CFDA76B099900F07F000818CBF80C7059
:204C00006430022180B20B90FF2024F04FFB01201DF08AFD8D494FF6FE70431C48870F46D2
:204C2000F8870020A1F8483024F018FC6078012813D10A9801280DD002A8002108221CF00E
:204C400054FA02A807E0C046B45B0020045B0020FC550020002023F0D9F9212074213246FD
:204C600028F026FD0020022124F020FB7848AF6877498089544640F00100888187B91220A1
:204C80001AF0B6FB0646002EAE606DD04FF6FE70B61F0327411C26F8060F7F1E7180FAD1F9
:204CA000002C61D106AB4C200021022228F0CCF9002852D1BDF8180000284ED004284CDAA7
:204CC00018201AF095FB03274FF0020800240646AB681FFA88F14C2006221B1928F0B4F9ED
:204CE00088BBA868015B4FF6FE728A422BD056B300962018418800221823062023F0F4FE61
:204D00003069AA6800F2E93333611019418805F10C02880000EBC100A968135008197369AB
:204D20004188880000EBC1008018A96843600819418818223346062024F000FE30460021BE
:204D400018221CF0D2F97F1E04F1060408F10608BED116B1304623F019F83E4B7120002174
:204D600008224C3328F070F927F044FD28F06EFA01206870314EC9F80C600027AF703048CE
:204D8000C9F8100026F07CF82F482E49BAF1000F086014D02D4890F8650080B93846622128
:204DA00002AA1FF081FE02A8394625F00EFC384618F084FD02A8394610221CF096F9DBF8A1
:204DC000100050B10BF110040768206822F0DEFF38460028CBF81000F6D109984FF6FF7136
:204DE000814221D0012000278BF800000BF1080201468BF80870852028F054FC0BF10804D7
:204E000028B9852039460122234628F01DF90B9801469BF8060019B901211FF031FD03E03C
:204E20000A46012128F04BFD26F088FB50460DB0BDE8F08F9415002074580020A524010011
:204E4000FDD20200785A0020FDD2010050180020B06E0020FC5500202DE9F04F0746C54CD5
:204E600097F824000026ADF1840D0128ADF83C6006D197F828102078012902D148B9B6E2F4
:204E8000207830B9387D022800F0B182032800F0AE826078CC4D012810D1CA482179007825
:204EA00088420BD097F83800E32840F0A082CD48804628F03BFA012800F08F824FF4FA603A
:204EC000F860E86928F0FAFA40B9E869F96828F0BFFC05F1980028F059FD02E0F968081840
:204EE000F86097F8250002288DF8300003D008B9F86A0D9005E00DA807F11801082227F048
:204F0000DDFE0CA80DF13E010FAA1DF045FC58B913A807F13401042227F0D0FEBDF83C00C9
:204F20000DF13E0121F0A8F92078012800F0BB80002840F05C82397D31F0010018BF042984
:204F400040F0558268463146242228F065FD384669460CF0BFF997F81780BDF8000010F0A9
:204F6000070F06D000F0070002280CBF14270B2700E00F279DF81900C01987B2384628F080
:204F800049FD5FEA000900F0328204466946022227F094FEBDF80000A41C10F0070F18D09C
:204FA00000F00700022823D102200DF1080A8DF82400082251460AA827F080FE2046082269
:204FC000514627F07BFE9DF81000083404F8010B0EE00DF1040A8DF824600AA8042251464F
:204FE00027F06CFE20460422514627F067FE241D05A92046042227F061FE9DF81800241DB2
:2050000004F8010B9DF8190004F8010B9DF8190068B10799002900F0EA810246204627F022
:205020004DFE9DF819002418079828F029FC08A92046022227F042FE9DF8220004F8020F09
:20504000B24CE068FFB248B90C2028F0E3FCE06000B186604770C0F8049015E0E4680834DE
:20506000206820B100F1080420680028FAD10C2028F0D0FC206038B183680BB186602068D1
:205080004770C0F804902068011C00F0B08181F8008009A809F0A0FAA869322128F0D8FBBB
:2050A00005F17400A1E197F83800E32805D1206918B18047002800F09A8197F83800E2283F
:2050C0000DD0E3280BD0E02809D0E12807D097F82800012803D0387D032840F08881BDF8CB
:2050E0003C0000280CBFB0460DF13E0831462822684628F091FC0AA83146032228F08CFC45
:2051000097F838C0DFF8ECB2BCF1E30F23D097F8250010F0070F16D000F0070002281AD145
:2051200002A807F11801082227F0C8FD97F830009DF8283097F838C08DF8100003F0F800FB
:2051400040F0020005E0F86A9DF82830019003F0F8008DF82800BCF1E30F0DD097F829107C
:205160009DF82800C90000F0F70001F00801014306E0C0468C5B00209DF8281041F008018A
:205180008DF8281097F826309DF829209DF82800190102F0EF0200F0CF0001F03001022BC7
:2051A00042F0200241EA00018DF829209DF82A208DF8281002F0F8008DF82A0006DA9BB140
:2051C00018E0C0468C180020D452002097F8273053B1012B0ED19DF8290000F0FC0040F0F8
:2051E000040005E0905300209DF8290000F0F8008DF82900387D032807D1FB6B9DF8290093
:20520000099340F008008DF829009DF829009DF8282097F84030800100F4006100F4F86050
:20522000084302F030019DF82820014302F008009DF82820084302F007017A6B8DF818C081
:20524000084305923043ADF8000023B18DF8193007F141000790BBF83A00ADF8200097F9A0
:205260001500082805DC10F16D0FB8BF6FF06C0000E00820BB7D6E3040B2002B4FEA6000B5
:205280000CBF311C022197F8179040EA81108DF82200BDF8000010F0070F06D000F00701A2
:2052A00002290CBF14270B2700E00F27800A06D29DF81800E22808BF8DF8196001E03F1D5A
:2052C000BFB29DF819003F18BFB2384628F0A2FB5FEA000A00F08B8006466946022227F030
:2052E000EDFCBDF80000B61C10F0070F10D000F00700022812D102A93046082227F0DEFC08
:205300009DF81000083606F8010B07E0045C002001A93046042227F0D1FC361D05A9304698
:20532000042227F0CBFC9DF81800361D06F8010B9DF8190006F8010B9DF8190060B1079948
:20534000002954D00246304627F0B8FC9DF819003618079828F094FA08A93046022227F0D4
:20536000ADFC9DF8220006F8020FBDF80000800A04D3701C09A9042227F0A0FC85F85B7049
:20538000F220BBF84870E378C5F85CA0A9F10C0685F85500E188A5F85670002B85F85A60D0
:2053A00006BF0F204FF6FD71022085F85400B8F1000FA5F84C100AD098F80100800906D3D5
:2053C00005F1580008F10B0127F072F864E60CA81CF074FDA5F858005EE6404628F0D8FAD5
:2053E000286AC82128F034FA404628F0CFFA21B0BDE8F08F501800202DE9F04FCD4C0D4647
:20540000280CADF1140D80F02382DFF818A3680880F0FA81A41FC64EE079A90880F0BD8108
:20542000A90980F0A781DFF80483E80B80F04F81BB48DFF8F4920768680980F02A81280905
:2054400028BF85F0080080F02582680A80F0BB80E80880F0AE802069E90980F09180280AF8
:2054600063D2A80A5CD2C24C280B2CD2E80A28D3142019F0BDFF071C20D000262434B0466B
:20548000207A012813D10097042031464246142323F02AFB58B92068386060683146142296
:2054A0003B467860042024F049FA84F80880761C0C34282EE4DB384622F068FC85F48060E0
:2054C000E8E10020E6E1182019F092FF071C24D00026B046207A012813D10097062031463C
:2054E0004246182323F000FB58B9206838616068314618223B467861062024F01FFA84F807
:205500000880761C0C34032EE4DB3846414618221BF0EBFD384622F039FC85F40060B9E1D7
:205520001AF01AFF85F40070B4E11EF043FA2078052819D1A07904211FF0C0FDA079042188
:205540001EF070F9062027F009FA5146087800F00700022801D027F0A9FE25F095FD1AF01C
:20556000FBFE25F027F901E025F08EFD012025F0D1F90320012104F083FF85F0800089E162
:20558000A0B11AF0B9FA20690768206922F0FEFB27615FB1FA8802E0F888801AF8803F683C
:2055A000002FF9D1A079402128F089F985F0400070E1FF20032123F079FE27F0D7FFB7491E
:2055C00001200860FEE74A4692F84A00082818BF04285BD124322120742128F069F8B04EF7
:2055E0007068318800241BE0A30003EBC403C75C37F07F0212D017F07F07C754034405D131
:2056000001A8FF210C221BF070FD01AB012021460C2224F093F9304631884068641CA4B26C
:20562000A142E1DC9F4E4FF0FF0944460027F06994F8211080291FD161798DF80910227923
:205640008DF808206388ADF806302088ADF8040084F82190217D8DF80C10E2798DF80B200F
:20566000A3798DF80A30A06904903946102201AB032024F063F9F0697F1C2434152FD7DB80
:2056800000B180470020022123F010FE85F4807000E14FB17968087818B1486800781CF086
:2056A000BBFC3F68002FF5D127F054FFA08327F0A1F87D480078012806D14A4610784FF4C2
:2056C0000061642228F0FBF885F01000E2E00120022125F025FCC6B276B3F00019F088FEF7
:2056E0005FEA00092AD083464FF0010A444615272079012818BF02280DD18DF804A06088D3
:20570000ADF8100001A820F00FFB20B102A9584628F0FCF883467F1E04F12404E8D10DE0C2
:20572000B85C0020B46E002050180020A012002010560020265400204FF00009B9F1000F78
:2057400012D076B10F204FF6FC778DF80C001F24ADF8047001A932464B465448009417F082
:20576000C3F8484622F012FB85F4804092E0C046A015002050B92078062802D1072027F05B
:20578000EDF83078012801D126F0BAFAA07910211FF076F885F020007CE000BB2178A07992
:2057A00008291AD126F0E0FC092027F0D7F840480078052806D0072809D10720012104F083
:2057C0005FFE04E0012025F0EBFC1EF0F3F83078012816D126F094FA13E010210FE027F0EC
:2057E000ADFEEF2803DB002025F0DAFC09E027F0A5FE1030C0B227F0B3FEA07901211FF097
:205800003FF885F0020045E0012027F0A7F851460978122011F0070F10D1211D09780229B2
:2058200007D001290AD1082027F098F827F03EFD04E0082027F092F816F0A2FA28B12078AB
:2058400001214FF47A7228F03AF885F0010021E0184E18E00178491E012911D919390DD0B5
:20586000B93908D02A3903D1316849B1884707E00FF0E8FF04E001F06BFD01E011F07CF865
:20588000384626F09DF920781EF0CCFF071CE1D185F4004005B0BDE8F08FC0467C0520431C
:2058A000C45C0020F05A002004560020A0550020DC1A0020885800202DE9FC47D44C0F46CB
:2058C0000546F80B80F006826078DFF85883B90F80F0AA81B90880F09D81F90A80F0028150
:2058E000390B80F0CC80380907D2F80FC0F0288227F080471DF040F922E228F023F881460B
:2059000026F0AEF9002800F0B480082027F070FE002840F0AE80802027F06AFE002840F0D4
:20592000A880684618F036FE012803D10098002800F09F8094F84102002840F09A80002523
:205940000126E8B227F0D6FA48B1837A3BB1867290F9090006FA00F0C0B223F001FE6D1C36
:20596000032DEED3032084F8200004F5CC7027F0E1FF484628F07EF9D34800252A46016815
:20598000056050F8081CD14940F8085C04F15C0026F0B6F840460068006B8047A168401AE8
:2059A000010BA06AC1F1FF3282422CBF08444FF0FF30A06294F82C0020B12069A16AB1EBCA
:2059C000C02F25D926F05CF9294600B13146081C1BD0BF4840F6090101804580417B06F08A
:2059E0000F0221F00F010A434273017B05F00F0321F00F0143EA010202732946416027F003
:205A000065FC418811F4406FFBD084F82C60A56221F0F4F8CE4829460560022025F0D6FDDD
:205A2000022024F05DFA112015F0CCFF207818B96068483027F09CFFC648007810B90E2000
:205A400015F0C0FF94F82D0020B184F82D50052024F046FAC048606284F82050B4F9B00073
:205A6000B4F9B210884214BF022007201AF0AEFB02E0484628F0FEF827F008073AE720B188
:205A8000042024F02DFA00206070656823F06EF938B12846ED696FF4807100224FF000739B
:205AA000A847E06858B140460068006B8047E2686168801AC860000BC8600026E660A74922
:205AC00004F15C00002226F01BF80221D4F89C0084F8201018B104F1DC0027F051FF27F4D7
:205AE000006707E727F02EFF064626F0B9F8D4F894100028894600F08480002900F0818085
:205B00009749042504F15C00002284F8205025F0F7FF304628F0AEF804F5CC7027F00AFF89
:205B200040460068006B8047E0604FF0010884F80180284624F0ECF9D9F810006060D9F8E7
:205B40001000416AC90803D3036A29460022984740461EF09DFB606880F81580606816F037
:205B60006DF96568D5F808A040F60A02D01F564600F1010C00E01E46736833B119888A4242
:205B800003D0884218BF8C45F5D100217160727B08F00F0322F00F0213437373D9F80C20B5
:205BA0001288904224D06046904221D02B8E03B3696305F13002518095F83C0001F00F031C
:205BC00020F00F00034385F83C3095F83D0008F00F0320F00F00034385F83D307260707B97
:205BE00001F00F0520F00F0045EA0001717300E0E160504627F06AFB5146404625F0E6FC26
:205C000002E0304628F036F827F4806798E0C046C84600200DF088FCD4F89C0008B927F077
:205C200002078DE08C0100104E4A116841F08001116020B1042024F053F90020607027F0C1
:205C400081FE8246D8F85400016804208847D0B1287DC0B1A068B0B18146D8F800002E694F
:205C6000006B8047A0EB09002861000B2861B04202D280194008286140F6C41181422CBF58
:205C8000B0F5967F2961504627F0F4FF23F06EF880B1EE6928466FF4807100224FF0007389
:205CA000B047D4F89400002808BF47F0020701D01CF062FF2846AD6900214FF080630A4609
:205CC000A84727F000573BE01410044039490200C46E002027F036FED4F8AC6066B306F1DB
:205CE000280106C90A234FF0E0450B40154008BF002B21D106F1280191E8000306F12805D7
:205D000095E8060006F1280322EA090221EA080183E8060027F0AEFFB16879B1B9F1000F82
:205D200008BFB8F1000F09D03069B6F93010B5684B464246A84701E027F09CFF27F48047E9
:205D400027B104F1DC00394627F01AFEBDE8FC8700000460EEFF0200358A0100917D0100A2
:205D600041BC0200CC2108402DE9F04FAF4DDFF8C0A2287F0C46E108ADF1140D80F04D8186
:205D8000200C28BF48F2010680F01A81600B28BF84F4805080F01082BA4EB01D0088210A80
:205DA00080F0CE80200B04D311F046FB84F4006002E2E00980F0A080AF68A00B5BD26869EC
:205DC000E10B38BF0020C0F0F781AD4948C96A4648C2098811802F6938B9384626F0BEFFDB
:205DE0006861C0B997B90B2011E0017BFF2906D031F07F000FD101F07C0104290BDBA86969
:205E000040B9384626F0AAFF686120B9002027F0ADFA2DE0686168784FF4804141F2883225
:205E200027F04DFD297F6869082919D00188ADF80010017A8DF80810017B491CC9B231F09B
:205E40007F07017306D10188427A684625F078FF686909E0008800210A4623F0CFFBF7E784
:205E6000017B41F040010173406926F077FFA86184F48040A0E14FF000094FF0030BC84626
:205E80008FB96878B9F1010F04D04FF400511FF015F905E04FF400514FF47A7227F00FFDD0
:205EA00084F4005088E17E68307818B3F02821DC594642466B4620F00FFED8B102980388A0
:205EC0009BB985F836808DF80DB08DF80C8003AA0A20594622F0DAF80AF10400016885F8A9
:205EE000368039B13078884704E001884FF00109491E01803F68C3E721F054F80746287852
:205F0000BFB1401EC0B22870A0B168784FF4804121F01CFF30B9286926F020FF10B9387820
:205F20001EF076FA6878402143F6982227F0C7FC287810B90B2027F019FA84F040003BE147
:205F4000002121F00BF8B04698F80060FF25CEB14FF6FF7308F1040000219C4610F8142F81
:205F600052080BD3C7884FB1BC4507D053B10289BF1ABAB29342C4BF0D1C131C761E01F1B8
:205F80000101EBD1FF2D18D0A80000EB0510404418300189C088401A80B250B988F8015083
:205FA000FF2008F025F9FF2128460A4621F07CFC0020A8F8060025F003FF84F08000FBE099
:205FC00068781EF02FFC071C08BF84F4004000F0F3803878D32810D0297F814219D095F837
:205FE0003720A96A0A2805D0092812D1696AB81C88470EE03A7161B1F9E73846C189891BAF
:2060000005D0C81E05D138461AF06CFA01E019F08BF8384625F0D4FDD2E7697850B1001F76
:2060200000F0C280801E00F0B580C3E0C01A0020D05A002095F83700C10880F089808108F5
:2060400076D20009C0F0B6800620287727F0F4FA002869D020F0A6FFEE68071C64D07068A4
:20606000407880083AD33878032100226B4620F033FD48B970684078410833D20E201FE0E0
:206080008CF202002C68002002980188B52912DAB421018068784FF47A724FF4005127F0CF
:2060A0000EFC5046416829B10078FF2814BF3878FF208847EE6870684078400803D2092081
:2060C00027F054F909E0092003218DF80C0003AA8DF80D100A2021F0D9FFEE68706840784D
:2060E000410867D336490E6816B980081CD361E038781EF08DF9002600B1012630460326C0
:2061000010B10E2027F032F90C2028706878402143F6982227F0D3FB0A208DF80D6003AAA8
:2061200031468DF80C002FE00E2027F01FF941E0042695F838002E7740083BD395F83A0019
:2061400028B326F061F93046012104F099F91EE005F11C00052695F838100670890816D3D6
:2061600095F83A1099B9012700210422EF701AF0BCFF2E7721F0AAFF022003218DF80070C9
:206180006A468DF801000A2021F080FF12E0304600210DE0002085F8360028773222084685
:2061A000042127F08CFB05E026F02EF90420012104F066F984F0040005B0BDE8F08FC0460A
:2061C000F45A00202DE9F04FADF1840D1B91CB491C923CC9064610A83CC00EC980E80E000D
:2061E00000248DF84240317F8DF84340B28D8DF84D40D6F828C0ADF844400F46ADF85A2018
:20620000F2898DF854706046ADF84A20027802F00303022B8DF8402000F3C38123461D9331
:20622000401C1F9353083CD202F00C0EBEF10C0F0CD053093CBF10F8013B8DF84230BEF1F4
:20624000080F04BF01238DF84C3001D08DF84C40BEF10C0F0AD0737903F00303012B0CD1CB
:2062600042F00C0273898DF8402004E045780378801C03EB0523ADF84430530911D245781A
:206280000378801C03EB0523ADF8463003784578801C03EB0523ADF8483010F8013B8DF8E6
:2062A000433010F8013B32F07F058DF855301ED0037833F003058DF8413040F06E8103F0DB
:2062C000030EBEF1030F00F0688113F0030F00F101000ED010F8013B02F00305022D8DF83C
:2062E000573004BF10F8013B8DF8583001E08DF841401490A0EB0C003F1AFFB2B942C0F22A
:206300004C81C91B8DF85470C8B28DF84D00074300F04781D00907D3708921F0D7FC00287D
:2063200040F03F819DF8402002F00C002146001F08BF01211E91910933D301211F9180B3B7
:20634000B28927F007F9904202D1F08D000A0ED227F000F9904222D0F08D01460B0A38BF3B
:20636000101C07D39DF8402002F0030C2EE07089ADF85A20804627F0EDF8BDF85A10884250
:2063800005D040461FF084F9002800F00A818648026810A940469047002840F002819DF8B5
:2063A0004020F08D02F0030C01460B0A0ED2D3090CD39DF8413013F0030F07D102F00C0314
:2063C0000C2B03D0082B1CBF01231D93DFF8E081BCF1020F00F0C280BCF1010F00F09080EC
:2063E00012F0030F40F0DD80704A92F82F20012A03D1B779002F00F0D4809DF85420022399
:206400001A92040A9DF84250BDF846B0BDF848A09DF855E09DF857C0DDF850908DF864300F
:20642000B2899DF84370ADF85C2034D21E9F40461A30046897B91D9F1FB1104610A918F0C6
:20644000C1FC1F9800901C9F0197B07C1B9A0290F37C17A910A816F0E7F8A2E0307C002C4C
:206460008DF8560000F09D8027F074F8BDF85C20904240F0968030791F9F00901C9D019720
:206480001B9A02951D9B039196F8300010A9049017A8A04785E0ADF830008DF820308DF81F
:2064A000227034798DF833407189ADF818108DF835E08DF82350ADF826B0ADF828A0CDF89F
:2064C0002C90307C8DF836C0B27C8DF8320096F830308DF83420354C8DF83730B4F84810BC
:2064E00096F83270ADF824101A998DF8387006A8ADF82A1007F08AFA53E0C04674FD0200FF
:206500001D9FB58937B1000A04D2284610A918F059FCB5899DF85400B6791030C0B225F018
:2065200038FA071C3DD07D81022038703E737C709DF854203A7207F110057D609DF8400020
:20654000800928BF01247C721499786826F08EF940460078394620F039F822E09DF8417088
:2065600040462230B189036817F0030F10D110A807901048ADF8181006A923F031FE80B10E
:20658000062141730068407B214620F007FE08E03BB110A82246984703E08DF84D408DF834
:2065A000544021B0BDE8F08F745A00205018002042580020696302002DE9F04FD24CDFF80A
:2065C0004C93DFF84C83080CADF1140D019180F0D4810846400838BF0020C0F0D881676887
:2065E00027F04CFB054626F097FF4FF47A764FF6FF726843B0FBF6F081B267B13B88788813
:20660000CB1A9BB2984210DDC01A8242C8BF82B2FF68002FF2D14FF6FF70904200F0958044
:206620002078012127F04BF98FE0B87902287FD027F024FB054626F06FFF97F838204946B1
:20664000684301F10A03B0FBF6F038801878904266DD97F83600FF2808D197F83800401CBA
:2066600087F8380097F8370087F8360097F8356097F839300020012101E0401CC0B2834216
:206680000FDD97F8365001FA00F285F0FF052A42F3D03618814097F83600F6B2014387F825
:2066A000361097F83400B98F10FB06F2891A89B28842C7BFFF2087F83600011C97F83600A2
:2066C00099F82520FF2818BF97F83A0006D140460078642510FB02F212FB05F0788046B9C7
:2066E000388D3E7A40F020003885386C87F82E600BE03A8D4FF6DF70104038853D6C87F8E4
:206700002E6097F8342012FB06507862F879CEB287F82D0007F110007E8407F077F910E0CD
:20672000B87E97F82A10FA8BE92322F08FFB05E0387CFF2802D0B86925F042FA384623F098
:20674000DFFA207801211EF09BF8019880F001001DE12878012840F00D8195F8338095F8A9
:2067600013A06F6995F831006988022223F05CFF05F11C0405F1020B06460020002E029008
:206780007BD1687F400876D3A87FCDF80CA026F0DDFDBA4605F11009071C60D01C2018F007
:2067A00027FE061C59D000211C221AF09EFCA87F694625F010F99DF801000221307530469E
:2067C00024F04AFB6888317DB08095F83100FF22F07102FA01F0707478680078307495F8F8
:2067E0003000B07495F8331011FB00F0303080B225F0CFF80746B76127B9304623F080FAC3
:2068000000262AE01A20387000237B701A467A80E0885946B880B81D25F0C2FAE0783C4B3A
:20682000F87303F1200000883882608BB88560897882A0783875207B787599F80000B87581
:2068400099F80100F87599F902003876039A7A76C7F81CA007F13001B962304600E0002035
:206860000028064600F08680274886F80880007801211EF005F8002E7CD0307AA8EB0000DD
:20688000B0F1FF3F04BF01200290307CFF285CD06078400828BF4FF00008317DF07C4018E4
:2068A000404503DCF074FF2088407074B069B17C227D806A08FB0100216925F0D7FF029F5C
:2068C000317D727C012398FBF1F04843A8EB000003FA00F11143C9B27174DFB1401CFF22B7
:2068E00002FA00F001437174B769B17C207D08FB0100B884707CFF280CD1307CB1691FF094
:2069000065FEFF20307420E0605C0020FC5500207818002027F0B2F9074626F0FDFD1D4BCD
:206920001D4A4FF47A717843B0FBF1F0308093F8251010781F4610FB01F1B87A6423401C0C
