:20000000003A0120B9DD010039FB021039FB021039FB021039FB021039FB021039FB02104A
:1C00200039FB021039FB021039FB021039FB021039FB021039FB021011FB021002
:200040002DE9F04FB84EB01CADF15C0D00780E91090C1BD20E98C00B38BF0020C1F0638439
:20006000B04C04F10C00006858B107463D69384625F0BEFD384620F0D7F92F1CF6D1002041
:20008000E0600E9880F4804001F04DBC1DF024FA00280F9001F044840F9F0020F2783978B8
:2000A00010900846D22810DCD22801F02E841A3801F0C5831738052841F227849F3801F022
:2000C0002484401E01F0AB830CE0D33801F01A84401E022841F21984293801F08183401E69
:2000E00001F05683AD4C3D4601224129DFF8B082AF7894F8420011924BDC412900F0B886CD
:20010000122923DC122901F01482072910DC072901F0CC82002901F0E882891E01F0D282E8
:20012000491E01F02E83491E01F0278301F0EDBA083901F06482491E01F05C82C91F01F0F5
:200140005082491E01F0108201F0DFBA2B2910DC2B2900F08487143901F00A83091F0A29A4
:2001600051D9103900F09187891E00F07D8701F0CCBADFF8F4C22C3900F00D870E3900F045
:20018000A786491E01F0E982491E01F0E28201F0BCBACD2924DCCD2901F0B9824C2910DCD3
:2001A0004C2900F0F885433900F05086891E00F02F86491F00F01286491E00F0F68501F01C
:2001C000A4BA4D3900F0DB855339072928D90839012941F29A82891E1A292BD901F095BA46
:2001E000CE3900F03783093900F0A381491E6AD013394CD00E3944D0491E3DD0491E36D0B3
:20020000491E01F082BADFE811F085097809800A55092409800AAF0AAC0A5A082F08530772
:20022000DFE811F0930A8F0A8B0AA705870A830A7F0AA205DFE811F059052605FC04EB04F1
:20024000E004CE04C404BC04B304700AAB0491046A0430040A04FD038A037F037503690A41
:20026000690A690A48032803690A690A18036F68002F00F0CE8408E06F68002F00F0C984AE
:2002800003E06F68002F00F0C4841220CFE36868007868B9DDF84080404623F03DFA4FF448
:2002A000005041460FF0A4FF1AF038FE01F06DBA4FF6FF7023F030FA11994FF400500FF040
:2002C00097FF01F062BA68681295002800F0A18400681390807E23F0D3FA061C08BF0220D3
:2002E00000F00D811398109DC7694FF003092C463878A04200F305810F2410FB04F0401CA2
:20030000C0B2401918F03AFB5FEA000800F0F6801FF0F6FD002840F0EE80109D159588F87F
:2003200000504EE0AC540020145500201399032315FB03F6BA1991F81AA0B1F80C90528886
:200340000F2015FB00845046494621F089F8BA195288834608AB50461EF076FF641CBBF1B5
:20036000FF0F1FD0F0B1AA489DF827300168D80838BF8C2017D39DF826001623207103FBA8
:200380000B10C18800F10E02A4F805100189C4F80B201598A4F8071005E0C046D04F00204C
:2003A0002019002086202070B8194078BB1960705888608098F800006D1CEDB2401C88F82D
:2003C00000003878A842B1DC1398817E474600F10E064FF00F0985893A78109190F80AA0D0
:2003E0001396159914950C468A4267DC204625F0CCFA061C5BD0159D024641E015FB09F0EA
:20040000391838184078491C02F8010B487802F8010B887802F8010B4888001202F8010B64
:200420000B785BBB4B780BBB087902F8010B487902F8010BB1F80500001202F8010BC87945
:2004400002F8010BB1F80700001202F8010B0879834624F012FA88B1D1F80B10584613F0A6
:20046000BBFB02460AE0C046344E0020487A02F8010BB1F80900001202F8010B6D1CEDB232
:200480003878A842BADC159900911198019002900391CDF810A00594149A069610980791F5
:2004A000139909230BF0D8FF304625F0ABF938461FF0BAFF24F07EF8159820E011FB09F3DE
:2004C000F818FB185E78241DA4B2401C86B9467866B90079834624F0D0F9641DA4B238B135
:2004E000584618F07BFC001984B201E0A41CA4B2491CC9B278E740461FF096FF1020109060
:2005000013E114FB0972139930785288898908AB1EF09AFE50B19DF82600014624F0ADF907
:2005200020B1084618F05AFC2D18EDB2641CE4B2DEE668681295002800F06B8300681390F8
:20054000807E23F09DF9002800F081811398D0F81C8098F80070002F00F07981B800401C9E
:2005600018F00CFA0028149000F06F8124F0D0FE1FF0C6FC002840F06581109E16961596CB
:2005800098F80000B04200F3E5801698012840F08D80C84DA878EA68162111FB00F081B280
:2005A000562025F057F805F10C0640B9A8783268162111FB00F081B2562025F051F8607894
:2005C00080211DF01DFB2F78B80018F0D7F9B846169000286AD02E78B8F1000F0BD005F1E9
:2005E00018014A7842704A8811F8144B42807F1E00F8044BF5D1002E3ED0DDF8409037466A
:200600004FF0140BCA46AEB305F1180412E0C046705F0020002808BF564607D04168066899
:2006200021611FF001FF207B401E207330461FF0FBFE2E7820690028ECD1761EF6B216FBBE
:200640000BF2A0184188618041786170C188E1808188A18001890C30218109C804F10C01A2
:2006600081E80900105D2070A318C3F8109083F80CA02E707F1EC6D10BF052FDB8F1000FFA
:2006800011D0169C183547466078618821F084FAFF2804D02678810001EB00116E547F1E27
:2006A00004F10404F0D116981FF0BEFE15981499087018B910984870119F0F70139890F89E
:2006C0001AA00C4600F10E098689857A2078042110FB01F0804625F058F9071C1ED00146BB
:2006E00010982278824222DC012A03D164780CB9DDF8448010990091119801900290039123
:2007000004953246CDF81480072306975046079149460BF0A1FE384625F074F814981FF097
:2007200083FE23F047FF21F0E7FE109890E08200A3185B780B70A3189B784B70A318DB78AF
:20074000A2188B70B2F80320401CC0B21212CA70091DC6E7139B9F890E2016FB00856D1CF5
:2007600093F81AA0B5F80190394650464A4620F077FE834608AB50461EF066FDBBF1FF0F8F
:2007800048D0002846D02F78002F58D19DF82600E97888423CD19DF82700C00836D3BD487F
:2007A0000168A8884FF6FF72824201D1EF88B7B1162202FB0B17F880E8883881E87824F009
:2007C0005CF800B310990E370422384619F093FEE87818F003FBD5F80A5002460FE01620EC
:2007E00000FB0B156889042205F10E07E880A88910992881384619F07EFE123504223846E3
:20080000294624F077F81198169018E08C2102E08D2100E08721159BDDF850C098000CEBB6
:200820000002517029780CEB00075B1CB970DFB2B5F8011015970CEB0002A2F80310761C83
:20084000F6B29DE614981FF0EFFD102000E00220129D63E06868002800F0DB816868006826
:2008600021F0B4F900F00FBCAF68002F00F0D181109C6C7030B12046014602F047FD002803
:2008800000F09481119C91E16F68002F00F0C1811098687069680F7877B984F8460094F8A6
:2008A0002100401E84F821001198014620F010FE00F06BBF645F002024F09CFE1198014673
:2008C00004F060FB00F061BF6868002800F0A181067847681099082208A819F00CFEE7B154
:2008E000C44810990170AEB1761E0ED0761E0AD0761E03D0761E10D111990170384608A96D
:2009000015F016FB0AE011990170384608A91FF03BFB03E01EF050F900E002202C461090FA
:2009200079E06868002800F07481686800F112011FF02AFBA7E36868002800F06A816A684A
:2009400010785188928813F065FB9CE32C466068002800F05E8106784588B0F804B0B0F8BA
:2009600006A0B0F808900A301290C5480779002F5BD0C2490F68002F55D0804678680078DA
:2009800086424DD123F0DAFE002849D0027C002A46D04369002B43D010980C27824242DDDF
:2009A00010FB07F1595A8D4237D10E2017F0E6FF071C3AD0109807F10A0104235B1E01F81F
:2009C000010BFBD1B880FF2139704FF6FF737B803881F8803E707D800422A7F804B012998C
:2009E000A7F806A007F10A00A7F8089023F082FF082017F0C3FFD8F8141018B938461FF0A2
:200A000013FD12E007604160C8F8140098F81000401C88F81000109808E0401CC0B2BDE76A
:200A20003F68002FAAD1022000E0119825461090D2E16868002800F0EC8010986870686858
:200A40001AF032FEA968088000F09FBEAF68002F00F0DF80109868702678AD686178002EA7
:200A600005F1010708BF28700FD0084640211FF0BBFC4FF47A710F2300F2E730B0FBF1F1CF
:200A800016FB03100F3828702678002F00F07D863046ACE0705F0020A968A28F94F83F3065
:200AA00094F83E6094F84070D4F838C094F841E094F8438094F8449094F845A094F846B0BD
:200AC000002900F0A68010996970A9680A81A968CB72A9688E72A9680F73A9688873A868AB
:200AE000C0F804C0A86880F80DE0606BA9680860A86880F80F80A86880F81090A86880F8FA
:200B000011A0A86880F812B000F03FBE6F68002F7FD0109868706868077D17B1C07C84F844
:200B200045006868877D17B1417D84F84610077C17B1C089A0876868077B17B18068A06384
:200B40006868877C1FB1407C84F84100686807790FB10068606300F018BE1099697070B1D5
:200B600094F83F0080090AD208A8082219F0C3FC24F01CFB08A81FF0D7FB00F006BE24F01F
:200B800015FB4FF4FA7023F0CFF900F0FEBDA86800283ED01098687024F086FD26E0CA489D
:200BA000AF680478002F34D01098687020461DE0686800282DD0686800781EF03BFA62E2C8
:200BC0006F6837B3109868706868007804F0CAFB00F0DBBDA868E0B1109868701EF0BEFD61
:200BE000002808BF11983FF422AF0078AF68387000F0CBBD904E00206F6857B1109868704D
:200C00006968088889781DF033FC00F0BEBD686808B902200BE7AD4C6968082204F10C0031
:200C200023F068FE686801896180807A2070EDE06868002800F02B820188ADF830104088DE
:200C4000ADF832000CA9532020F04AF950200DF1320120F045F9E1200DA922F0ADFB686812
:200C60009DF834100079884200F0B6808DF834000DA9E12020F034F9AEE0C046205500205C
:200C8000645F00206868002800F00182007820F07FFE4646686896F838104078884213D06A
:200CA00086F838000DF13501E12022F085FB68689DF835104078884206D08DF835000DF1FD
:200CC0003501E12020F00CF96868119C407804FA00F0B06423F028FC10988046A6F890803E
:200CE000204621F0C9FC4046A1E66F68002F00F0CE817C884646F486387886F846007B89E4
:200D0000387A738786F838007A68B264B989A6F84410B87B86F85800F87B86F82500387C72
:200D200086F823007C693465B86996F892107065387F884201D020F02BFE6968444604F193
:200D400059001D3124F0A5FD94F8460004F12006082841D121207421324624F081FC109880
:200D6000022120F03DFD37E06F68002F00F08F8103E06F68002F00F08A81122088E168689A
:200D8000002800F084816A6810889178D27820F0E9FE8046A7E76868002800F0788168687D
:200DA000017A427A1CF090F96DE16868002800F06E8140788DF82000686880788DF8210077
:200DC0006868007823F0DAFB002800F060810C3008A9022223F08EFD109859E1696800295F
:200DE00000F05581A868002800F05181087808A922F015FF6868A968007808709DF8200056
:200E0000A96848709DF82100A968887010983AE16868002800F03B810A30077807B9109AC0
:200E200047780FB142F0020287780FB142F00402C7780FB142F00802007908B142F0400225
:200E400069680888891C20F0B7FA1CE16868002800F01D8102208DF8280068680088ADF87C
:200E6000200068688178C27808A81CF079FF0AE16868002800F00B8102208DF8280068681D
:200E800001884FF6FF70884205D0821E8A4202D0C01E88420BD124F041FBADF820006868CF
:200EA000C27A837A811C08A81EF0E6FF687068680088ADF820006868C27A837A811C08A86E
:200EC0001EF0DAFFDFE0C046C0520020185000206F68002F00F0DB8002208DF828006968BB
:200EE0000988ADF820106A681379B2F80680167AD2F80CB0177CD2F814A051886446221D15
:200F0000146810930346F21912FB03F00F305FFA80F9B9F14E0F3CDC24F000FB884236D14E
:200F200021700812607023F073FFA41C0146204624F0AFFC04461098207084F801804FEACD
:200F40002823A370E670241D66B15846A41E017804F8021F30F8021B761E4FEA212161706A
:200F6000F5D1A41C27705FB1641E5046017804F8021F30F8021B7F1E4FEA21216170F5D1A2
:200F8000B84808A920224B461BF06EF980E018467EE010207CE06F68002F78D002218DF8BD
:200FA000281068680088ADF820006868E146428883888679D0F80880077BD0F810E0D9F8B6
:200FC0000400F41914FB01F1891D5FFA81FCBCF14E0F42DC9DF828100F2918BF022908D17B
:200FE000BDF820404FF6FF71A14204BF891EADF820104FF6FF71914208BF8A1E00F8012BEA
:20100000111200F8011B00F8013B1C1200F8014B00F8016B66B14146801E0A7800F8022FA8
:2010200031F8022B761E4FEA22224270F5D1801C07705FB1401E71460A7800F8022F31F8C5
:20104000022B7F1E4FEA22224270F5D1484608A9062263461BF008F9E9E41020E7E46A681B
:20106000AAB10220052217E0686880B102208DF8280068680088ADF82000686841880279D4
:2010800008A822F061FF68707FE3686810B902202C46E5E0022002468DF828006868008893
:2010A000ADF820006868418808A823F04BFAEAE72C466368002B00F0D280187D23F0A4FA09
:2010C000002800F0CC809D691C331F78002F0CBF109802205F780FB140F010009F780FB14E
:2010E00040F00800DF780FB140F020001F790FB140F040005F790FB140F0800082466068B1
:20110000007D24F0FDF85FEA000800F0A8806068807A8DF8290060688089ADF82A00606808
:20112000007802288DF828000CD001280AD00F2808D003280AD1616808A80822891C23F011
:20114000D9FB03E060684088ADF820006068877B002F73D0780017F011FC061C08BF1020A2
:201160007ED010996068877B8F4261DCC18A838CCDF84880826A16950C2F139190F8229009
:201180001493BDF8208015924CDA40461CF05CFA0C2816D14FF6FE701CF056FA0C2810D15F
:2011A000DFF808C3119910989CF82C310CF59A7C1CF8082B9342C4BF131C081C491C0C29A7
:2011C000F6DBBB4D4FF6FE7305EBC00568686B8018B11FF029F91098686077B14FEA470BF3
:2011E000584617F0CBFB6860002808BF10201AD0686831465A4623F07DFBA5F80280C44816
:201200006F70159B0078169F287012990093139A019708A8CDF808A0149BCDF80C9009F0D1
:20122000D5FD00E00220607030461FF0FDF8ACE200694A00105A491CB05293E7816A009188
:201240000195CDF808A090F822100391C28A838C414608A809F0BAFD25461090D6E5022013
:2012600025469DE1344E00206868002800F04781007823F0C9F9071C00F04181387B1DF051
:20128000B3FE0028687040F0808274683D46002C00F07B821098274617B9BD4202D074E2E7
:2012A000BD4209D1AC4219BF2968016028687060284624F09BFA68E238463F68ECE7686814
:2012C000B846002800F01B81007823F09DF9002840F0BD8023F0B6FB052880F26081109FB3
:2012E00040466F7023F082F9041C01D0237B73B11C2017F043FB041C00F0478239461C2231
:2013000019F0F9F884F80480DDF8448000E0B8466868007820736868007AB61C207614209B
:20132000266117F02BFB0028606141D03946142219F0E1F86968626949689079897900F020
:20134000F00001F00F01014391716868406861698088888068684068616900780870686802
:201360004068616940884880686840686169C079C871686840686169007B08736069C0797D
:20138000400017F0FBFA616988606669B3681BB13846F179814250DC307B400017F0EEFAF8
:2013A000306161690E691EB138460A7B82423ADC04F10C00814613F0B9FC0646022E18BFDC
:2013C000B82E06D1207B1DF00FFE484613F0AEFC06463EB9B8F1010F20D1204620F094F871
:2013E000C8B11BE0B8F1010F15D0606968B183681BB118461FF018F8606903691BB1184666
:201400001FF012F860691FF00FF848463946102219F071F802E0204624F0E8F9022E16D0D0
:20142000B82E14D0B1E16B685B6842001B690969D35A53526169401CB7E76A68526841001F
:201440009268B3688A5ACA526669401CA1E7D020A6E06868002852D0A86800284FD0109934
:20146000082219F048F869680878498821F000FC071C19D010986870A96838880880B878B5
:20148000A9688870AC68A078002800F07E8117F075FA6060AA685068002800F076819278E7
:2014A000F91C23F027FA70E1B12079E00C0E0020380F0020686810B3A86800B31098C74AB8
:2014C00068706968176809783FB13A79914204BF401CC0B23F68002FF7D1A9680870A86825
:2014E0000078400017F04AFAA96848606868A9680078496821F074FF47E16F680FB90220B9
:201500004EE010986870686800781FF007FD3CE1014F0020022068706968002900F035819B
:20152000087849881FF018FD002800F02E81109893E66868002800F0B780696808A8082284
:20154000091D23F0D7F9032023F04CFA6868C07B20F0D4FA6868817B009102788389418871
:2015600008A813F0ADF88EE56868002800F09C80384623F03BF8041C14D11C2017F0FEF999
:20158000041C00F0028110991C2218F0B4FF277120461FF0B9FF28B920461EF045FFD120C7
:2015A0001090C4E7E088D24940F00800E08040F00400E080022024F005F8D149032024F0AD
:2015C00001F8686800680890686800798DF82400119F8DF825708DF8267008A81BF0E4FCD0
:2015E00051E5686800285FD068681099008801F08DFECAE06F68002F56D0C2202DE6CB4833
:201600006F680478002F4FD01099697068682A2218F071FF46466968F08E08806868B6F832
:201620004470847269688F81708F6968C8826868082206F1200707F139010E3023F05AF917
:2016400023F0E6FB014668680822801C23F052F96868082207F11C01183023F04BF96868DD
:2016600096F8381080F8231011986968B04C81F8220021784A0824BF6A6882F824008A0808
:2016800024BF6A6882F82500CA0824BF6A6882F826000A0924BF6A6882F82700C90924BFB1
:2016A000696881F8280070E00220D6E5686850B390F90000044622F053FFA86800B104704C
:2016C000FFF7A4BB6868F0B110986870696817460F706868022646706868867068680624A9
:2016E000C470696803230B714FE0686858B1407818B1FF20032120F073F823F01BFF119826
:201700008C490860FEE70220BDE41220BBE41098687018F029F938E01098687021F0BEFA08
:2017200033E029461AF070FE2EE029460FF000FE2AE0294614F0C0FE26E0294623F008FE6C
:2017400022E029461DF0ADFA1EE029461CF038FF1AE029461AF086F816E0294615F0D8FD84
:2017600012E023F063F91BE729461CF0DDF80BE03846294605F040FA06E0294604F046FF21
:2017800002E0294604F024F9119011981090BCE0162022F022FA3C46071C00F0B680DDF85D
:2017A00040801622414618F0A6FE9320387046467E7060783871A07838742079012814BF4F
:2017C00002200120B871E0883881E0783875A07822F01AFF002800F086808BE0DC5500205A
:2017E0000A2022F0FAF9071C00F08F80DDF840800A22414618F07FFE4646912038700F9D3A
:201800007E70A978797169783971E978B971A9883981A87822F0F8FE002864D06AE0384682
:201820004078904271D01099434BF070F21C4FF0007020F099FF70784049087065E0302063
:2018400022F0CBF93C46071C5FD0109D3022294618F051FE922038707D70A07B03283871E3
:201860001CBFE088F88004D1B81DA11D082223F041F8E07BB873208A388260887882A088DB
:20188000B882608AF882207D3876667D284606B101207876607E00B10125BD76A07DF876D5
:2018A000E07D387794F918007877E069386294F8200087F82400A08DF88494F82E0087F874
:2018C0002800A08C7885A08C17F058F8F862E0B1A16AA28C23F00EF8207D22F095FE48B9B4
:2018E000F86A1EF0A1FD384622F07EFA0DE0C04621010200007939461DF0B8FA05E0C04619
:20190000B9500200384609F00FFE1098012803D00F9822F069FA03E00F9988781DF0A6FA40
:201920000E9880F4004017B0BDE8F08FAC4C0020EE6500207C05204399350200A819002042
:201940002DE9F04FB74CDFF8E0A294F8207088465FEAD800ADF1140D80F095825FEA1840E4
:2019600024BF4FF6FF7BABF1010B80F05F81504600785FEA5831A0F1020080F03681BB4D2B
:20198000A91D09885FEA182280F0EF805FEA980180F0D6805FEA183028BF88F4006080F022
:2019A00044835FEAD81080F0A780E7685FEA983062D2A0695FEAD83138BF0020C0F035832A
:2019C000A94928C96A4628C209881180676938B9384623F0B4F9A061C0B997B90B2011E083
:2019E000017BFF2906D031F07F000FD101F07C0104290BDBE06940B9384623F0A0F9A061FF
:201A000020B9002023F08CFC33E0A061637801201AF07EF900EB40004FF4804102461846CC
:201A200023F016FF94F82010A069082919D00188ADF80010017A8DF80810017B491CC9B2ED
:201A400031F07F07017306D10188427A684622F07BFAA06909E0008800210A4620F082F8A5
:201A6000F7E7017B41F040010173406923F067F9E06188F48040D8E2DFF8BCB200264FF029
:201A8000030AB14687B96078012E04D04FF400511CF0B6F805E04FF400514FF47A7223F01E
:201AA000D7FE88F40050C0E27D68287810B3F02820DC51464A466B461DF0C6FBD0B10298C6
:201AC00003889BB984F83E908DF80DA08DF80C9003AB0A20494652461EF034FADBF800106C
:201AE00084F83E9031B12878884703E001880126491E01803F68C5E71DF030FE074620785D
:201B0000BFB1401EC0B22070A0B160784FF480411EF06AFC30B9606923F011F910B938780C
:201B20001BF002FB6078402143F6982223F090FE207810B90B2023F0F3FB88F0400074E235
:201B4000B0F1FF3F18BF00280CD168460021082218F0D1FC68461EF0E7FB18B1607802219A
:201B60001BF0E8FC88F002005FE2084600211DF0D1FD28460678FF24C6B14FF6FF75001D15
:201B800000212B4610F8142F52080BD3C7884FB1BB4207D055B10289BF1ABAB29542C4BFDD
:201BA0000C1C151C761E01F10101EBD1FF2C19D02E49A00000EB0410401818300189C088EC
:201BC000401A80B250B929484470FF2008F040FBFF2120460A461EF0F9F900202349C8804F
:201BE00022F0E2F988F080001FE2B0F1FF3F18BF002814D13846401E0CD0801E0FD194F87A
:201C0000220002280BD1012084F8220000201EF04BFD04E094F8211000201FF059FC88F4C6
:201C2000805002E2D04F0020E84E002060781BF053FC051C08BF88F4004000F0F6812F7877
:201C4000D32F00F0088194F82000B84210D00A2F40F0158194F83F002871A16A002900F0FC
:201C60000E81A81C88470AE1B0700200645F00209AF800007F1E00F09780BF1E40F0FF8090
:201C8000012818BF022840F0FA80AF787FB37F1E40F0F5806A7860781AB323F03FFC4FF6BB
:201CA000FE720021824218BF0121081C04D1BB48C08E1146814209D01046B84FADF8100087
:201CC00004A9A7F836B053201FF00AF920F082F81FF044FEB149002081F8460017F044FE50
:201CE000CDE0022140F6B83284F82210A8E06878002855D123F0A8FC00210E4603461F46B6
:201D0000A648636208300160002F45D1002B39D0002E1F4636D0B146C54821F0A2FF012886
:201D20000CD0BAF82E004FF6FF7181420CD03988884209D01CE0C046C4520020BC4807F1FB
:201D40000C0122F0D1FC98B194483989408F884201D1834501D13B7953B19048797990F8A1
:201D60003200884209D19AF80E00B979884204D038461FF02BFF761EF6B2BF69B9F101094E
:201D8000CAD1636A226B002AA8D0184631469047206B002873D1A1E7BF69761CF6B2B3E785
:201DA00000201FF0F7F86AE0012818BF022866D16F7894F845003FB194F84410491CC9B2F2
:201DC000884284F8441043DB94F82100401E04D0401E3AD0401E1ED051E023F021FA98B908
:201DE00094F8460020B1E06A002848D0804746E0002102200F468DF808000246ADF8007047
:201E0000684622F09FFB13E0012023F0F3FB014603F0B8F833E0AB2000216A461EF0E4F9CF
:201E2000CDF808D004208DF80C0002A811F0D4FA60784FF480511BF0E3FE607841F288323A
:201E40004FF4805123F004FD19E01FF025FB16E001200021DCE7E88948F20101401A0BD055
:201E6000401E05D0801E0AD1284617F03BFD06E0284615F017F802E0284616F0A7FC28463A
:201E800021F0B2FFD2E66178381C09D0401E00F0C680C01E00F0BC80801E00F0AE80C2E0C6
:201EA00094F83F00810980F0BE80C10880F0A080810875D20009C0F0B680062084F8200045
:201EC00023F092FB002865D01DF048FC2569071C60D068684078800837D3387803210022C3
:201EE0006B461DF0B1F928B968684078410830D20E201BE002980188B52912DAB42101805A
:201F000060784FF47A724FF4005123F0A1FC4948416829B10078FF2814BF3878FF20884752
:201F2000256968684078400803D2092023F0F8F90AE0092003228DF80C0003AB00218DF824
:201F40000D200A201DF0FEFF256968684078410869D339490E6816B980081BD363E0387855
:201F60001BF0E2F8002600B101260325301C02D00E2023F0D5F90C2020706078402143F6FB
:201F8000982223F065FC0A208DF80D5003AB8DF80C0028E00E2023F0C3F944E02019002046
:201FA000042294F8400084F8202040083BD394F842706FBB50460078012818BF022832D17A
:201FC000012604F120000021E67018F094FA032584F8205030461CF087FC0A208DF801608F
:201FE0006B468DF8006000212A461DF0ABFF1AE00520002184F820000EE0002084F83E005F
:2020000084F8200032220846042123F021FC0AE022F0C2FA0420012102F0B4FF03E0012086
:2020200001461FF055FA88F0040005B0BDE8F08FC04C0020C0520020A85300202DE9F04FD8
:20204000DFF814B3C34C01214FF0E047ADF12C0DDBF804002569C06808931F400170C8486C
:2020600007924FF0000101704FF0020000EA020008BF002840F0F482DFF80893DFF8088380
:2020800011464FF480301E4600270840374008BF002832D100204FF4003110EA060701EA34
:2020A000020108BF00290ED137464FF48001384001EA020108BF002900F0C68200202871C6
:2020C0001AF03AF9C0E22871EB201FF0E7FD4A460020414610700878862801D11FF060FE66
:2020E00023F0EFFBE1690A68002313710968E16123F07AFD22F0EAFAA6E20020DBF8007062
:20210000287107F1B8000168DFF880A20F782FB951460F7817B1D0F8940480471FF026FE65
:20212000812756469A4937709A4D0860FF232B702778A7700021A1812069DBF80050007AA6
:202140004A460E46801E81B2D5F800011670C0890A918842C0F26C82E1690831096804F13F
:20216000180001600426A6810A98DBF80060657EA17EE37E04F11902C01E80B206F1B80C82
:202180000A9005EB012051786081C1F30119DCF80010237109780692002908BFB9F1020FE0
:2021A00000F04682B9F1020F00F3428219B110F0070F00F03D82667800F00705AD1E022D92
:2021C00008BF002E00F0348231B141460978862902D1002D40F02C82001300F002000228BE
:2021E00064DA35435AD1DCF81C0090F88300022851D0E1690C31097805A801700527A7813E
:2022000023F05FFB454606462878862840D1DBF80000403001680F6837B9D0F80C05804768
:20222000DBF80000006C07689DF9140023F08DFB7877DBF80000016C096800228A77006C7C
:202240009DF914100068C177304623F0CDFC2679678923F036FB41460A7807F01007862A38
:2022600015D1BB4D05F11E031A88521C1A8087220A7023F0B9FCE879B04206D11FB90020A2
:2022800019F04AFA07E01B20FAE7E920F8E70646304623F0A9FC22F019FACBE141460878B4
:2022A000862803D11FF07CFDA77866788FB186B9012F00F0BD816089022F03D110F0070F36
:2022C00040F0B681032F05D100F00701032901D0AEE16089010980F0AB81011301F0020174
:2022E000022902DA810A80F0A38106994978C1F38108B8F1010F4FEAA111099100F09881D4
:20230000012900F09581B9F1020F14DA00F00701012918BF03290ED1B8F1000F0BD1099FA4
:20232000002F00F0858159460968AC3109680F78002F00F07D81BD49B9F1020F0ED0099E30
:2023400011F808708A5DB918CFB256B3C10928D3BF1E13E018640020140100200A46099962
:2023600008EB0207891809793A795218C109D7B212D2099958EA010613D0BF1CFFB210E0A0
:202380000C55002032670020356700203067002014670020C5460020099958EA010608BF18
:2023A00002270A9AC0F30020391A60718A42C0F23F81DBF800601146C91B091888B2D6F884
:2023C00050122081743080B2884700286678606100F02E810021742218F08DF80020E0703B
:2023E00062891EB9C14902F020000870BF48617906784FF0000C002E30D000292ED102F095
:202400000700032808D0012828D1DBF80000D0F8D40090F882600EB3DBF8040040690678F8
:202420001EB122F0EBFCFE2815D0DBF80000D0F84C02804750B9DBF80000D0F84402804768
:2024400020B96289617994F803C007E00420E0706289617901E00420E070844665692689D3
:2024600005F1740305F17400AB65069B686093F801902E812089C9F3011A0029A5F85C009F
:202480001878AA8100F078004AEA00004CEA000028744FF0FF06AE730CBF2079002085F8AD
:2024A0003A8085F84900099885F83000A089002FA0EB010086B2A68100F0B580E169E78035
:2024C00068463A468919083115F082FABF19B8B2A0812846017C4FEAA90212F0030F02F03A
:2024E00003076D4601F0400843D0BAF1020F4FF0000301D1C9090BD29DF801209DF80010F9
:2025000001EB0221A0F844100DF10205A0F84210804EB0F84410B6F842208A4203D04FF613
:20252000FF728A4223D1032F14D06A78297801EB022189B24186B6F84020AD1C01208A42FC
:2025400014D04FF6FF728A4218BF181C0EE0C0461453002060692946323023F09AF9606986
:2025600037363146323022F0BFF808350346002B56D00698407886111ED06169BAF1020F14
:2025800003D0087CC00903D309E058EA070306D16A782878AD1C00EB0220A1F84200032ED5
:2025A00005D068782A7802EB00220A8504E060692946283023F06DF959460968AC310A68DA
:2025C0006089167886B1BAF1020F0DDA00F00702012A18BF032A0BD162692FB94E4BB2F8B0
:2025E00042201B8893421BD100F00702032A05D0012A18D1886A90F88200A0B1D1F89C1143
:202600006069884778B90020069FE070B97866697878C1F3011100F078000843307402E0ED
:2026200019F08AFE06E00CF0E1FB03E0B07D020022F03EF823F045F9E1690A68002313713D
:202640000968E16123F0D0FA079A089F202100201140384008BF002930D021F0FFFF2DE06C
:202660002E4991F90000002803DD91F90000401E08702B4991F90000002803DD91F9000061
:20268000401E0870114600201E464FF080770840374008BF00280DD0224991F900000028AB
:2026A00003DD91F90000401E08701F480121017022F0F8F90020287119F03EFE184A92F9F2
:2026C0000000A8B1079B089F02214FF0E0401940384008BF002914D092F90000002810DC92
:2026E000DBF80000D0F84C0580470AE032670020DBF800700D480021D7F8582401700846C1
:202700009047DBF80400C06800210BB00170BDE8F08FC046A8500020EA5000200F55002076
:202720000E550020105500200D5500200A5500202DE9F04F8F4C04F120000768ADF1540DDD
:2027400017B1002087F84500DFF824B2002517F148030BD0BF6D854E73612FB9584600680C
:20276000D0F84C05804773695868706023F0A9F81490082013F010FA18F05EFF5E4610B1B6
:2027800063A023F02DFA1BF0BFFA684622F0CCFB042069468DF80000284622F099FD606380
:2027A00022F0FAFA09A822F013FD042009A98DF82400284622F014FDE06222F0F7FA0DA836
:2027C00022F016FD04200DA98DF83400284622F017FDE16A206319B955A023F001FA206B7F
:2027E00010B958A023F0FCF9606B10B95AA023F0F7F93068D0F8E00380473068D0F8F00223
:202800008047DBF800002F460726A03001687B5823B118468047DBF80000A030761E07F148
:202820000407F3D1D0F8B8028047EB2022F07CFE206A2F4670B105A8FF21082217F05BFE72
:20284000206A05A9082221F0BFFA04F12006012818BF3768484A0CCA05A8391C80E80C00B4
:2028600022D1082016F08AF85FEA000800F08F80A8F10206032722F036FF06F8020F7F1EA7
:202880004FEA20207070F6D13020F82706F8020F4146082204F13C0088F8077022F02AF88D
:2028A00040461DF0C1FD04E004F13C00082222F021F80120082105AA22F0CCFE04F13C0651
:2028C000002818BF09285ED120F001FF800855D205A8FF21082217F00EFE07AFFF210822D0
:2028E000384617F008FE0120294608223B4622F0A7FB002847D1384605A9082221F064FA59
:2029000000283BD130463946082221F0F3FF3AE052616E646F6D5F736565644175746F6DE0
:20292000617469632829206661696C656400C04641455343434D206F70656E206661696CE0
:20294000656400C0414553454342206F70656E206661696C656400C054524E47206F706595
:202960006E206661696C656400C046C0A850002014010020200100206879020001200821E3
:20298000324622F06DFEE22031461EF0A9FA20F09EFE400834BF2E1C0126CE4F552001210C
:2029A00007F1420222F056FE18B916B128461FF0BBFDC94FE22007F1400120F0FDFC3046D6
:2029C0001BF0D4FD05A82946102217F094FD6220102105AA22F03EFE28B926B1622010211A
:2029E00005AA22F03DFE05A82946102217F083FD304611F091FD30461EF018FA304611F0F4
:202A000097FF1EB1284601211EF0EAFE1C2015F0B5FF0028A06300F01D81606AA16A221D09
:202A200019F0EAFADBF80010D1F84C138847A16B201D0860606AA16A04F1080219F0DCFA6B
:202A40001BF0F2FFA16B04F108004860606AA16A04F10C08424619F0CFFAA04EB570711CF1
:202A600008702F3106F13000129107F1380122F010FFDFF86C9297F8240007F14803294628
:202A8000B3606C22307009F5C67017F034FD04F1240A04F128001190A26B0168DAF8000060
:202AA000122709F5C67308324FF6FE7C7F1E23F806CBF9D1C2F8008004F1100219F09CFA7A
:202AC0008B4B894F736287497760884A0870119BA06B326204F1100704F11402C760196878
:202AE000DAF80000139219F087FA824FF871022287F824204FF6FE70B88322F089F907F13A
:202B000014087D4812990560404622F0C2FE4846FF2138225C3017F0EEFC78487A4AC26041
:202B2000784B8360764941600570794A4261774B03617949C161794AF260764B836179492E
:202B40007161794AB261764B336107F1300012F0EDF8092608F12C00761E40F8045BFBD11E
:202B6000F87948F201011CF08DFDF8794FF400411CF088FDF87921211CF084FDF879222198
:202B80001CF080FDA06B1399119E0161DAF80000316804F1180219F02FFA644AD580D56000
:202BA0009570556101261574074615704948167148F20201477038461CF064FD48F20101A5
:202BC00038461CF05FFD48F2040138461CF05AFDA16B04F11800119F4861DAF8000039680A
:202BE00004F11C0219F008FA514B207051499870284622F0E7FC5049304622F0E3FC4F49EE
:202C0000042022F0DFFC4E49062022F0DBFC4D49072022F0D7FC4C49082022F0D3FC9878AD
:202C20004FF6FE71491C1CF02DFD4A4B484F47482849494A7B60494B88620846C362A06BAF
:202C4000BA600F463B4687F8466004F11C078761434A1A631CF086FA11F002FE149822F00A
:202C6000C3FF0EF023FE20F077FEDBF80000D0F8D40090F8430020F081FEDBF80000D0F88A
:202C8000582429460120904722F0A8F93548DBF804700570F868007830B9DBF80000D0F809
:202CA000582428460146904716F0FEFA2E48058145812B4603602E4A43602C48072120F0B1
:202CC00017FB16F0BDFB1EF0EDF81EF0CAFA15B0BDE8F08FD04F0020E84E00202851002048
:202CE0000C0E0020D854002001090100B96C010011520200AC4C002020500020A4530020F9
:202D000059790000E93F020099C10100751F02006137020029190200C93C02008D4F010004
:202D2000453901003D370200B9890000645F00201455002009510200CD500200E150020042
:202D4000F5500200CD4C0200E54C0200F1EC0100C05200202902020009E70100990B02000A
:202D600049FB010031670020C0660020EC000020535902002DE9F04FA548A74A0178A548BD
:202D80001170A64E4170A6495C307061ADF1340D08601BF019F9B348B14C00F5E470079085
:202DA00004F5047000F12001089100F1A20100F592700A90AB484FF0000AB146A74D099115
:202DC000401D0B908EE1606AE769A64B860006EBC006F6191F7810361B2F20D1184699A185
:202DE000042220F001FE002826D09E4896A1042220F0FAFDF0B19B4894A1042220F0F4FD56
:202E0000B0B1984892A1042220F0EEFD70B1954890A1052220F0E8FD002840F02D81402F5D
:202E20000BDD5B2FBCBF2037FFB206E0FD2704E0FC2702E0FB2700E0FA27307996F805B09B
:202E400002285DD0032840F0B6800798514640F2A51217F050FBD0460898099B3179009085
:202E60000A9A01930329029245D173796BB90D2F33D101207071B06803681BB1C0886946AC
:202E8000524698474FF001082AE01B2F31D07F2F2FD0FC2F07D0FD2F0FD1B1688888CB88E7
:202EA0001B185B1E04E0B1688888CB881B185B1C93FBF0F242439B1ACB80B068036833B100
:202EC000C08852460D2F08BF0122694698470D2F18BF4FF0010886F80580B8F1000F0AD06E
:202EE0000298316880221EF0DDFF01200CF0DCFD01E086F805A07079584518BF1B2757E043
:202F00000798514640F2A51217F0F5FAD0464FF0FF31099BADF81810089804930A9A039038
:202F20000B46ADF81A3030790592022840D173792BB90D2F1CD101207071FE201BE00D2F86
:202F400007D01B2F14D186F805A0B3684BB1F92004E086F805A0B3681BB1FF2003A906AAAF
:202F6000984784F801A050460CF09EFD4FF001087379EBB13846B36813B103A906AA9847C0
:202F800001200CF091FDBDF91A004FF00108B0F1FF3F0BD0BDF91810B1F1FF3F06D0E085BB
:202FA000A185424662701BF0C9FE01E084F801A0B8F1010F60D0E269616AB7F10D0031D00C
:202FC0000E381AD0643813D07D38012854D8107A012851D0FD2F1CBF0144491C02D1107A56
:202FE0004118491EB1FBF0F24243891A616240E0D768A06A4FB160623AE0BBF1000F02D0C6
:203000007779002F35D0226AE261117A491EEDE720010020A434002038670020501A002075
:20302000D04B0020880000EBC100801814300778D7B1012F1DD14768DFB108463946884745
:2030400017E0C0461B5B41001B5B42001B5B43001B5B44001B0000000000C04650180020E8
:203060000C41002054410020A162C4F824A04768E76150460CF018FDA3485146052217F05D
:203080003AFAA0680B99052222F05AFB288920F040002881800A10D32E6D686BEA6BB042F6
:2030A00004D11AB1504608219047EA6B286BB04203D112B1012008219047A5F808A0D9F832
:2030C0000C0080080CD399F80000C421524606AB19F0BCFCD9F80C0020F00200C9F80C0041
:2030E00016F04AFDD9F808004FF0FF3122F074FD0028F7D099F800001AF0EEF9061C00F035
:20310000E1803078297892384BD0801E45D031381FD0401E3ED0401E04D0C01E30D0401E3B
:203120002AD041E0764AB07B85F87600378AA5F87870371D3B6878681360FF29506002DA52
:20314000491CC8B22870504617F086FA11F088FD2AE03079F71C05280AD1F0780D2807D013
:20316000D9F81000654922F033FD664822F0CBFB384617F071FA17E0CD215246032304E081
:203180008DF818A0C12106AA082399F8000019F02BFC09E019F08CFC06E0F01C07F04AFBCC
:2031A00002E0301D13F022FF30784FF00108712821DC71284DD065280FDC65285FD0801FAD
:2031C0006ED0423874D0183867D0401E62D0401E01286DD9801E55D068E066384CD0801EAC
:2031E00047D0801E032863D9001F3ED0401E38D0401E32D05AE091280FDC912858D0723857
:20320000022855D9C01E20D0401E1AD0401E4FD0C01E4DD0801E4BD048E092380DD0C01E62
:20322000012845D93038062842D91B3840D0801E01283DD909383BD038E0F76A002F37D05B
:2032400030E0B768002F33D02CE07769002F2FD028E0F768002F2BD024E0F768002F27D0D9
:2032600020E0F768002F23D01CE0F768002F1FD018E0F768E7B115E0F768CFB112E0F76840
:20328000B7B10FE03746786908B11DF0CDF8FF6977B107E077695FB104E0776947B101E0EA
:2032A000B7682FB138461DF0BFF801E0D04602E0304620F099FDB8F1010F03D016B130460F
:2032C00020F092FD288900283FF4F9AE81090DD30FF0A0FE10F0F6F8504617F0BDF92A89A1
:2032E0004FF6DF7122F0200011402981C109FFF4D1AE207801283FF466ADFEE7A0860100BD
:20330000BC180020BC1A002054410020974B2DE9F04FADF13C0D0A91002209900221181D42
:2033200001705027DA7280465F72402159711046D873802199710021D9719889197240F400
:2033400030509881A0219972997310461874012018F0DEFC28B9186820F00F0040F0020065
:2033600004E0186820F00F0040F00100DFF80093BE4C6FF30F1048F220210026014399F82E
:203380000050196098790C9684F82E005DB930461BF0ECF894F82E00000910D3304608A9BF
:2033A0008DF8200008E094F82E00000907D301200DF121018DF8210052201DF091FD1BF0E4
:2033C000D1FE21F01BFBDFF80CA3DFF810B30B90002840F0B88012F085F800280B9040F03A
:2033E000A7800C9804F1200674210D903246212022F030F9002855D10D992120742233467D
:2034000021F01EFE00284DD1E08E4FF6FE71814248D001200D9094F84600082806D004287A
:2034200004D00FF003FD0C980D903BE00D9D42200DF122018DF822501DF052FD06F12F01B6
:2034400043201DF04DFD06F12C0147201DF048FD06F11C014A201DF043FD06F11A014B208D
:203460001DF03EFD06F1240138461DF039FD06F1160153201DF034FD06F12D0154201DF0C2
:203480002FFD06F11801E1201DF02AFD94F82E00000938BF0C9D52200DF122018DF82250CE
:2034A0001DF01EFD0C9D14E0DAF804000C9AAF0007EBC50729460C233F18009701201DF0A4
:2034C00093F920B93878FF2804BF002038706D1CADB20BF10400BAF800100068A942E3DC69
:2034E00000B180471EF0E9F90D98B8B122F016F8A9F81C0028B998F8000000F0F80088F8A0
:20350000000003203936002789F80100314684F8467009F1140022F0BCF901E009200B904D
:203520000B9F6D480021002F418008BF0B9102D0012769480B9794F83810824601208840E6
:20354000C9F80C0068E011F0CDFF0FF06FFC04F120022120742122F083F802A8FF210C22AD
:2035600016F0C9FF354656460AE0C046E8650020294601200C2202AB1EF046FC6D1CADB266
:203580003088A842F4DC5846006800B180471FF03BFF002006220C99ADF8100002A816F0A0
:2035A000AAFF142015F0EAF9061C1BD0AC480C300768A7B103270225A8B202A9062280192B
:2035C00021F098F9AD1D7F1EF6D104A93046022221F090F94C201421324622F041F8304660
:2035E0001CF022FF182015F0C9F9071C10D00C9D1822294616F07FFF0620294618223B4676
:203600001EF002FC6D1C032DF6DB38461CF00CFF17F0D6F8304882460B98914D01286BD184
:20362000904E337804F1200723B3012B08D0022B0ED198F8000000F0F80040F0020005E070
:2036400098F8000000F0F80040F0010088F80000854820F006FB002808BF002003D004215C
:2036600089F80A10032089F801000CE020190020AC4C0020022098F8003089F8010003F056
:20368000F80088F8000022F02EF80999736B00F07F000818C9F80C306430022180B20C90E9
:2036A000FF201EF09DF84FF6FE70E086431C60870020A4F844301EF06BF93078012812D193
:2036C0000A9801280CD002A80021082216F013FF02A806E02C5500205C540020B85300200A
:2036E00000201CF0A1FF212074213A4621F0B8FF002002211EF074F8E8680B9C80B91220C1
:2037000015F03CF90646002EEE606DD04FF6FE70B61F0327411C26F8060F7F1E7180FAD1CF
:20372000002C61D106AB4C200021022221F088FC002852D1BDF8180000284ED004284CDA84
:20374000182015F01BF903274FF0020800244FF6FE7B0646EB681FFA88F14C2006221B19CA
:2037600021F06EFC78BBE868015B8B452BD056B30096201841880022182306201DF034F8C8
:203780003069EA6800F2E93333611019418805F13402880000EBC100E96813500819736999
:2037A0004188880000EBC1008018E9684360081941881822334606201EF026FB30460021F7
:2037C000182216F098FE7F1E04F1060408F10608C0D116B130461CF027FE224B7120002152
:2037E0000822483321F02CFC2048CAF80C002048CAF810001FF0DCFC1F481E490860D9F88D
:20380000100050B109F11004076820681CF00CFE38460028C9F81000F6D109984FF6FF71E8
:20382000814217D00020012489F8090009F1090289F800402146852021F00CFF09F1090519
:2038400028B98520002122462B4621F0F9FB0C9820F05AFB1FF0A8FF0B980FB0BDE8F08F9E
:20386000904E0020E84E00205851002035DC0000B15202004C530020C74102002DE9F04FF7
:20388000C04CC14DDFF804A30E46300CADF1140D80F04D81DFF82C83700880F00281C84802
:2038A0000768700980F0DD80300928BF86F0080080F07F82700A80F09680F00880F08980D3
:2038C000300A63D2B00A5CD2C44C300B2BD2F00A27D3142015F052F8071C1FD00025A846AD
:2038E000207A012813D1009704202946424614231CF07AFF58B92068386060682946142215
:203900003B46786004201EF07FFA84F808806D1C0C34032DE4DB38461CF086FD86F4806080
:2039200047E2002045E2182015F028F8071C25D000252434A846207A012813D100970620D3
:203940002946424618231CF04FFF58B9206838616068294618223B46786106201EF054FA5C
:2039600084F808806D1C0C34032DE4DB38464146182216F0C0FD38461CF056FD86F40060D2
:2039800017E215F0E9FE86F4007012E218F09CFB2178E079052902D021F0A2FC0FE0042110
:2039A0001AF02EF9E079042118F08EFE062021F019F821F095FC15F0CFFE1BF01BFE0120C3
:2039C0001EF0B2FD0320012101F0DCFA86F08000EFE1FF2003211DF003FF21F0ABFDBC4948
:2039E00001200860FEE7424692F84600082818BF042814D120322120742121F031FEC04D74
:203A0000C04B69682A88D8690024A9469846A24208DC00B18047002002211DF0E1FE86F4FD
:203A20008070C6E1A30003EBC403CF5C37F07F0C14D017F07F07CF540B4405D101A8FF2138
:203A40000C2216F058FD01AB012021460C221EF0DBF9D9F80410D8F81C002A88641CA4B240
:203A6000D5E74FB17968087818B14868007817F03DFB3F68002FF5D121F050FD1C3420800F
:203A800021F0C6F95046C01D0078012806D1444620784FF40061642221F0DAFE86F01000B0
:203AA00087E1012020F09EFF2878677800F007011220012918BF02292FD1E7B1032F1AD047
:203AC000012F2AD1012928D10A2020F08BFF444620784FF480611AF093F8502004A91FF0CD
:203AE0006BFCBDF81000A4F84400BDF81000002116F02AFE18E021F093FB30B1032F04D028
:203B000021F0F1FD0FF03CFE07E0022020F06AFFA949E068097819F055FC28B1E079012182
:203B20004FF47A7221F094FE86F0010041E1DFF890B2DFF8889233E1054627782B789AF8DD
:203B40000000591E00F00A81491E49D0183900F02181B93900F01A812A3900F01E811B1F67
:203B600032D09B1E14D09B1E40F01781012818BF022840F01281287913F0DAFA21F0B0FB04
:203B80000BE1C046AC4C0020EC650020E84E0020012840F002816F88002F40F0FE80281D5F
:203BA00001A91AF061FD012840F0F78021F0B6FCADF80C002D1D029501A813F0D1FDECE088
:203BC0002055002020190020012818BF022840F0E480404605F024FBDFE0C046A04E0020CC
:203BE000012818BF022840F0D88099F820004D46072818BF082805D1237A1BB9012101F03F
:203C0000C1F92778032F7FD00A2F11D0042F15D00D2F13D00E2F11D00C2F0FD0002F00F022
:203C2000BC801BF0E7FCE079102119F083FCB4E06648007800F00700012865D0277A6078C0
:203C40000FBB0020E07207462F711CF0F3F870B1062020F0C7FE9BF80000000904D34FF472
:203C6000004001210CF0C4FA1BF0C4FC95E0082001210CF0BDFA052020F0B4FE42F2107050
:203C800020F052F989E0E17A01280AD0032823D1032001274C4D607000216771A81C017001
:203CA0001AE0491CC8B20428E07204DB4548007801280FD010E0444800884FF6FF71814245
:203CC00008D00127042567710320A57203E0C0467C052043002060701EF07CF81DF03EFE21
:203CE0009BF80000000903D39AF82200012854D16078032851D1082001210CF079FA4CE046
:203D00002C550020A4530020277A2FBBE079102119F010FC1CF08EF898B1207803280CD146
:203D20001BF068FC95F82000022806D101201EF0FBFB0220012101F025F9062020F052FE68
:203D40002BE0082001210CF053FA052020F04AFE01201CF0A9FC20E00020FAE7022F1CD157
:203D6000012818BF022818D121F03EFC40B921F06BFC00280CBF002001201DF00BF90CE043
:203D800012F09EFC48B117F0C9F806E0404612F03FFF02E040460DF0E7FB404620F024F821
:203DA000E07919F099FB5FEA00087FF4C5AE86F4004005B0BDE8F08F11500020D04F002083
:203DC000EE6500202851002064190020EC6500202DE9F04F04462089ADF1440D002807BFA4
:203DE00030200021102001210CF002FA4FF0000B52200FA98DF83CB01DF072F86068217A49
:203E000001AA0EF085F8002800F068829DF806000228B4BF01275F469DF808000228A8BF47
:203E20005F46BDF80E004FF6F87880450BD008F10101814207D008F10201814203D008F1A5
:203E40000301814200D15F4621F062FB9DF80710884240F04382002F00F040829DF83500A1
:203E6000002840F03B82208D9DF80A60678EADF83000ADF8127056B161689DF805209DF871
:203E80002030012020F07EFD002840F027829DF809709DF80A50DFF87092002F4CD19DF86E
:203EA00021005E4658BBBDF80E0003461CF01CFA3746022808BF0127002F9DF8067018BF55
:203EC000012649460988994208BF46F0020626B1002F14BF402120210E4318461CF004FA87
:203EE000012808BF46F00106002F3DD00B9A107821F01DF9012818BF26F0010635E09DF83E
:203F0000250088B1FF280FD09DF824700C2F2BDA57B30A99891E21F001FB31F8022F904247
:203F200022D07F1EF7D11FE04946BDF80E700888B84208BF222617E0BDF80E10FF201EF0D9
:203F400097FE002808BF082608D09DF8090047F001072C2640F001008DF8090007F00307E8
:203F6000012F08BF46F011060B9A8DB9C648007870B106F0220022280AD006F0420042288D
:203F800040F0AC811078062818BF072840F0A681F0094FEAA61A48D317783846C01E012890
:203FA00025D9001F23D0C01E21D0801E1FD04946BDF80E600888B04240F090810520BDF846
:203FC00010408DF839000EA81FF0DEFE002800F085810269032313261370511C0E704C7020
:203FE00022128A70CF70448009F008FC76E15FEA5A001AD3032F02D150780D2815D09DF830
:204000000C0038B1BDF8100007990FF07DF8012800F060819DF80B0038B1BDF80E000699ED
:204020000FF072F8012800F05281B4F8447049460E310888B84209D1CDF800B0208DB4F8CB
:20404000421094F846205B460EF0FEFA9DF80A00A44DDFF8949200286FD0208DB4F84210E6
:2040600021F06EF9071C51D19DF8350000283BD195F88C00012860D10B980078062802D1F6
:204080005FEA5A0059D2BDF8121008F10700884200F02481BDF80E004946C91D097811B1A1
:2040A000E98E81421DD0594616F050FE80B18079BDF81020BDF80E1010F0180F0CD0608E13
:2040C00000901046238D9DF821201AF09CFD05E1BDF80E10BDF8102010465A4617F074FAC8
:2040E000FCE01BF041FEF9E004201FF076FD011C00F0F4806420087001274F70208D488042
:2041000028781AF0B3FEE9E0561900209DF805106068FB780A18527B9A4203D0FA70584661
:204120007860606840180421401C20F06AF87968814200F2D380401C786095F84600042878
:2041400018BF092840F0CA809DF81610B00980F09D800B985FEA5A01C0F0C08001780429FF
:2041600004D19DF82010022900F088800278072A04D19DF820302978042B4DD0032A46D0ED
:204180000C2A40F0AB80401C10F8018B06784C4604F11C0201215120167021F061FA0127CE
:2041A000524894F8203007705148B8F1000F08D1002B14BF4EF660244FF47A7450F8230086
:2041C00003E0203000684EF66024444303205946B4FBF0F44FF480400CF00AF828780221DC
:2041E00019F00EFD700807D2B00877D328780221224621F02AFB71E04FF48040214613F039
:20420000C5FF4FF4804039460BF0F2FF66E001A859461CF0A9F861E008464FF4806119F075
:20422000EFFC5F460920494685F846001C310F7020F0EEFD0146069820F056FA01284DD120
:2042400010201FF0CAFC074607990B98002F00F1010043D002223A704378027802EB032280
:204260007A80807878704A201CF03AFE9DF80A0010B9204905200870394641E7584601A959
:2042800009F090F82AE0C0464B19002094F8460094F847708DF8380094F948608DF83970D4
:2042A00001298DF83A600CD1208DBDF81010884207D1BDF80E001CF017F8022808BF8DF860
:2042C00016B0E26B01A80EA900F06EFA06E0BDF80E0001E0BDF810001BF03CFB11B0BDE81C
:2042E000F08FC04620190020E84E0020B4190020FC750200AC4C00202DE9FC47D44C0F4644
:204300000546F80B80F006826078DFF85883B90F80F0AA81B90880F09D81F90A80F0028125
:20432000390B80F0CC80380907D2F80FC0F0288227F0804717F0DEFB22E221F0C2FA8146AC
:204340001FF0A2FD002800F0B480082021F02EF9002840F0AE80802021F028F9002840F053
:20436000A880684613F06AFC012803D10098002800F09F8094F84102002840F09A800025CC
:204380000126E8B220F0B2FD48B1837A3BB1867290F9090006FA00F0C0B21DF07BFB6D1CC3
:2043A000032DEED3032084F8200004F5CC7021F082FA484621F018FCD34800252A460168BF
:2043C000056050F8081CD14940F8085C04F15C001FF0BAFC40460068006B8047A168401ABD
:2043E000010BA06AC1F1FF3282422CBF08444FF0FF30A06294F82C0020B12069A16AB1EBA0
:20440000C02F25D91FF050FD294600B13146081C1BD0BF4840F6090101804580417B06F06E
:204420000F0221F00F010A434273017B05F00F0321F00F0143EA010202732946416020F0DF
:2044400027FF418811F4406FFBD084F82C60A5621AF068FFCE482946056002201FF0ECF96E
:2044600002201DF059FF112011F0FCF8207818B96068483021F039FAC648007810B90E2025
:2044800011F0F0F894F82D0020B184F82D5005201DF042FFC048606284F82050B4F9B0002A
:2044A000B4F9B210884214BF0220072015F08EF802E0484621F098FB27F008073AE720B1F0
:2044C00004201DF029FF0020607065681CF058FF38B12846ED696FF4807100224FF000738E
:2044E000A847E06858B140460068006B8047E2686168801AC860000BC8600026E660A749F8
:2045000004F15C0000221FF01FFC0221D4F89C0084F8201018B104F1DC0021F0EEF927F41A
:20452000006707E721F0CDF906461FF0ADFCD4F894100028894600F08480002900F08180D6
:204540009749042504F15C00002284F820501FF0FBFB304621F048FB04F5CC7021F0ABF93A
:2045600040460068006B8047E0604FF0010884F8018028461DF0E8FED9F810006060D9F8C3
:204580001000416AC90803D3036A294600229847404618F039FD606880F81580606811F07A
:2045A000E1F96568D5F808A040F60A02D01F564600F1010C00E01E46736833B119888A42A4
:2045C00003D0884218BF8C45F5D100217160727B08F00F0322F00F0213437373D9F80C208B
:2045E0001288904224D06046904221D02B8E03B3696305F13002518095F83C0001F00F03F2
:2046000020F00F00034385F83C3095F83D0008F00F0320F00F00034385F83D307260707B6C
:2046200001F00F0520F00F0045EA0001717300E0E160504620F02CFE514640461FF0FCF831
:2046400002E0304621F0D0FA27F4806798E0C046C84600200AF076FAD4F89C0008B927F0CF
:2046600002078DE08C0100104E4A116841F08001116020B104201DF04FFE0020607021F0A3
:2046800020F98246D8F85400016804208847D0B1287DC0B1A068B0B18146D8F800002E698B
:2046A000006B8047A0EB09002861000B2861B04202D280194008286140F6C41181422CBF2E
:2046C000B0F5967F2961504621F08EFA1CF058FE80B1EE6928466FF4807100224FF00073E7
:2046E000B047D4F89400002808BF47F0020701D017F000FA2846AD6900214FF080630A464B
:20470000A84727F000573BE014100440EDD50100FC65002021F0D5F8D4F8AC6066B306F1AF
:20472000280106C90A234FF0E0450B40154008BF002B21D106F1280191E8000306F12805AC
:2047400095E8060006F1280322EA090221EA080183E8060021F048FAB16879B1B9F1000FC9
:2047600008BFB8F1000F09D03069B6F93010B5684B464246A84701E021F036FA27F4804730
:2047800027B104F1DC00394621F0B7F8BDE8FC8700000460527D0200F9310100452501003E
:2047A000693E0200CC2108402DE9F04FADF1840D1B91CB491C923CC9064610A83CC00EC94D
:2047C00080E80E0000248DF84240317F8DF84340B28D8DF84D40D6F828C0ADF844400F46FB
:2047E000ADF85A20F2898DF854706046ADF84A20027802F00303022B8DF8402000F3C38166
:2048000023461D93401C1F9353083CD202F00C0EBEF10C0F0CD053093CBF10F8013B8DF836
:204820004230BEF1080F04BF01238DF84C3001D08DF84C40BEF10C0F0AD0737903F00303ED
:20484000012B0CD142F00C0273898DF8402004E045780378801C03EB0523ADF844305309EB
:2048600011D245780378801C03EB0523ADF8463003784578801C03EB0523ADF8483010F841
:20488000013B8DF8433010F8013B32F07F058DF855301ED0037833F003058DF8413040F036
:2048A0006E8103F0030EBEF1030F00F0688113F0030F00F101000ED010F8013B02F0030548
:2048C000022D8DF8573004BF10F8013B8DF8583001E08DF841401490A0EB0C003F1AFFB25D
:2048E000B942C0F24C81C91B8DF85470C8B28DF84D00074300F04781D00907D370891BF00C
:20490000F3FC002840F03F819DF8402002F00C002146001F08BF01211E91910933D30121BD
:204920001F9180B3B28920F0F9FD904202D1F08D000A0ED220F0F2FD904222D0F08D0146C0
:204940000B0A38BF101C07D39DF8402002F0030C2EE07089ADF85A20804620F0DFFDBDF8C2
:204960005A10884205D0404619F0DBFB002800F00A818648026810A940469047002840F080
:2049800002819DF84020F08D02F0030C01460B0A0ED2D3090CD39DF8413013F0030F07D137
:2049A00002F00C030C2B03D0082B1CBF01231D93DFF8E081BCF1020F00F0C280BCF1010F25
:2049C00000F0908012F0030F40F0DD80704A92F82B20012A03D1B779002F00F0D4809DF870
:2049E000542002231A92040A9DF84250BDF846B0BDF848A09DF855E09DF857C0DDF85090CA
:204A00008DF86430B2899DF84370ADF85C2034D21E9F40461730046897B91D9F1FB11046AB
:204A200010A913F0D9FC1F9800901C9F0197B07C1B9A0290F37C17A910A811F02DFBA2E046
:204A4000307C002C8DF8560000F09D8020F066FDBDF85C20904240F0968030791F9F0090E3
:204A60001C9D01971B9A02951D9B039196F8300010A9049017A8A04785E0ADF830008DF8DD
:204A800020308DF8227034798DF833407189ADF818108DF835E08DF82350ADF826B0ADF891
:204AA00028A0CDF82C90307C8DF836C0B27C8DF8320096F830308DF83420354C8DF837306D
:204AC000B4F8441096F83270ADF824101A998DF8387006A8ADF82A1005F0BEF953E0C0467B
:204AE000D47A02001D9FB58937B1000A04D2284610A913F071FCB5899DF85400B679103077
:204B0000C0B21FF06AF8071C3DD07D81022038703E737C709DF854203A7207F110057D607E
:204B20009DF84000800928BF01247C72149978681FF0E0FE4046007839461AF097F922E08A
:204B40009DF8417040461F30B189036817F0030F10D110A807901048ADF8181006A91DF06B
:204B600073FD80B1062141730068407B21461AF015FF08E03BB110A82246984703E08DF8D6
:204B80004D408DF8544021B0BDE8F08F48530020201900202951002055EC01002DE9F04F35
:204BA000D24CDFF84C93DFF84C83080CADF1140D019180F0D4810846400838BF0020C0F0F4
:204BC000D881676821F000F8054620F08FFC4FF47A764FF6FF726843B0FBF6F081B267B14E
:204BE0003B887888CB1A9BB2984210DDC01A8242C8BF82B2FF68002FF2D14FF6FF709042C1
:204C000000F095802078012120F022FE8FE0B87902287FD020F0D8FF054620F067FC97F858
:204C200038204946684301F10A03B0FBF6F038801878904266DD97F83600FF2808D197F8A1
:204C40003800401C87F8380097F8370087F8360097F8356097F839300020012101E0401CF3
:204C6000C0B283420FDD97F8365001FA00F285F0FF052A42F3D03618814097F83600F6B2EB
:204C8000014387F8361097F83400B98F10FB06F2891A89B28842C7BFFF2087F83600011CDE
:204CA00097F8360099F82320FF2818BF97F83A0006D140460078642510FB02F212FB05F035
:204CC000788046B9388D3E7A40F020003885386C87F82E600BE03A8D4FF6DF70104038854F
:204CE0003D6C87F82E6097F8342012FB06507862F879CEB287F82D0007F110007E8405F042
:204D0000ABF810E0B87E97F82A10FA8BE9231CF06FFB05E0387CFF2802D0B8691FF064F8DC
:204D200038461DF039FA2078012118F003FC019880F001001DE12878012840F00D8195F8D8
:204D4000338095F813A06F6995F83100698802221DF086FE05F11C0405F1020B064600209F
:204D6000002E02907BD1687F400876D3A87FCDF80CA020F0C5FABA4605F11009071C60D0E6
:204D80001C2013F0FBFD061C59D000211C2215F0B2FBA87F69461EF042FF9DF801000221A2
:204DA000307530461EF0DCF96888317DB08095F83100FF22F07102FA01F0707478680078BE
:204DC000307495F83000B07495F8331011FB00F0303080B21EF001FF0746B76127B9304627
:204DE0001DF0DAF900262AE01A20387000237B701A467A80E0885946B880B81D1FF0C4F87A
:204E0000E0783C4BF87303F1200000883882608BB88560897882A0783875207B787599F809
:204E20000000B87599F80100F87599F902003876039A7A76C7F81CA007F13001B962304642
:204E400000E000200028064600F08680274886F808800078012118F06DFB002E7CD0307A45
:204E6000A8EB0000B0F1FF3F04BF01200290307CFF285CD06078400828BF4FF00008317D4F
:204E8000F07C4018404503DCF074FF2088407074B069B17C227D806A08FB010021691FF04F
:204EA00029FD029F317D727C012398FBF1F04843A8EB000003FA00F11143C9B27174DFB1A7
:204EC000401CFF2202FA00F001437174B769B17C207D08FB0100B884707CFF280CD1307C7A
:204EE000B16919F0C3FFFF20307420E0D8540020E84E00204419002020F066FE074620F01A
:204F0000F5FA1D4B1D4A4FF47A717843B0FBF1F0308093F8231010781F4610FB01F1B87AD4
:204F20006423401C10FB01F010FB03F07080F17C327DA8EB0100801AB0F1FF3F04D0707CBB
:204F4000FF2801D0029F3FB1E175707C2076BBF80000214613F040FA28461EF045FF084889
:204F6000007818F0B9FA051C7FF4E5AE019880F4004005B0BDE8F08FE84E002044190020DE
:204F8000D85400202DE9FC41CE4C0D46CE4ACF4B94F83E601178401E072800F2B881DFE8A1
:204FA00010F0970170010B01ED00C90080004900080005208DF8010094F83F008DB394F813
:204FC0002300002784F82000394684F8237042F208000BF00DF90D2694F83F0084F83E6008
:204FE00000F0DF0084F83F0004201FF0FBFC94F82000394606280BD1606948B1027BD309AD
:2050000003D302F0BF020121027340690028F5D16078002900F079814FF480414FF47A72BB
:2050200071E140F02000022784F83F003E4684F83E706CE10026012D8DF8016017D020F0BE
:20504000D3FA78B1052094F83F708DF80100314647F0200084F83F0008200BF0C9F80A20DD
:205060001FF0C0FC022084F83E00064614E0082031460BF0BDF804201FF0B4FC15F028FBEF
:205080000D2084F83E00607884F820600421C82220F0DEFB94F83E6094F83F0000F0EF0089
:2050A00045E003208DF801000EB9012020722078002840F04F81627860691FF040FE0028D0
:2050C00040F0488110464FF480411BF08DF9002840F040810025A561E5611DF0F5FD60788B
:2050E0004FF4804118F08CFD277A94F83E602FB10B2E03D1284684F83E002E46257294F8A4
:2051000020106078062906D094F82300062808BF84F8235007E084F820500421322220F093
:2051200097FB94F83E6094F83F0000F0F70084F83F00ECE00221012D8DF8011004D0082097
:20514000002584F83E000DE00025184684F83E500088D0852E32832020F082FA03212846F8
:205160001CF03EFB607884F820500421322220F06FFB94F83F0000F0FB009FE001208DF858
:20518000010065B100201F8884F83E000221D7852E32832020F064FA06201FF023FC002013
:2051A00084F8200060780421322220F051FB94F83F0000F0FD0081E0012918BF022940F031
:2051C000A68060780421322220F042FB94F83F10606A012D49D0022084F83E0000268DF898
:2051E000046084F8206001278DF8017021F0020184F83F10522001A91BF072FE1FF0D6FFD7
:205200001BF050FE1CF02DF8534D686820B168681BF00AF92E806E60DFF84081D8F80050B1
:205220007DB128686F68006A1BF0FEF828681BF0FBF868691BF0F8F828461BF0F5F83D1C55
:20524000EFD1404606601EF03FFF4548007819F0EBFB30461FF0C6FB606A002855D01CF0F9
:20526000B5FC606A0028FAD14FE00121002884F820106FD01CF0AAFC606A0028FAD1BDE848
:20528000FC8100201FF0D2FE042601208DF80160D0733DB1002084F83E0084F83F00062075
:2052A0001FF0A0FB002084F8200060783146322220F0CEFA94F83F0000F0FE0084F83F0099
:2052C00023E0C046D04F0020E84E002064190020012918BF02291AD1012D24D0012007270B
:2052E0008DF801004FF48051607884F83E7018F087FC00201DF018F9002084F83F00607896
:20530000022141F2883220F0A3FA94F83E60A76A07B38DF800600A20002103226B461AF0CB
:2053200011FEBDE8FC81002003211CF059FA04213222607884F8201020F08AFA08200021BF
:205340000AF056FF002084F8210060784FF4805118F056FCBDE8FC812C550020345500208F
:20536000201900202DE9F04FB74D014695F83F0021F03101ADF1340D00280B9140F0688169
:20538000687804211BF030F8002840F05F810B99AF7895F83F0001F03F01012F40EA01007A
:2053A00085F83F00014600F03B810120A8701FF025FB012805D156201DF062FD08B120F02C
:2053C000E7F9B34C00202071E06808B11FF0F2F8B04847680023A24680467FB10C2478688B
:2053E00000781FF0ABF9061C05D0327C1AB10020824200F31E813F68002FF0D118461EF099
:205400003FF8002859D1D8F80470002F55D0786800781FF093F9061C4CD0337C002B49D047
:205420004FF0000844E074690C2018FB00F94C44E079C00838D3786800788DF81400208897
:20544000ADF81600A088ADF81800079A089B069905981AF0DDFDB0B90DF1240B002104226B
:20546000584615F048F874694FF6FF700090CDF804B00A23029302460392CDF810B034F85F
:2054800009104C440AE002681189D388009102F10A00019002930391049021887868A2888B
:2054A000007814F0EDFC337C08F101005FFA80F84345B8DC3F68002FA9D19AF80200DAF83B
:2054C0000C20162410FB04F081B2562020F0C2F80AF10C060A282BD0092825D01FF06AF823
:2054E00056201DF0CDFCB0FBF4F0C7B238461DF0C7FF01281CD0336814FB07F082B20021FC
:2055000056201FF09DFD8AF802700DE041680468CAF814101AF088FF9AF81000401E8AF87D
:20552000100020461AF080FFDAF814000028EDD106F0F6FD1FF03EF805F1420355200021A1
:2055400001221E461FF07CFD3078012866D152480078012818BF022843D1504804680021BF
:2055600020461FF020F900283BD11FF059FE002837D120460AA905AA14F07CFF04469DF8AD
:205580002400FD282DD002282BD0032C4FF0000715DA05A83946142214F0ADFFFF202146A4
:2055A000142205AB8DF8240004201CF02DFC3C49A00000EBC4000F5009184F604F7285F8C2
:2055C000427055200121324620F04AF8FF2003211CF006F9687885F82070042117F0AAFFA8
:2055E00053E095F83F000B99072440F0100001F03F0185F82040014385F83F100020014618
:20560000FDF784FE10B910F0EDFC3EE000201CF08BFF00212046FFF7B5FC36E095F83F106E
:205620006878002904BF072485F82040F1D00027D1E7716910FB0411C979C90824BF5B1C8F
:20564000DBB2401CC0B2D3E6D04F002095F83F0095F82170CFB9810917D295F8427077B1AB
:205660000B9989080BD31EF097FF04200121FFF789FC0B9995F83F0081F002010B910B998E
:2056800001F03F01014385F83F100DB0BDE8F08F645F00201C550020E84E0020305100207D
:2056A000A04E00202DE9F04FAB4CDFF8B082DFF8B0B2ADF1340D60780591090C66D2059817
:2056C000800805D30120059FE07087F0020077E10598000938BF0020C0F0728158462E3028
:2056E000A76A00780026B146000922D220F06CFA05461FF0FBFEE36A4FF47A714246684390
:20570000B0FBF1FC92F82510128EACEB0300824238D8B0FBF2F39BB29942ACBFDDB20D1C49
:20572000B0FBF2F15143401A80B2ACEB0000E06200E00125EFB1C846F878A8420ADD401B92
:20574000C0B2F87040B109F101061FFA86F93E467F680CE087F803807868002E82460CBFEB
:20576000C4F828A0706038461AF05EFE5746002FE2D16078B9F1000F04D10021E16208217F
:2057800018F03EFA059880F0080019E117F0A4FE071C00F01281B87FC0B9788CA56A13286D
:2057A00015D1B7F80290281C11D000260188894508D14568002E0CBFA56275601AF034FE89
:2057C000284601E0064640680028EFD1A56AB87A97F831102E46022855D1788866B1DFF8DB
:2057E000E8C13288904204D1B2789CF80030914247D07668002EF4D181468A464646002DA6
:2058000008BF002004D0012015B16B68002B34D1718E814237DD082013F0B0F896F8251077
:20582000002830D0A0F8009080F802A0C17000234360A36A83B9A0629BF82E00000911D20F
:2058400020F0C2F905461FF051FE4FF47A716843B0FBF1F0E06200E06860584690F82E0031
:20586000000910D3607808211AF0BEFD58B96078328E08211FF0E9FF05E0401C1D4680B2D7
:20588000C2E7F37096E0514805683878012806D0022840F08F80384616F04EFE8AE007F136
:2058A0001004B81CBE8908943B7E0690FA7C07967969099397F819B00A923C7F0B9107F1FA
:2058C0001C0604F00C000C280DD0B87F4FF0FE09FF2804D01FF014FD041C10D16AE0002D85
:2058E00068D06C680FE0B088FE211BF09DFD8146B9F1FE0F5ED01FF003FD041C5AD0207814
:205900001EF03CFE05464FF6FF7A0BE020781EF035FE054606E0B078FF284BD12D68002D14
:2059200048D06C68002C45D0AB68AAF1010823B9A3680BB1B3F8028007E021780220984732
:2059400018B1B0F800801AF06FFD3389227898450AD03AB943B11CE028510020E84E002001
:20596000201900209A4514D196F80280B27008980090099B01930A9902910B9A0392CDF83B
:2059800010B0079B069A3046214611F039FA86F80280307800F00C000C28BCD1B0884946C8
:2059A0001BF042FD8146B9F1FE0F03D01FF0A8FC041CABD138461EF017FA059880F400400F
:2059C0000DB0BDE8F08FC0460D4F002020550020F0B50E467068ADF1140D002800F0838123
:2059E000B068002800F07F810025C14C7268757004F10C00177803783FB1B06801210170E0
:205A0000284603B10846B16848707068637B877847B1B06801210171284603B10846B16863
:205A200048717068C7785FB128461FF09BF8B2680121800B917138BF291CB068C17170684F
:205A400007793FB3B06801230372B0680C301FF089F8B1680882184616F05AF9B168486123
:205A6000022016F055F9B1688861042016F050F9B168C861082016F04BF9B16808621020D4
:205A800016F046F9B1684862202016F041F9B168886270684779618D37B1B068012280F85A
:205AA0002C20B068C18570688779A18D37B1B068012280F83020B06841867068C779E18DE6
:205AC00037B1B068012280F83420B068C1867068077A61783FB1B068012280F83820B06833
:205AE00080F839107068477AA1783FB1B068012280F83A20B06880F83B107068877AA17A67
:205B00003FB1B068012280F83C20B06880F83D107068C77A21793FB1B068012280F83E20F5
:205B2000B06880F83F107068077B61793FB1B068012280F84020B06880F841107068477BD4
:205B4000A1793FB1B068012280F84220B06880F843107068877BE1783FB1B068012280F86D
:205B60004420B06880F845107068C77B37B3B068012111226B4680F84610294681201FF0CD
:205B80005FFA9DF80000B16881F84700B26892F8471089B112F0F2FEB1688864B268906CFC
:205BA000002808BF82F8475006D09DF800200DF101011EF09FFE00E095647068007C80B151
:205BC000102012F0DBFEB1680865B168086D40B1012081F84C000B6D1022622029461FF025
:205BE0002FFA7068616B477C37B1B068012280F85420B06881657068877CE17A3FB1B068CA
:205C0000012280F85C20B06880F85D107068C77C57B1B068012180F85E103649B06808226C
:205C20005F301EF067FE7068077D67B1B068012180F867101FF0ECF80146B06808226830B1
:205C40001EF058FE7068477D87B152200DF111011DF0B2FB9DF81170B068012180F8701088
:205C600007B92946B06880F871107068877D3FB1B068012180F87210B06880F873507068B9
:205C8000C77DE37957B1B06801212A4680F8741003B10A46B06880F875207068077E217A95
:205CA0003FB1B068012280F87620B06880F877107068477E5FB1B06801210F4F80F878104F
:205CC000387800B10D46B06880F879507068807E58B1B068012180F87A1019F0CFFDB168AE
:205CE00081F87B0001E00220707005B00120F0BDE84E002079190020155500202DE9F04F63
:205D0000BC4C20780D46290CADF13C0D80F05081A90B80F02581690880F01381A9094DD223
:205D2000B54E3078A90834D23089A90A14D2280904D30120207185F0080057E1E80A09D372
:205D400015F0ECF8B4F84400012114F0FDFC85F480604BE1002049E1B4F84480A4F844002C
:205D600006F1080150201BF0BBF83789A34C04266089804505D0874204D020461EF054FD37
:205D800000E06781761E04F11C04F1D185F400702CE140B9618F01201DF0E6FA2078012129
:205DA00017F02EFF07E068461FF004FD1FF0AAFB694617F035FB85F0020017E120211AF0B6
:205DC00013FB20B9E068002808BF012615D01FF0FBFE06461FF08AFB4FF47A717043B0FB25
:205DE000F1F1E068002808BF002004D088428CBF4FF0FF30081A460869D0002004211EF017
:205E000053F9071C63D04FF0000B4FF0FF094FF0060A384604211EF047F90E9038898642E8
:205E200004D8801B83B23B8113B14DE0A7F808B0BB7B012B02D17889C0083ED3002B39D06F
:205E40008DF800908DF801904FF0FF308DF802003968086AC97F01AA0CF05AF8D846012887
:205E600008BF4FF001085FEA08001DD0788A40F08000ADF83200B87B8DF834007889000956
:205E800008D3BDF8320040F48070ADF83200387B8DF836007B6913B1187BADF81400694634
:205EA0005A4601A8FEF780FC87F80DA0387B14F0A7F809E00120787306E087F80DA03868FF
:205EC000407BB72119F06AFD0E9F002FA1D112F00DFD2378002001211EF0E6F818B1184675
:205EE000202117F027FB002004211EF0DDF8B3B270B1078926781EF0D7F8E8B9BB42AEBF74
:205F00000027FF1ABFB2304627B9202117F012FB00200DE07A0020211FF09AFC1FF054FE57
:205F200006461FF0E3FA4FF47A717043B0FBF1F0E06085F0200059E00289BA42D8BF171C5D
:205F4000D9E794F84C000F2807D194F8460020B1012802D000201AF097FE85F0010045E0A2
:205F60001FF0AFFC264E8046301D0068074690B157F80C1C207821B94FF4005116F0A4FBC8
:205F800003E04FF4005117F0D5FA304639460022001D1CF008F840461FF026FE2FB138465D
:205FA000FDF716FF38461DF01FFF85F400501DE017F092FA071C17D0124908310A78FF2A8D
:205FC0000FD03C780B460020944207D0401CC0B2C200D1189A5CFF2AF6D102E049683846A0
:205FE000884738461DF000FF85F400400FB0BDE8F08FC04620190020B4190020041000202C
:2060000034550020647702002DE9F04FADF1440D0B908069007800210DF12A020F909C2014
:2060200016F0EEFAB54D287830F0010009D1002004211DF0E5F85FFA80FA9DF82A00504480
:2060400002E001204FF0000A8DF82A000F989DF82A10884280F2DE809DF82A000F99401A74
:20606000C0B20D900228C4BF02200D901A2110FB01F000B212F082FC0E90002800F0CD8039
:206080000F980D9F0E9C0C90002F08BF002074D04FF00008B946012645460C9882450ADCC4
:2060A0000F9940468A4504DAA1EB0A01C9B20C9163E00C9561E0411CC9B20C911DF0B4F803
:2060C000071C54D08E480146B0F8440059312080A01C1FF0DEFB388860820223E375FF2262
:2060E0002276B87A60768DF81C503888ADF81E0007A814F039FAAB46012808BFB34604F1D7
:206100000A00BBF1000F06D104F10A00FF21082214F0F1F902E008A91FF0BBFB3B797BB96C
:206120003F88002F04BF2575281C04D07448267590F85800401E207602206075A57515E0C3
:206140006F4890F85800401C20763879032804DB26753879032805D106E002202075387960
:20616000012801D0667500E06575A6751A34B9F1010908F1010890D140460D9981424CDDF8
:206180000D9DDFF87CB104F1020804F10A0702264FF0000A4FF001091A3C2D1A0C998720A9
:2061A0006A4616F02DFA5849BDF80A0024F81A0F40461FF06EFB0DF1020138461FF069FB6D
:2061C000BDF800004D4B6082187830F0010003D16675A675FF2006E084F8159084F816A0BD
:2061E0009BF85800401E2076E675638A9DF81200002B60760CBF84F814A084F814900C9811
:2062000008F11A081A376D1E00F10100C0B20C90C4D102E000200E900D900B98417C0D9FA9
:206220000E9D8DF82B10801C16210B9017FB01F0001DC0B28346401C12F0A0FB5FEA0008E0
:2062400054D008F101040020A2468AF800009DF82A000F9F88F802000D9E88F8037088F885
:20626000046096B30D9F2E46241D06F102090A36204649461FF00DFB0834314620461FF09A
:2062800008FB0446A87C04F8010B688A001204F8010B287D2070697D40EA8100C0B22070B1
:2062A000A97D40EA011004F8010BE87D04F8010B287E04F8010B687E09F11A091A367F1E6A
:2062C00005F11A0504F8010BD2D10E4D0B990DF12B0048F231025B462C1DC4F800A015F01E
:2062E000C3FF40461AF0A0F809346C600E9808B11AF09AF811B0BDE8F08FC046E84E00206F
:2063000020190020344E0020791900202DE9F043B24CB349A064B3480A78E064B248A270BC
:20632000891CE063B148A163ADF11C0D606202A81EF086FF002002AA01460DF039F900214F
:2063400002AA606301200DF033F92063406800781CF092FF18B9606A80471EF021FEA44DC4
:20636000206B29461FF065FA606B29461FF061FA0DF0FEFF9F49A062012204F18C0019F080
:20638000F1F8A06A80461CF063FF002840F09B80994E3068002800F09680984D286B4FF0FF
:2063A000FF311EF0FAFED5F830C000204FF0FF3305F18C0E024671464F6837B90F6827B9CC
:2063C000B3F1FF3F08BF131C03E00F68B74277D0401C521C0831042AEEDBB3F1FF3F6FD030
:2063E000D90001EB0E02C2F8048000284EF801605CDDDFF80CC2DFF80C9201280FF23C18EA
:2064000023D12B6A61468B611A68D9600A6000230B752F6A0B619E4681F815E0397A01226B
:206420000C2311FB03710A72397A11FB037181F809E0296A0A7A474612FB03114F60296A95
:206440000A7A4F4612FB0311CF60C6F80CC0317A82004FF00C0E02EBC002002311FB0E6770
:2064600062440121397201289661317A13614746137511FB0E614B72317A537511FB0E612F
:206480004F60317A82F821304F4611FB0E614FF00206CF602EA7D7615B4F82F820606646F4
:2064A00057621ABF307A401C032030722E62EE61307A401E6862002009F0F6FA286B00E052
:2064C00060461FF012FAA06A04F10C0225A10CF0B5FB0CF09FFDA06A04F1100226A10CF010
:2064E000ADFBA06A04F1140228A10CF0A7FB0CF0E9FFA06A04F1180229A10CF09FFBA06A11
:2065000004F11C022BA10CF099FBA06A04F120022DA10CF093FB68461EF000FE0120694609
:206520000BF0E6FBE062002004F084F9002014F093F8A06A07B0BDE8F083C0463C20202082
:206540002020204241434B2020202020203E00C03C20202020202048454C50202020202047
:20656000203E00C044657669636520496E666F1B37311B3800C046C02020204E574B2049AC
:206580006E666F1B37311B3800C046C02020204E574B20496E666F1B37321B3800C046C083
:2065A0002020205A444F20496E666F1B37311B3800C046C020202042444220496E666F1B57
:2065C00037311B3800C046C0202042696E6420496E666F1B37311B3800C046C050180020AD
:2065E000501A0020E21A002089410200678E01006941020049290200844F00200C410020B3
:20660000F0610020C14D0200D11A0100F0B50E467068ADF1140D002800F062810027716882
:206620007770B24C087858B1487800280CBF381C01202246012110730C3263201FF010F8DF
:2066400071680D7965B14879224600280CBF381C0120012150730D326D201FF001F87168A2
:206660008D79ADB90D7ACDB1088A10F0070F02D0CA68632A12D9C96811F088FD384601212E
:2066800009F0B6FD9A4A352028211EF0E9FF04E0C9794FF4005009F0ABFD71688D7C45B1A4
:2066A000888A22462A320221108044201EF0D8FF71688D7D45B1088B22462C320221108023
:2066C00046201EF0CDFF71688D7E45B1888B22462E320221108083201EF0C2FF71688D7FBB
:2066E00045B1C87F2246521C0121107029201EF0B7FF716891F820504DB191F821002246F6
:20670000921C012110702B201EF0AAFF716891F822504DB191F8230022460A320121107063
:2067200043201EF09DFF716891F824504DB191F825002246121D012110702E201EF090FFA6
:20674000716891F826504DB191F827002246521D012110702F201EF083FF716891F8285081
:206760004DB191F829002246921D0121107030201EF076FF716891F82A504DB191F82B004F
:206780002246D21C012110702C201EF069FF716891F82C50A5B191F82D20102A8DF8002056
:2067A00003DD10208DF800000246096B0DF101001EF0A0F8812011216A461EF051FF716829
:2067C00091F8345055B191F835001028C8BF10208A6B014662201EF043FF716891F83C50FD
:2067E00045B1086C224634320421106084201EF037FF716891F844504DB191F845002246BA
:206800000B32012110704B201EF02AFF716891F8465065B104F138054731082228461EF099
:2068200069F8472008212A461EF01AFF716891F84F5035B101F15002012008211EF010FF3E
:20684000716891F858504DB191F859008DF811000DF1110152201AF043FB716891F85E50DE
:2068600045B191F85F00234A0121107033201EF0F7FE716891F85C502DB391F85D00E51DFF
:2068800001212A46287032201EF0EAFE3220394601222B461EF0D4FB04F108033320394672
:2068A00001221EF0CDFB1448E1790078012904D04FF4006117F0A4F904E04FF4006164225D
:2068C0001EF0C6FF716891F860705FB191F861000A4977680A4D087097F86100287001E04F
:2068E0000220707005B00120F0BDC046E84E0020001A0020F04E002020190020155500203C
:20690000A81900202DE9FE4F0D46074628687C68BE6800283AD01EF0D4FFD4F8F81081464B
:206920000120019008294FF0000088BF0198A968084202D16968084205D0019880F001002D
