:20000000003A012035DD010039FB021039FB021039FB021039FB021039FB021039FB0210CE
:1C00200039FB021039FB021039FB021039FB021039FB021039FB021011FB021002
:200040002DE9F04FB84EB01CADF15C0D00780E91090C1BD20E98C00B38BF0020C1F0638439
:20006000B04C04F10C00006858B107463D69384625F0A6FD384620F0BFF92F1CF6D1002071
:20008000E0600E9880F4804001F04DBC1DF0E2F900280F9001F044840F9F0020F2783978FB
:2000A00010900846D22810DCD22801F02E841A3801F0C5831738052841F227849F3801F022
:2000C0002484401E01F0AB830CE0D33801F01A84401E022841F21984293801F08183401E69
:2000E00001F05683AD4C3D4601224129DFF8B082AF7894F8420011924BDC412900F0B886CD
:20010000122923DC122901F01482072910DC072901F0CC82002901F0E882891E01F0D282E8
:20012000491E01F02E83491E01F0278301F0EDBA083901F06482491E01F05C82C91F01F0F5
:200140005082491E01F0108201F0DFBA2B2910DC2B2900F08487143901F00A83091F0A29A4
:2001600051D9103900F09187891E00F07D8701F0CCBADFF8F4C22C3900F00D870E3900F045
:20018000A786491E01F0E982491E01F0E28201F0BCBACD2924DCCD2901F0B9824C2910DCD3
:2001A0004C2900F0F885433900F05086891E00F02F86491F00F01286491E00F0F68501F01C
:2001C000A4BA4D3900F0DB855339072928D90839012941F29A82891E1A292BD901F095BA46
:2001E000CE3900F03783093900F0A381491E6AD013394CD00E3944D0491E3DD0491E36D0B3
:20020000491E01F082BADFE811F085097809800A55092409800AAF0AAC0A5A082F08530772
:20022000DFE811F0930A8F0A8B0AA705870A830A7F0AA205DFE811F059052605FC04EB04F1
:20024000E004CE04C404BC04B304700AAB0491046A0430040A04FD038A037F037503690A41
:20026000690A690A48032803690A690A18036F68002F00F0CE8408E06F68002F00F0C984AE
:2002800003E06F68002F00F0C4841220CFE36868007868B9DDF84080404623F025FA4FF460
:2002A000005041460FF0A4FF1AF0F6FD01F06DBA4FF6FF7023F018FA11994FF400500FF09B
:2002C00097FF01F062BA68681295002800F0A18400681390807E23F0BBFA061C08BF0220EB
:2002E00000F00D811398109DC7694FF003092C463878A04200F305810F2410FB04F0401CA2
:20030000C0B2401918F03AFB5FEA000800F0F6801FF0DEFD002840F0EE80109D159588F897
:2003200000504EE0AC540020145500201399032315FB03F6BA1991F81AA0B1F80C90528886
:200340000F2015FB00845046494621F071F8BA195288834608AB50461EF05EFF641CBBF1E5
:20036000FF0F1FD0F0B1AA489DF827300168D80838BF8C2017D39DF826001623207103FBA8
:200380000B10C18800F10E02A4F805100189C4F80B201598A4F8071005E0C046D04F00204C
:2003A0002019002086202070B8194078BB1960705888608098F800006D1CEDB2401C88F82D
:2003C00000003878A842B1DC1398817E474600F10E064FF00F0985893A78109190F80AA0D0
:2003E0001396159914950C468A4267DC204625F0B4FA061C5BD0159D024641E015FB09F002
:20040000391838184078491C02F8010B487802F8010B887802F8010B4888001202F8010B64
:200420000B785BBB4B780BBB087902F8010B487902F8010BB1F80500001202F8010BC87945
:2004400002F8010BB1F80700001202F8010B0879834624F0FAF988B1D1F80B10584613F0BF
:20046000BBFB02460AE0C046344E0020487A02F8010BB1F80900001202F8010B6D1CEDB232
:200480003878A842BADC159900911198019002900391CDF810A00594149A069610980791F5
:2004A000139909230BF0D8FF304625F093F938461FF0A2FF24F066F8159820E011FB09F326
:2004C000F818FB185E78241DA4B2401C86B9467866B90079834624F0B8F9641DA4B238B14D
:2004E000584618F07BFC001984B201E0A41CA4B2491CC9B278E740461FF07EFF1020109078
:2005000013E114FB0972139930785288898908AB1EF082FE50B19DF82600014624F095F937
:2005200020B1084618F05AFC2D18EDB2641CE4B2DEE668681295002800F06B8300681390F8
:20054000807E23F085F9002800F081811398D0F81C8098F80070002F00F07981B800401CB6
:2005600018F00CFA0028149000F06F8124F0B8FE1FF0AEFC002840F06581109E16961596FB
:2005800098F80000B04200F3E5801698012840F08D80C84DA878EA68162111FB00F081B280
:2005A000562025F03FF805F10C0640B9A8783268162111FB00F081B2562025F039F86078C4
:2005C00080211DF0DBFA2F78B80018F0D7F9B846169000286AD02E78B8F1000F0BD005F12C
:2005E00018014A7842704A8811F8144B42807F1E00F8044BF5D1002E3ED0DDF8409037466A
:200600004FF0140BCA46AEB305F1180412E0C046705F0020002808BF564607D04168066899
:2006200021611FF0E9FE207B401E207330461FF0E3FE2E7820690028ECD1761EF6B216FBEF
:200640000BF2A0184188618041786170C188E1808188A18001890C30218109C804F10C01A2
:2006600081E80900105D2070A318C3F8109083F80CA02E707F1EC6D10BF052FDB8F1000FFA
:2006800011D0169C183547466078618821F06CFAFF2804D02678810001EB00116E547F1E3F
:2006A00004F10404F0D116981FF0A6FE15981499087018B910984870119F0F70139890F8B6
:2006C0001AA00C4600F10E098689857A2078042110FB01F0804625F040F9071C1ED00146D3
:2006E00010982278824222DC012A03D164780CB9DDF8448010990091119801900290039123
:2007000004953246CDF81480072306975046079149460BF0A1FE384625F05CF814981FF0AF
:200720006BFE23F02FFF21F0CFFE109890E08200A3185B780B70A3189B784B70A318DB78F7
:20074000A2188B70B2F80320401CC0B21212CA70091DC6E7139B9F890E2016FB00856D1CF5
:2007600093F81AA0B5F80190394650464A4620F05FFE834608AB50461EF04EFDBBF1FF0FBF
:2007800048D0002846D02F78002F58D19DF82600E97888423CD19DF82700C00836D3BD487F
:2007A0000168A8884FF6FF72824201D1EF88B7B1162202FB0B17F880E8883881E87824F009
:2007C00044F800B310990E370422384619F051FEE87818F003FBD5F80A5002460FE0162046
:2007E00000FB0B156889042205F10E07E880A88910992881384619F03CFE12350422384625
:20080000294624F05FF81198169018E08C2102E08D2100E08721159BDDF850C098000CEBCE
:200820000002517029780CEB00075B1CB970DFB2B5F8011015970CEB0002A2F80310761C83
:20084000F6B29DE614981FF0D7FD102000E00220129D63E06868002800F0DB81686800683E
:2008600021F09CF900F00FBCAF68002F00F0D181109C6C7030B12046014602F047FD00281B
:2008800000F09481119C91E16F68002F00F0C1811098687069680F7877B984F8460094F8A6
:2008A0002100401E84F821001198014620F0F8FD00F06BBF645F002024F084FE11980146A4
:2008C00004F060FB00F061BF6868002800F0A181067847681099082208A819F0CAFDE7B197
:2008E000C44810990170AEB1761E0ED0761E0AD0761E03D0761E10D111990170384608A96D
:2009000015F016FB0AE011990170384608A91FF023FB03E01EF038F900E002202C4610902A
:2009200079E06868002800F07481686800F112011FF012FBA7E36868002800F06A816A6862
:2009400010785188928813F065FB9CE32C466068002800F05E8106784588B0F804B0B0F8BA
:2009600006A0B0F808900A301290C5480779002F5BD0C2490F68002F55D0804678680078DA
:2009800086424DD123F0C2FE002849D0027C002A46D04369002B43D010980C27824242DDF7
:2009A00010FB07F1595A8D4237D10E2017F0E6FF071C3AD0109807F10A0104235B1E01F81F
:2009C000010BFBD1B880FF2139704FF6FF737B803881F8803E707D800422A7F804B012998C
:2009E000A7F806A007F10A00A7F8089023F06AFF082017F0C3FFD8F8141018B938461FF0BA
:200A0000FBFC12E007604160C8F8140098F81000401C88F81000109808E0401CC0B2BDE783
:200A20003F68002FAAD1022000E0119825461090D2E16868002800F0EC8010986870686858
:200A40001AF0F0FDA968088000F09FBEAF68002F00F0DF80109868702678AD686178002EEA
:200A600005F1010708BF28700FD0084640211FF0A3FC4FF47A710F2300F2E730B0FBF1F1E7
:200A800016FB03100F3828702678002F00F07D863046ACE0705F0020A968A28F94F83F3065
:200AA00094F83E6094F84070D4F838C094F841E094F8438094F8449094F845A094F846B0BD
:200AC000002900F0A68010996970A9680A81A968CB72A9688E72A9680F73A9688873A868AB
:200AE000C0F804C0A86880F80DE0606BA9680860A86880F80F80A86880F81090A86880F8FA
:200B000011A0A86880F812B000F03FBE6F68002F7FD0109868706868077D17B1C07C84F844
:200B200045006868877D17B1417D84F84610077C17B1C089A0876868077B17B18068A06384
:200B40006868877C1FB1407C84F84100686807790FB10068606300F018BE1099697070B1D5
:200B600094F83F0080090AD208A8082219F081FC24F004FB08A81FF0BFFB00F006BE24F091
:200B8000FDFA4FF4FA7023F0B7F900F0FEBDA86800283ED01098687024F06EFD26E0CA48E6
:200BA000AF680478002F34D01098687020461DE0686800282DD0686800781EF023FA62E2E0
:200BC0006F6837B3109868706868007804F0CAFB00F0DBBDA868E0B1109868701EF0A6FD79
:200BE000002808BF11983FF422AF0078AF68387000F0CBBD904E00206F6857B1109868704D
:200C00006968088889781DF0F1FB00F0BEBD686808B902200BE7AD4C6968082204F10C0074
:200C200023F050FE686801896180807A2070EDE06868002800F02B820188ADF830104088F6
:200C4000ADF832000CA9532020F032F950200DF1320120F02DF9E1200DA922F095FB68685A
:200C60009DF834100079884200F0B6808DF834000DA9E12020F01CF9AEE0C0462055002074
:200C8000645F00206868002800F00182007820F067FE4646686896F838104078884213D082
:200CA00086F838000DF13501E12022F06DFB68689DF835104078884206D08DF835000DF115
:200CC0003501E12020F0F4F86868119C407804FA00F0B06423F010FC10988046A6F890806F
:200CE000204621F0B1FC4046A1E66F68002F00F0CE817C884646F486387886F846007B89FC
:200D0000387A738786F838007A68B264B989A6F84410B87B86F85800F87B86F82500387C72
:200D200086F823007C693465B86996F892107065387F884201D020F013FE6968444604F1AB
:200D400059001D3124F08DFD94F8460004F12006082841D121207421324624F069FC1098B0
:200D6000022120F025FD37E06F68002F00F08F8103E06F68002F00F08A81122088E16868B2
:200D8000002800F084816A6810889178D27820F0D1FE8046A7E76868002800F07881686895
:200DA000017A427A1CF04EF96DE16868002800F06E8140788DF82000686880788DF82100B9
:200DC0006868007823F0C2FB002800F060810C3008A9022223F076FD109859E1696800298F
:200DE00000F05581A868002800F05181087808A922F0FDFE6868A968007808709DF820006F
:200E0000A96848709DF82100A968887010983AE16868002800F03B810A30077807B9109AC0
:200E200047780FB142F0020287780FB142F00402C7780FB142F00802007908B142F0400225
:200E400069680888891C20F09FFA1CE16868002800F01D8102208DF8280068680088ADF894
:200E6000200068688178C27808A81CF037FF0AE16868002800F00B8102208DF8280068685F
:200E800001884FF6FF70884205D0821E8A4202D0C01E88420BD124F029FBADF820006868E7
:200EA000C27A837A811C08A81EF0CEFF687068680088ADF820006868C27A837A811C08A886
:200EC0001EF0C2FFDFE0C046C0520020185000206F68002F00F0DB8002208DF828006968D3
:200EE0000988ADF820106A681379B2F80680167AD2F80CB0177CD2F814A051886446221D15
:200F0000146810930346F21912FB03F00F305FFA80F9B9F14E0F3CDC24F0E8FA884236D167
:200F200021700812607023F05BFFA41C0146204624F097FC04461098207084F801804FEAFD
:200F40002823A370E670241D66B15846A41E017804F8021F30F8021B761E4FEA212161706A
:200F6000F5D1A41C27705FB1641E5046017804F8021F30F8021B7F1E4FEA21216170F5D1A2
:200F8000B84808A920224B461BF02CF980E018467EE010207CE06F68002F78D002218DF8FF
:200FA000281068680088ADF820006868E146428883888679D0F80880077BD0F810E0D9F8B6
:200FC0000400F41914FB01F1891D5FFA81FCBCF14E0F42DC9DF828100F2918BF022908D17B
:200FE000BDF820404FF6FF71A14204BF891EADF820104FF6FF71914208BF8A1E00F8012BEA
:20100000111200F8011B00F8013B1C1200F8014B00F8016B66B14146801E0A7800F8022FA8
:2010200031F8022B761E4FEA22224270F5D1801C07705FB1401E71460A7800F8022F31F8C5
:20104000022B7F1E4FEA22224270F5D1484608A9062263461BF0C6F8E9E41020E7E46A685E
:20106000AAB10220052217E0686880B102208DF8280068680088ADF82000686841880279D4
:2010800008A822F049FF68707FE3686810B902202C46E5E0022002468DF8280068680088AB
:2010A000ADF820006868418808A823F033FAEAE72C466368002B00F0D280187D23F08CFA39
:2010C000002800F0CC809D691C331F78002F0CBF109802205F780FB140F010009F780FB14E
:2010E00040F00800DF780FB140F020001F790FB140F040005F790FB140F0800082466068B1
:20110000007D24F0E5F85FEA000800F0A8806068807A8DF8290060688089ADF82A00606820
:20112000007802288DF828000CD001280AD00F2808D003280AD1616808A80822891C23F011
:20114000C1FB03E060684088ADF820006068877B002F73D0780017F011FC061C08BF1020BA
:201160007ED010996068877B8F4261DCC18A838CCDF84880826A16950C2F139190F8229009
:201180001493BDF8208015924CDA40461CF01AFA0C2816D14FF6FE701CF014FA0C2810D1E3
:2011A000DFF808C3119910989CF82C310CF59A7C1CF8082B9342C4BF131C081C491C0C29A7
:2011C000F6DBBB4D4FF6FE7305EBC00568686B8018B11FF011F91098686077B14FEA470B0B
:2011E000584617F0CBFB6860002808BF10201AD0686831465A4623F065FBA5F80280C4482E
:201200006F70159B0078169F287012990093139A019708A8CDF808A0149BCDF80C9009F0D1
:20122000D5FD00E00220607030461FF0E5F8ACE200694A00105A491CB05293E7816A0091A0
:201240000195CDF808A090F822100391C28A838C414608A809F0BAFD25461090D6E5022013
:2012600025469DE1344E00206868002800F04781007823F0B1F9071C00F04181387B1DF069
:201280009BFE0028687040F0808274683D46002C00F07B821098274617B9BD4202D074E2FF
:2012A000BD4209D1AC4219BF2968016028687060284624F083FA68E238463F68ECE768682C
:2012C000B846002800F01B81007823F085F9002840F0BD8023F09EFB052880F26081109FE3
:2012E00040466F7023F06AF9041C01D0237B73B11C2017F043FB041C00F0478239461C2249
:2013000019F0B7F884F80480DDF8448000E0B8466868007820736868007AB61C20761420DD
:20132000266117F02BFB0028606141D03946142219F09FF86968626949689079897900F062
:20134000F00001F00F01014391716868406861698088888068684068616900780870686802
:201360004068616940884880686840686169C079C871686840686169007B08736069C0797D
:20138000400017F0FBFA616988606669B3681BB13846F179814250DC307B400017F0EEFAF8
:2013A000306161690E691EB138460A7B82423ADC04F10C00814613F0B9FC0646022E18BFDC
:2013C000B82E06D1207B1DF0F7FD484613F0AEFC06463EB9B8F1010F20D1204620F07CF8A2
:2013E000C8B11BE0B8F1010F15D0606968B183681BB118461FF000F8606903691BB118467E
:201400001EF0FAFF60691EF0F7FF48463946102219F02FF802E0204624F0D0F9022E16D04E
:20142000B82E14D0B1E16B685B6842001B690969D35A53526169401CB7E76A68526841001F
:201440009268B3688A5ACA526669401CA1E7D020A6E06868002852D0A86800284FD0109934
:20146000082219F006F869680878498821F0E8FB071C19D010986870A96838880880B87810
:20148000A9688870AC68A078002800F07E8117F075FA6060AA685068002800F076819278E7
:2014A000F91C23F00FFA70E1B12079E00C0E0020380F0020686810B3A86800B31098C74AD0
:2014C00068706968176809783FB13A79914204BF401CC0B23F68002FF7D1A9680870A86825
:2014E0000078400017F04AFAA96848606868A9680078496821F05CFF47E16F680FB90220D1
:201500004EE010986870686800781FF0EFFC3CE1014F0020022068706968002900F03581B4
:20152000087849881FF000FD002800F02E81109893E66868002800F0B780696808A808229C
:20154000091D23F0BFF9032023F034FA6868C07B20F0BCFA6868817B0091027883894188B9
:2015600008A813F0ADF88EE56868002800F09C80384623F023F8041C14D11C2017F0FEF9B1
:20158000041C00F0028110991C2218F072FF277120461FF0A1FF28B920461EF02DFFD12039
:2015A0001090C4E7E088D24940F00800E08040F00400E080022023F0EDFFD149032023F0C0
:2015C000E9FF686800680890686800798DF82400119F8DF825708DF8267008A81BF0A2FC23
:2015E00051E5686800285FD068681099008801F08DFECAE06F68002F56D0C2202DE6CB4833
:201600006F680478002F4FD01099697068682A2218F02FFF46466968F08E08806868B6F874
:201620004470847269688F81708F6968C8826868082206F1200707F139010E3023F042F92F
:2016400023F0CEFB014668680822801C23F03AF96868082207F11C01183023F033F9686825
:2016600096F8381080F8231011986968B04C81F8220021784A0824BF6A6882F824008A0808
:2016800024BF6A6882F82500CA0824BF6A6882F826000A0924BF6A6882F82700C90924BFB1
:2016A000696881F8280070E00220D6E5686850B390F90000044622F03BFFA86800B1047064
:2016C000FFF7A4BB6868F0B110986870696817460F706868022646706868867068680624A9
:2016E000C470696803230B714FE0686858B1407818B1FF20032120F05BF823F003FF119856
:201700008C490860FEE70220BDE41220BBE41098687018F029F938E01098687021F0A6FA20
:2017200033E029461AF02EFE2EE029460FF000FE2AE0294614F0C0FE26E0294623F0F0FDC7
:2017400022E029461DF095FA1EE029461CF020FF1AE029461AF044F816E0294615F0D8FDF6
:2017600012E023F04BF91BE729461CF09BF80BE03846294605F040FA06E0294604F046FF7B
:2017800002E0294604F024F9119011981090BCE0162022F00AFA3C46071C00F0B680DDF875
:2017A00040801622414618F064FE9320387046467E7060783871A07838742079012814BF91
:2017C00002200120B871E0883881E0783875A07822F002FF002800F086808BE0DC55002072
:2017E0000A2022F0E2F9071C00F08F80DDF840800A22414618F03DFE4646912038700F9D94
:201800007E70A978797169783971E978B971A9883981A87822F0E0FE002864D06AE038469A
:201820004078904271D01099434BF070F21C4FF0007020F081FF70784049087065E030207B
:2018400022F0B3F93C46071C5FD0109D3022294618F00FFE922038707D70A07B032838713D
:201860001CBFE088F88004D1B81DA11D082223F029F8E07BB873208A388260887882A088F3
:20188000B882608AF882207D3876667D284606B101207876607E00B10125BD76A07DF876D5
:2018A000E07D387794F918007877E069386294F8200087F82400A08DF88494F82E0087F874
:2018C0002800A08C7885A08C17F058F8F862E0B1A16AA28C22F0F6FF207D22F07DFE48B9DE
:2018E000F86A1EF089FD384622F066FA0DE0C046F1000200007939461DF0A0FA05E0C04692
:2019000089500200384609F00FFE1098012803D00F9822F051FA03E00F9988781DF08EFAA0
:201920000E9880F4004017B0BDE8F08FAC4C0020EE6500207C05204369350200A819002072
:201940002DE9F04FB74CDFF8E0A294F8207088465FEAD800ADF1140D80F095825FEA1840E4
:2019600024BF4FF6FF7BABF1010B80F05F81504600785FEA5831A0F1020080F03681BB4D2B
:20198000A91D09885FEA182280F0EF805FEA980180F0D6805FEA183028BF88F4006080F022
:2019A00044835FEAD81080F0A780E7685FEA983062D2A0695FEAD83138BF0020C0F035832A
:2019C000A94928C96A4628C209881180676938B9384623F09CF9A061C0B997B90B2011E09B
:2019E000017BFF2906D031F07F000FD101F07C0104290BDBE06940B9384623F088F9A06117
:201A000020B9002023F074FC33E0A061637801201AF03CF900EB40004FF480410246184626
:201A200023F0FEFE94F82010A069082919D00188ADF80010017A8DF80810017B491CC9B206
:201A400031F07F07017306D10188427A684622F063FAA06909E0008800210A4620F06AF8D5
:201A6000F7E7017B41F040010173406923F04FF9E06188F48040D8E2DFF8BCB200264FF041
:201A8000030AB14687B96078012E04D04FF400511CF074F805E04FF400514FF47A7223F060
:201AA000BFFE88F40050C0E27D68287810B3F02820DC51464A466B461DF0AEFBD0B10298F6
:201AC00003889BB984F83E908DF80DA08DF80C9003AB0A20494652461EF01CFADBF8001084
:201AE00084F83E9031B12878884703E001880126491E01803F68C5E71DF018FE0746207875
:201B0000BFB1401EC0B22070A0B160784FF480411EF052FC30B9606923F0F9F810B938783D
:201B20001BF0C0FA6078402143F6982223F078FE207810B90B2023F0DBFB88F0400074E2A8
:201B4000B0F1FF3F18BF00280CD168460021082218F08FFC68461EF0CFFB18B160780221F4
:201B60001BF0A6FC88F002005FE2084600211DF0B9FD28460678FF24C6B14FF6FF75001D6F
:201B800000212B4610F8142F52080BD3C7884FB1BB4207D055B10289BF1ABAB29542C4BFDD
:201BA0000C1C151C761E01F10101EBD1FF2C19D02E49A00000EB0410401818300189C088EC
:201BC000401A80B250B929484470FF2008F040FBFF2120460A461EF0E1F900202349C88067
:201BE00022F0CAF988F080001FE2B0F1FF3F18BF002814D13846401E0CD0801E0FD194F892
:201C0000220002280BD1012084F8220000201EF033FD04E094F8211000201FF041FC88F4F6
:201C2000805002E2D04F0020E84E002060781BF011FC051C08BF88F4004000F0F6812F78B9
:201C4000D32F00F0088194F82000B84210D00A2F40F0158194F83F002871A16A002900F0FC
:201C60000E81A81C88470AE1D86F0200645F00209AF800007F1E00F09780BF1E40F0FF8069
:201C8000012818BF022840F0FA80AF787FB37F1E40F0F5806A7860781AB323F027FC4FF6D3
:201CA000FE720021824218BF0121081C04D1BB48C08E1146814209D01046B84FADF8100087
:201CC00004A9A7F836B053201FF0F2F820F06AF81FF02CFEB149002081F8460017F044FE99
:201CE000CDE0022140F6B83284F82210A8E06878002855D123F090FC00210E4603461F46CE
:201D0000A648636208300160002F45D1002B39D0002E1F4636D0B146C54821F08AFF01289E
:201D20000CD0BAF82E004FF6FF7181420CD03988884209D01CE0C046C4520020BC4807F1FB
:201D40000C0122F0B9FC98B194483989408F884201D1834501D13B7953B19048797990F8B9
:201D60003200884209D19AF80E00B979884204D038461FF013FF761EF6B2BF69B9F1010966
:201D8000CAD1636A226B002AA8D0184631469047206B002873D1A1E7BF69761CF6B2B3E785
:201DA00000201FF0DFF86AE0012818BF022866D16F7894F845003FB194F84410491CC9B20A
:201DC000884284F8441043DB94F82100401E04D0401E3AD0401E1ED051E023F009FA98B920
:201DE00094F8460020B1E06A002848D0804746E0002102200F468DF808000246ADF8007047
:201E0000684622F087FB13E0012023F0DBFB014603F0B8F833E0AB2000216A461EF0CCF917
:201E2000CDF808D004208DF80C0002A811F0D4FA60784FF480511BF0A1FE607841F288327C
:201E40004FF4805123F0ECFC19E01FF00DFB16E001200021DCE7E88948F20101401A0BD086
:201E6000401E05D0801E0AD1284617F03BFD06E0284615F017F802E0284616F0A7FC28463A
:201E800021F09AFFD2E66178381C09D0401E00F0C680C01E00F0BC80801E00F0AE80C2E0DE
:201EA00094F83F00810980F0BE80C10880F0A080810875D20009C0F0B680062084F8200045
:201EC00023F07AFB002865D01DF030FC2569071C60D068684078800837D3387803210022F3
:201EE0006B461DF099F928B968684078410830D20E201BE002980188B52912DAB421018072
:201F000060784FF47A724FF4005123F089FC4948416829B10078FF2814BF3878FF2088476A
:201F2000256968684078400803D2092023F0E0F90AE0092003228DF80C0003AB00218DF83C
:201F40000D200A201DF0E6FF256968684078410869D339490E6816B980081BD363E038786D
:201F60001BF0A0F8002600B101260325301C02D00E2023F0BDF90C2020706078402143F655
:201F8000982223F04DFC0A208DF80D5003AB8DF80C0028E00E2023F0ABF944E02019002076
:201FA000042294F8400084F8202040083BD394F842706FBB50460078012818BF022832D17A
:201FC000012604F120000021E67018F052FA032584F8205030461CF06FFC0A208DF80160E9
:201FE0006B468DF8006000212A461DF093FF1AE00520002184F820000EE0002084F83E0077
:2020000084F8200032220846042123F009FC0AE022F0AAFA0420012102F0B4FF03E00120B6
:2020200001461FF03DFA88F0040005B0BDE8F08FC04C0020C0520020A85300202DE9F04FF0
:20204000DFF814B3C34C01214FF0E047ADF12C0DDBF804002569C06808931F400170C8486C
:2020600007924FF0000101704FF0020000EA020008BF002840F0F482DFF80893DFF8088380
:2020800011464FF480301E4600270840374008BF002832D100204FF4003110EA060701EA34
:2020A000020108BF00290ED137464FF48001384001EA020108BF002900F0C68200202871C6
:2020C0001AF0F8F8C0E22871EB201FF0CFFD4A460020414610700878862801D11FF048FED9
:2020E00023F0D7FBE1690A68002313710968E16123F062FD22F0D2FAA6E20020DBF80070AA
:20210000287107F1B8000168DFF880A20F782FB951460F7817B1D0F8940480471FF00EFE7D
:20212000812756469A4937709A4D0860FF232B702778A7700021A1812069DBF80050007AA6
:202140004A460E46801E81B2D5F800011670C0890A918842C0F26C82E1690831096804F13F
:20216000180001600426A6810A98DBF80060657EA17EE37E04F11902C01E80B206F1B80C82
:202180000A9005EB012051786081C1F30119DCF80010237109780692002908BFB9F1020FE0
:2021A00000F04682B9F1020F00F3428219B110F0070F00F03D82667800F00705AD1E022D92
:2021C00008BF002E00F0348231B141460978862902D1002D40F02C82001300F002000228BE
:2021E00064DA35435AD1DCF81C0090F88300022851D0E1690C31097805A801700527A7813E
:2022000023F047FB454606462878862840D1DBF80000403001680F6837B9D0F80C05804780
:20222000DBF80000006C07689DF9140023F075FB7877DBF80000016C096800228A77006C94
:202240009DF914100068C177304623F0B5FC2679678923F01EFB41460A7807F01007862A68
:2022600015D1BB4D05F11E031A88521C1A8087220A7023F0A1FCE879B04206D11FB90020BA
:2022800019F008FA07E01B20FAE7E920F8E70646304623F091FC22F001FACBE14146087826
:2022A000862803D11FF064FDA77866788FB186B9012F00F0BD816089022F03D110F0070F4E
:2022C00040F0B681032F05D100F00701032901D0AEE16089010980F0AB81011301F0020174
:2022E000022902DA810A80F0A38106994978C1F38108B8F1010F4FEAA111099100F09881D4
:20230000012900F09581B9F1020F14DA00F00701012918BF03290ED1B8F1000F0BD1099FA4
:20232000002F00F0858159460968AC3109680F78002F00F07D81BD49B9F1020F0ED0099E30
:2023400011F808708A5DB918CFB256B3C10928D3BF1E13E018640020140100200A46099962
:2023600008EB0207891809793A795218C109D7B212D2099958EA010613D0BF1CFFB210E0A0
:202380000C55002032670020356700203067002014670020C5460020099958EA010608BF18
:2023A00002270A9AC0F30020391A60718A42C0F23F81DBF800601146C91B091888B2D6F884
:2023C00050122081743080B2884700286678606100F02E810021742218F04BF80020E0707D
:2023E00062891EB9C14902F020000870BF48617906784FF0000C002E30D000292ED102F095
:202400000700032808D0012828D1DBF80000D0F8D40090F882600EB3DBF8040040690678F8
:202420001EB122F0D3FCFE2815D0DBF80000D0F84C02804750B9DBF80000D0F84402804780
:2024400020B96289617994F803C007E00420E0706289617901E00420E070844665692689D3
:2024600005F1740305F17400AB65069B686093F801902E812089C9F3011A0029A5F85C009F
:202480001878AA8100F078004AEA00004CEA000028744FF0FF06AE730CBF2079002085F8AD
:2024A0003A8085F84900099885F83000A089002FA0EB010086B2A68100F0B580E169E78035
:2024C00068463A468919083115F082FABF19B8B2A0812846017C4FEAA90212F0030F02F03A
:2024E00003076D4601F0400843D0BAF1020F4FF0000301D1C9090BD29DF801209DF80010F9
:2025000001EB0221A0F844100DF10205A0F84210804EB0F84410B6F842208A4203D04FF613
:20252000FF728A4223D1032F14D06A78297801EB022189B24186B6F84020AD1C01208A42FC
:2025400014D04FF6FF728A4218BF181C0EE0C0461453002060692946323023F082F960699E
:2025600037363146323022F0A7F808350346002B56D00698407886111ED06169BAF1020F2C
:2025800003D0087CC00903D309E058EA070306D16A782878AD1C00EB0220A1F84200032ED5
:2025A00005D068782A7802EB00220A8504E060692946283023F055F959460968AC310A68F2
:2025C0006089167886B1BAF1020F0DDA00F00702012A18BF032A0BD162692FB94E4BB2F8B0
:2025E00042201B8893421BD100F00702032A05D0012A18D1886A90F88200A0B1D1F89C1143
:202600006069884778B90020069FE070B97866697878C1F3011100F078000843307402E0ED
:2026200019F048FE06E00CF0E1FB03E0747D020022F026F823F02DF9E1690A6800231371EB
:202640000968E16123F0B8FA079A089F202100201140384008BF002930D021F0E7FF2DE09C
:202660002E4991F90000002803DD91F90000401E08702B4991F90000002803DD91F9000061
:20268000401E0870114600201E464FF080770840374008BF00280DD0224991F900000028AB
:2026A00003DD91F90000401E08701F480121017022F0E0F90020287119F0FCFD184A92F94D
:2026C0000000A8B1079B089F02214FF0E0401940384008BF002914D092F90000002810DC92
:2026E000DBF80000D0F84C0580470AE032670020DBF800700D480021D7F8582401700846C1
:202700009047DBF80400C06800210BB00170BDE8F08FC046A8500020EA5000200F55002076
:202720000E550020105500200D5500200A5500202DE9F04F8F4C04F120000768ADF1540DDD
:2027400017B1002087F84500DFF824B2002517F148030BD0BF6D854E73612FB9584600680C
:20276000D0F84C05804773695868706023F091F81490082013F010FA18F01CFF5E4610B110
:2027800063A023F015FA1BF07DFA684622F0B4FB042069468DF80000284622F081FD60630A
:2027A00022F0E2FA09A822F0FBFC042009A98DF82400284622F0FCFCE06222F0DFFA0DA898
:2027C00022F0FEFC04200DA98DF83400284622F0FFFCE16A206319B955A023F0E9F9206BCA
:2027E00010B958A023F0E4F9606B10B95AA023F0DFF93068D0F8E00380473068D0F8F00253
:202800008047DBF800002F460726A03001687B5823B118468047DBF80000A030761E07F148
:202820000407F3D1D0F8B8028047EB2022F064FE206A2F4670B105A8FF21082217F019FECC
:20284000206A05A9082221F0A7FA04F12006012818BF3768484A0CCA05A8391C80E80C00CC
:2028600022D1082016F08AF85FEA000800F08F80A8F10206032722F01EFF06F8020F7F1EBF
:202880004FEA20207070F6D13020F82706F8020F4146082204F13C0088F8077022F012F8A5
:2028A00040461DF0A9FD04E004F13C00082222F009F80120082105AA22F0B4FE04F13C0699
:2028C000002818BF09285ED120F0E9FE800855D205A8FF21082217F0CCFD07AFFF2108222C
:2028E000384617F0C6FD0120294608223B4622F08FFB002847D1384605A9082221F04CFACC
:2029000000283BD130463946082221F0DBFF3AE052616E646F6D5F736565644175746F6DF8
:20292000617469632829206661696C656400C04641455343434D206F70656E206661696CE0
:20294000656400C0414553454342206F70656E206661696C656400C054524E47206F706595
:202960006E206661696C656400C046C0A850002014010020200100202C790200012008211F
:20298000324622F055FEE22031461EF091FA20F086FE400834BF2E1C0126CE4F5520012154
:2029A00007F1420222F03EFE18B916B128461FF0A3FDC94FE22007F1400120F0E5FC30461E
:2029C0001BF0BCFD05A82946102217F052FD6220102105AA22F026FE28B926B1622010218C
:2029E00005AA22F025FE05A82946102217F041FD304611F091FD30461EF000FA304611F066
:202A000097FF1EB1284601211EF0D2FE1C2015F0B5FF0028A06300F01D81606AA16A221D21
:202A200019F0A8FADBF80010D1F84C138847A16B201D0860606AA16A04F1080219F09AFAEF
:202A40001BF0DAFFA16B04F108004860606AA16A04F10C08424619F08DFAA04EB570711C4B
:202A600008702F3106F13000129107F1380122F0F8FEDFF86C9297F8240007F14803294641
:202A8000B3606C22307009F5C67017F0F2FC04F1240A04F128001190A26B0168DAF80000A3
:202AA000122709F5C67308324FF6FE7C7F1E23F806CBF9D1C2F8008004F1100219F05AFABC
:202AC0008B4B894F736287497760884A0870119BA06B326204F1100704F11402C760196878
:202AE000DAF80000139219F045FA824FF871022287F824204FF6FE70B88322F071F907F194
:202B000014087D4812990560404622F0AAFE4846FF2138225C3017F0ACFC78487A4AC2609B
:202B2000784B8360764941600570794A4261774B03617949C161794AF260764B836179492E
:202B40007161794AB261764B336107F1300012F0EDF8092608F12C00761E40F8045BFBD11E
:202B6000F87948F201011CF075FDF8794FF400411CF070FDF87921211CF06CFDF8792221E0
:202B80001CF068FDA06B1399119E0161DAF80000316804F1180219F0EDF9644AD580D5605B
:202BA0009570556101261574074615704948167148F20201477038461CF04CFD48F20101BD
:202BC00038461CF047FD48F2040138461CF042FDA16B04F11800119F4861DAF8000039683A
:202BE00004F11C0219F0C6F9514B207051499870284622F0CFFC5049304622F0CBFC4F4961
:202C0000042022F0C7FC4E49062022F0C3FC4D49072022F0BFFC4C49082022F0BBFC98780D
:202C20004FF6FE71491C1CF015FD4A4B484F47482849494A7B60494B88620846C362A06BC7
:202C4000BA600F463B4687F8466004F11C078761434A1A631CF06EFA11F002FE149822F022
:202C6000ABFF0EF023FE20F05FFEDBF80000D0F8D40090F8430020F069FEDBF80000D0F8D2
:202C8000582429460120904722F090F93548DBF804700570F868007830B9DBF80000D0F821
:202CA000582428460146904716F0FEFA2E48058145812B4603602E4A43602C48072120F0B1
:202CC000FFFA16F0BDFB1EF0D5F81EF0B2FA15B0BDE8F08FD04F0020E84E00202851002091
:202CE0000C0E0020D854002001090100B96C0100E1510200AC4C002020500020A45300202A
:202D000059790000B93F020015C10100451F020031370200F9180200993C02008D4F010079
:202D2000453901000D370200B9890000645F002014550020D95002009D500200B150020003
:202D4000C55002009D4C0200B54C0200C1EC0100C0520020F9010200D9E60100690B02005C
:202D600019FB010031670020C0660020EC000020235902002DE9F04FA548A74A0178A5481D
:202D80001170A64E4170A6495C307061ADF1340D08601BF0D7F8B348B14C00F5E4700790C8
:202DA00004F5047000F12001089100F1A20100F592700A90AB484FF0000AB146A74D099115
:202DC000401D0B908EE1606AE769A64B860006EBC006F6191F7810361B2F20D1184699A185
:202DE000042220F0E9FD002826D09E4896A1042220F0E2FDF0B19B4894A1042220F0DCFD9F
:202E0000B0B1984892A1042220F0D6FD70B1954890A1052220F0D0FD002840F02D81402F8D
:202E20000BDD5B2FBCBF2037FFB206E0FD2704E0FC2702E0FB2700E0FA27307996F805B09B
:202E400002285DD0032840F0B6800798514640F2A51217F00EFBD0460898099B31790090C7
:202E60000A9A01930329029245D173796BB90D2F33D101207071B06803681BB1C0886946AC
:202E8000524698474FF001082AE01B2F31D07F2F2FD0FC2F07D0FD2F0FD1B1688888CB88E7
:202EA0001B185B1E04E0B1688888CB881B185B1C93FBF0F242439B1ACB80B068036833B100
:202EC000C08852460D2F08BF0122694698470D2F18BF4FF0010886F80580B8F1000F0AD06E
:202EE0000298316880221EF0C5FF01200CF0DCFD01E086F805A07079584518BF1B2757E05B
:202F00000798514640F2A51217F0B3FAD0464FF0FF31099BADF81810089804930A9A03907A
:202F20000B46ADF81A3030790592022840D173792BB90D2F1CD101207071FE201BE00D2F86
:202F400007D01B2F14D186F805A0B3684BB1F92004E086F805A0B3681BB1FF2003A906AAAF
:202F6000984784F801A050460CF09EFD4FF001087379EBB13846B36813B103A906AA9847C0
:202F800001200CF091FDBDF91A004FF00108B0F1FF3F0BD0BDF91810B1F1FF3F06D0E085BB
:202FA000A185424662701BF0B1FE01E084F801A0B8F1010F60D0E269616AB7F10D0031D024
:202FC0000E381AD0643813D07D38012854D8107A012851D0FD2F1CBF0144491C02D1107A56
:202FE0004118491EB1FBF0F24243891A616240E0D768A06A4FB160623AE0BBF1000F02D0C6
:203000007779002F35D0226AE261117A491EEDE720010020A434002038670020501A002075
:20302000D04B0020880000EBC100801814300778D7B1012F1DD14768DFB108463946884745
:2030400017E0C0461B5B41001B5B42001B5B43001B5B44001B0000000000C04650180020E8
:203060000C41002054410020A162C4F824A04768E76150460CF018FDA3485146052217F05D
:20308000F8F9A0680B99052222F042FB288920F040002881800A10D32E6D686BEA6BB04251
:2030A00004D11AB1504608219047EA6B286BB04203D112B1012008219047A5F808A0D9F832
:2030C0000C0080080CD399F80000C421524606AB19F07AFCD9F80C0020F00200C9F80C0083
:2030E0001BF0D8F9D9F808004FF0FF3122F05CFD0028F7D099F800001AF0ACF9061C00F000
:20310000E1803078297892384BD0801E45D031381FD0401E3ED0401E04D0C01E30D0401E3B
:203120002AD041E0764AB07B85F87600378AA5F87870371D3B6878681360FF29506002DA52
:20314000491CC8B22870504617F044FA11F088FD2AE03079F71C05280AD1F0780D2807D055
:20316000D9F81000654922F01BFD664822F0B3FB384617F02FFA17E0CD215246032304E0F3
:203180008DF818A0C12106AA082399F8000019F0E9FB09E019F04AFC06E0F01C07F04AFB51
:2031A00002E0301D13F022FF30784FF00108712821DC71284DD065280FDC65285FD0801FAD
:2031C0006ED0423874D0183867D0401E62D0401E01286DD9801E55D068E066384CD0801EAC
:2031E00047D0801E032863D9001F3ED0401E38D0401E32D05AE091280FDC912858D0723857
:20320000022855D9C01E20D0401E1AD0401E4FD0C01E4DD0801E4BD048E092380DD0C01E62
:20322000012845D93038062842D91B3840D0801E01283DD909383BD038E0F76A002F37D05B
:2032400030E0B768002F33D02CE07769002F2FD028E0F768002F2BD024E0F768002F27D0D9
:2032600020E0F768002F23D01CE0F768002F1FD018E0F768E7B115E0F768CFB112E0F76840
:20328000B7B10FE03746786908B11DF0B5F8FF6977B107E077695FB104E0776947B101E002
:2032A000B7682FB138461DF0A7F801E0D04602E0304620F081FDB8F1010F03D016B130463F
:2032C00020F07AFD288900283FF4F9AE81090DD30FF0A0FE10F0F6F8504617F07BF92A89FB
:2032E0004FF6DF7122F0200011402981C109FFF4D1AE207801283FF466ADFEE7A0860100BD
:20330000BC180020BC1A002054410020974B2DE9F04FADF13C0D0A91002209900221181D42
:2033200001705027DA7280465F72402159711046D873802199710021D9719889197240F400
:2033400030509881A0219972997310461874012018F09CFC28B9186820F00F0040F00200A7
:2033600004E0186820F00F0040F00100DFF80093BE4C6FF30F1048F220210026014399F82E
:203380000050196098790C9684F82E005DB930461BF0D4F894F82E00000910D3304608A9D7
:2033A0008DF8200008E094F82E00000907D301200DF121018DF8210052201DF079FD1BF0FC
:2033C000B9FE21F003FBDFF80CA3DFF810B30B90002840F0B88012F085F800280B9040F06A
:2033E000A7800C9804F1200674210D903246212022F018F9002855D10D9921207422334695
:2034000021F006FE00284DD1E08E4FF6FE71814248D001200D9094F84600082806D0042892
:2034200004D00FF003FD0C980D903BE00D9D42200DF122018DF822501DF03AFD06F12F01CE
:2034400043201DF035FD06F12C0147201DF030FD06F11C014A201DF02BFD06F11A014B20D5
:203460001DF026FD06F1240138461DF021FD06F1160153201DF01CFD06F12D0154201DF00A
:2034800017FD06F11801E1201DF012FD94F82E00000938BF0C9D52200DF122018DF82250FE
:2034A0001DF006FD0C9D14E0DAF804000C9AAF0007EBC50729460C233F18009701201DF0BC
:2034C0007BF920B93878FF2804BF002038706D1CADB20BF10400BAF800100068A942E3DC81
:2034E00000B180471EF0D1F90D98B8B121F0FEFFA9F81C0028B998F8000000F0F80088F8CA
:20350000000003203936002789F80100314684F8467009F1140022F0A4F901E009200B9065
:203520000B9F6D480021002F418008BF0B9102D0012769480B9794F83810824601208840E6
:20354000C9F80C0068E011F0CDFF0FF06FFC04F120022120742122F06BF802A8FF210C22C5
:2035600016F087FF354656460AE0C046E8650020294601200C2202AB1EF02EFC6D1CADB2C0
:203580003088A842F4DC5846006800B180471FF023FF002006220C99ADF8100002A816F0B8
:2035A00068FF142015F0EAF9061C1BD0AC480C300768A7B103270225A8B202A9062280196D
:2035C00021F080F9AD1D7F1EF6D104A93046022221F078F94C201421324622F029F83046A8
:2035E0001CF00AFF182015F0C9F9071C10D00C9D1822294616F03DFF0620294618223B46D0
:203600001EF0EAFB6D1C032DF6DB38461CF0F4FE17F094F8304882460B98914D01286BD1F8
:20362000904E337804F1200723B3012B08D0022B0ED198F8000000F0F80040F0020005E070
:2036400098F8000000F0F80040F0010088F80000854820F0EEFA002808BF002003D0042175
:2036600089F80A10032089F801000CE020190020AC4C0020022098F8003089F8010003F056
:20368000F80088F8000022F016F80999736B00F07F000818C9F80C306430022180B20C9001
:2036A000FF201EF085F84FF6FE70E086431C60870020A4F844301EF053F93078012812D1C3
:2036C0000A9801280CD002A80021082216F0D1FE02A806E02C5500205C540020B85300204D
:2036E00000201CF089FF212074213A4621F0A0FF002002211EF05CF8E8680B9C80B9122009
:2037000015F03CF90646002EEE606DD04FF6FE70B61F0327411C26F8060F7F1E7180FAD1CF
:20372000002C61D106AB4C200021022221F070FC002852D1BDF8180000284ED004284CDA9C
:20374000182015F01BF903274FF0020800244FF6FE7B0646EB681FFA88F14C2006221B19CA
:2037600021F056FC78BBE868015B8B452BD056B30096201841880022182306201DF01CF8F8
:203780003069EA6800F2E93333611019418805F13402880000EBC100E96813500819736999
:2037A0004188880000EBC1008018E9684360081941881822334606201EF00EFB304600210F
:2037C000182216F056FE7F1E04F1060408F10608C0D116B130461CF00FFE224B71200021AC
:2037E0000822483321F014FC2048CAF80C002048CAF810001FF0C4FC1F481E490860D9F8BD
:20380000100050B109F11004076820681CF0F4FD38460028C9F81000F6D109984FF6FF7101
:20382000814217D00020012489F8090009F1090289F800402146852021F0F4FE09F1090532
:2038400028B98520002122462B4621F0E1FB0C9820F042FB1FF090FF0B980FB0BDE8F08FE6
:20386000904E0020E84E00205851002035DC0000815202004C530020974102002DE9F04F57
:20388000C04CC14DDFF804A30E46300CADF1140D80F04D81DFF82C83700880F00281C84802
:2038A0000768700980F0DD80300928BF86F0080080F07F82700A80F09680F00880F08980D3
:2038C000300A63D2B00A5CD2C44C300B2BD2F00A27D3142015F052F8071C1FD00025A846AD
:2038E000207A012813D1009704202946424614231CF062FF58B9206838606068294614222D
:203900003B46786004201EF067FA84F808806D1C0C34032DE4DB38461CF06EFD86F48060B0
:2039200047E2002045E2182015F028F8071C25D000252434A846207A012813D100970620D3
:203940002946424618231CF037FF58B9206838616068294618223B46786106201EF03CFA8C
:2039600084F808806D1C0C34032DE4DB38464146182216F07EFD38461CF03EFD86F400602C
:2039800017E215F0E9FE86F4007012E218F05AFB2178E079052902D021F08AFC0FE004216A
:2039A0001AF0ECF8E079042118F04CFE062021F001F821F07DFC15F0CFFE1BF003FE012090
:2039C0001EF09AFD0320012101F0DCFA86F08000EFE1FF2003211DF0EBFE21F093FDBC4991
:2039E00001200860FEE7424692F84600082818BF042814D120322120742121F019FEC04D8C
:203A0000C04B69682A88D8690024A9469846A24208DC00B18047002002211DF0C9FE86F415
:203A20008070C6E1A30003EBC403CF5C37F07F0C14D017F07F07CF540B4405D101A8FF2138
:203A40000C2216F016FD01AB012021460C221EF0C3F9D9F80410D8F81C002A88641CA4B29A
:203A6000D5E74FB17968087818B14868007817F0FBFA3F68002FF5D121F038FD1C3420806A
:203A800021F0AEF95046C01D0078012806D1444620784FF40061642221F0C2FE86F01000E0
:203AA00087E1012020F086FF2878677800F007011220012918BF02292FD1E7B1032F1AD05F
:203AC000012F2AD1012928D10A2020F073FF444620784FF480611AF051F8502004A91FF027
:203AE00053FCBDF81000A4F84400BDF81000002116F0E8FD18E021F07BFB30B1032F04D09B
:203B000021F0D9FD0FF03CFE07E0022020F052FFA949E068097819F013FC28B1E0790121F4
:203B20004FF47A7221F07CFE86F0010041E1DFF890B2DFF8889233E1054627782B789AF8F5
:203B40000000591E00F00A81491E49D0183900F02181B93900F01A812A3900F01E811B1F67
:203B600032D09B1E14D09B1E40F01781012818BF022840F01281287913F0DAFA21F098FB1C
:203B80000BE1C046AC4C0020EC650020E84E0020012840F002816F88002F40F0FE80281D5F
:203BA00001A91AF049FD012840F0F78021F09EFCADF80C002D1D029501A813F0D1FDECE0B8
:203BC0002055002020190020012818BF022840F0E480404605F024FBDFE0C046A04E0020CC
:203BE000012818BF022840F0D88099F820004D46072818BF082805D1237A1BB9012101F03F
:203C0000C1F92778032F7FD00A2F11D0042F15D00D2F13D00E2F11D00C2F0FD0002F00F022
:203C2000BC801BF0CFFCE079102119F041FCB4E06648007800F00700012865D0277A60781A
:203C40000FBB0020E07207462F711CF0DBF870B1062020F0AFFE9BF80000000904D34FF4A2
:203C6000004001210CF0C4FA1BF0ACFC95E0082001210CF0BDFA052020F09CFE42F2107080
:203C800020F03AF989E0E17A01280AD0032823D1032001274C4D607000216771A81C017019
:203CA0001AE0491CC8B20428E07204DB4548007801280FD010E0444800884FF6FF71814245
:203CC00008D00127042567710320A57203E0C0467C052043002060701EF064F81DF026FE51
:203CE0009BF80000000903D39AF82200012854D16078032851D1082001210CF079FA4CE046
:203D00002C550020A4530020277A2FBBE079102119F0CEFB1CF076F898B1207803280CD1A1
:203D20001BF050FC95F82000022806D101201EF0E3FB0220012101F025F9062020F03AFEB0
:203D40002BE0082001210CF053FA052020F032FE01201CF091FC20E00020FAE7022F1CD187
:203D6000012818BF022818D121F026FC40B921F053FC00280CBF002001201DF0F3F80CE08C
:203D800012F09EFC48B117F087F806E0404612F03FFF02E040460DF0E7FB404620F00CF87B
:203DA000E07919F057FB5FEA00087FF4C5AE86F4004005B0BDE8F08F11500020D04F0020C5
:203DC000EE6500202851002064190020EC6500202DE9F04F04462089ADF1440D002807BFA4
:203DE00030200021102001210CF002FA4FF0000B52200FA98DF83CB01DF05AF86068217A61
:203E000001AA0EF085F8002800F068829DF806000228B4BF01275F469DF808000228A8BF47
:203E20005F46BDF80E004FF6F87880450BD008F10101814207D008F10201814203D008F1A5
:203E40000301814200D15F4621F04AFB9DF80710884240F04382002F00F040829DF83500B9
:203E6000002840F03B82208D9DF80A60678EADF83000ADF8127056B161689DF805209DF871
:203E80002030012020F066FD002840F027829DF809709DF80A50DFF87092002F4CD19DF886
:203EA00021005E4658BBBDF80E0003461CF004FA3746022808BF0127002F9DF8067018BF6D
:203EC000012649460988994208BF46F0020626B1002F14BF402120210E4318461CF0ECF9A0
:203EE000012808BF46F00106002F3DD00B9A107821F005F9012818BF26F0010635E09DF856
:203F0000250088B1FF280FD09DF824700C2F2BDA57B30A99891E21F0E9FA31F8022F904260
:203F200022D07F1EF7D11FE04946BDF80E700888B84208BF222617E0BDF80E10FF201EF0D9
:203F40007FFE002808BF082608D09DF8090047F001072C2640F001008DF8090007F0030700
:203F6000012F08BF46F011060B9A8DB9C648007870B106F0220022280AD006F0420042288D
:203F800040F0AC811078062818BF072840F0A681F0094FEAA61A48D317783846C01E012890
:203FA00025D9001F23D0C01E21D0801E1FD04946BDF80E600888B04240F090810520BDF846
:203FC00010408DF839000EA81FF0C6FE002800F085810269032313261370511C0E704C7038
:203FE00022128A70CF70448009F008FC76E15FEA5A001AD3032F02D150780D2815D09DF830
:204000000C0038B1BDF8100007990FF07DF8012800F060819DF80B0038B1BDF80E000699ED
:204020000FF072F8012800F05281B4F8447049460E310888B84209D1CDF800B0208DB4F8CB
:20404000421094F846205B460EF0FEFA9DF80A00A44DDFF8949200286FD0208DB4F84210E6
:2040600021F056F9071C51D19DF8350000283BD195F88C00012860D10B980078062802D10E
:204080005FEA5A0059D2BDF8121008F10700884200F02481BDF80E004946C91D097811B1A1
:2040A000E98E81421DD0594616F00EFE80B18079BDF81020BDF80E1010F0180F0CD0608E55
:2040C00000901046238D9DF821201AF084FD05E1BDF80E10BDF8102010465A4617F032FA22
:2040E000FCE01BF029FEF9E004201FF05EFD011C00F0F4806420087001274F70208D488072
:2041000028781AF09BFEE9E0561900209DF805106068FB780A18527B9A4203D0FA70584679
:204120007860606840180421401C20F052F87968814200F2D380401C786095F84600042890
:2041400018BF092840F0CA809DF81610B00980F09D800B985FEA5A01C0F0C08001780429FF
:2041600004D19DF82010022900F088800278072A04D19DF820302978042B4DD0032A46D0ED
:204180000C2A40F0AB80401C10F8018B06784C4604F11C0201215120167021F049FA0127E6
:2041A000524894F8203007705148B8F1000F08D1002B14BF4EF660244FF47A7450F8230086
:2041C00003E0203000684EF66024444303205946B4FBF0F44FF480400CF00AF828780221DC
:2041E00019F0CCFC700807D2B00877D328780221224621F012FB71E04FF48040214613F094
:20420000C5FF4FF4804039460BF0F2FF66E001A859461CF091F861E008464FF4806119F08D
:20422000ADFC5F460920494685F846001C310F7020F0D6FD0146069820F03EFA01284DD192
:2042400010201FF0B2FC074607990B98002F00F1010043D002223A704378027802EB032298
:204260007A80807878704A201CF022FE9DF80A0010B9204905200870394641E7584601A971
:2042800009F090F82AE0C0464B19002094F8460094F847708DF8380094F948608DF83970D4
:2042A00001298DF83A600CD1208DBDF81010884207D1BDF80E001BF0FFFF022808BF8DF872
:2042C00016B0E26B01A80EA900F06EFA06E0BDF80E0001E0BDF810001BF024FB11B0BDE834
:2042E000F08FC04620190020E84E0020B4190020C0750200AC4C00202DE9FC47D44C0F4680
:204300000546F80B80F006826078DFF85883B90F80F0AA81B90880F09D81F90A80F0028125
:20432000390B80F0CC80380907D2F80FC0F0288227F0804717F09CFB22E221F0AAFA814606
:204340001FF08AFD002800F0B480082021F016F9002840F0AE80802021F010F9002840F09B
:20436000A880684613F06AFC012803D10098002800F09F8094F84102002840F09A800025CC
:204380000126E8B220F09AFD48B1837A3BB1867290F9090006FA00F0C0B21DF063FB6D1CF3
:2043A000032DEED3032084F8200004F5CC7021F06AFA484621F000FCD34800252A460168EF
:2043C000056050F8081CD14940F8085C04F15C001FF0A2FC40460068006B8047A168401AD5
:2043E000010BA06AC1F1FF3282422CBF08444FF0FF30A06294F82C0020B12069A16AB1EBA0
:20440000C02F25D91FF038FD294600B13146081C1BD0BF4840F6090101804580417B06F086
:204420000F0221F00F010A434273017B05F00F0321F00F0143EA010202732946416020F0DF
:204440000FFF418811F4406FFBD084F82C60A5621AF050FFCE482946056002201FF0D4F9B6
:2044600002201DF041FF112011F0FCF8207818B96068483021F021FAC648007810B90E2055
:2044800011F0F0F894F82D0020B184F82D5005201DF02AFFC048606284F82050B4F9B00042
:2044A000B4F9B210884214BF0220072015F08EF802E0484621F080FB27F008073AE720B108
:2044C00004201DF011FF0020607065681CF040FF38B12846ED696FF4807100224FF00073BE
:2044E000A847E06858B140460068006B8047E2686168801AC860000BC8600026E660A749F8
:2045000004F15C0000221FF007FC0221D4F89C0084F8201018B104F1DC0021F0D6F927F44A
:20452000006707E721F0B5F906461FF095FCD4F894100028894600F08480002900F0818006
:204540009749042504F15C00002284F820501FF0E3FB304621F030FB04F5CC7021F093F982
:2045600040460068006B8047E0604FF0010884F8018028461DF0D0FED9F810006060D9F8DB
:204580001000416AC90803D3036A294600229847404618F0F7FC606880F81580606811F0BD
:2045A000E1F96568D5F808A040F60A02D01F564600F1010C00E01E46736833B119888A42A4
:2045C00003D0884218BF8C45F5D100217160727B08F00F0322F00F0213437373D9F80C208B
:2045E0001288904224D06046904221D02B8E03B3696305F13002518095F83C0001F00F03F2
:2046000020F00F00034385F83C3095F83D0008F00F0320F00F00034385F83D307260707B6C
:2046200001F00F0520F00F0045EA0001717300E0E160504620F014FE514640461FF0E4F861
:2046400002E0304621F0B8FA27F4806798E0C046C84600200AF076FAD4F89C0008B927F0E7
:2046600002078DE08C0100104E4A116841F08001116020B104201DF037FE0020607021F0BB
:2046800008F98246D8F85400016804208847D0B1287DC0B1A068B0B18146D8F800002E69A3
:2046A000006B8047A0EB09002861000B2861B04202D280194008286140F6C41181422CBF2E
:2046C000B0F5967F2961504621F076FA1CF040FE80B1EE6928466FF4807100224FF0007317
:2046E000B047D4F89400002808BF47F0020701D017F0BEF92846AD6900214FF080630A468E
:20470000A84727F000573BE01410044069D50100FC65002021F0BDF8D4F8AC6066B306F14B
:20472000280106C90A234FF0E0450B40154008BF002B21D106F1280191E8000306F12805AC
:2047400095E8060006F1280322EA090221EA080183E8060021F030FAB16879B1B9F1000FE1
:2047600008BFB8F1000F09D03069B6F93010B5684B464246A84701E021F01EFA27F4804748
:2047800027B104F1DC00394621F09FF8BDE8FC8700000460167D0200F93101004525010092
:2047A000393E0200CC2108402DE9F04FADF1840D1B91CB491C923CC9064610A83CC00EC97D
:2047C00080E80E0000248DF84240317F8DF84340B28D8DF84D40D6F828C0ADF844400F46FB
:2047E000ADF85A20F2898DF854706046ADF84A20027802F00303022B8DF8402000F3C38166
:2048000023461D93401C1F9353083CD202F00C0EBEF10C0F0CD053093CBF10F8013B8DF836
:204820004230BEF1080F04BF01238DF84C3001D08DF84C40BEF10C0F0AD0737903F00303ED
:20484000012B0CD142F00C0273898DF8402004E045780378801C03EB0523ADF844305309EB
:2048600011D245780378801C03EB0523ADF8463003784578801C03EB0523ADF8483010F841
:20488000013B8DF8433010F8013B32F07F058DF855301ED0037833F003058DF8413040F036
:2048A0006E8103F0030EBEF1030F00F0688113F0030F00F101000ED010F8013B02F0030548
:2048C000022D8DF8573004BF10F8013B8DF8583001E08DF841401490A0EB0C003F1AFFB25D
:2048E000B942C0F24C81C91B8DF85470C8B28DF84D00074300F04781D00907D370891BF00C
:20490000DBFC002840F03F819DF8402002F00C002146001F08BF01211E91910933D30121D5
:204920001F9180B3B28920F0E1FD904202D1F08D000A0ED220F0DAFD904222D0F08D0146F0
:204940000B0A38BF101C07D39DF8402002F0030C2EE07089ADF85A20804620F0C7FDBDF8DA
:204960005A10884205D0404619F099FB002800F00A818648026810A940469047002840F0C2
:2049800002819DF84020F08D02F0030C01460B0A0ED2D3090CD39DF8413013F0030F07D137
:2049A00002F00C030C2B03D0082B1CBF01231D93DFF8E081BCF1020F00F0C280BCF1010F25
:2049C00000F0908012F0030F40F0DD80704A92F82B20012A03D1B779002F00F0D4809DF870
:2049E000542002231A92040A9DF84250BDF846B0BDF848A09DF855E09DF857C0DDF85090CA
:204A00008DF86430B2899DF84370ADF85C2034D21E9F40461730046897B91D9F1FB11046AB
:204A200010A913F0D9FC1F9800901C9F0197B07C1B9A0290F37C17A910A811F02DFBA2E046
:204A4000307C002C8DF8560000F09D8020F04EFDBDF85C20904240F0968030791F9F0090FB
:204A60001C9D01971B9A02951D9B039196F8300010A9049017A8A04785E0ADF830008DF8DD
:204A800020308DF8227034798DF833407189ADF818108DF835E08DF82350ADF826B0ADF891
:204AA00028A0CDF82C90307C8DF836C0B27C8DF8320096F830308DF83420354C8DF837306D
:204AC000B4F8441096F83270ADF824101A998DF8387006A8ADF82A1005F0BEF953E0C0467B
:204AE000987A02001D9FB58937B1000A04D2284610A913F071FCB5899DF85400B6791030B3
:204B0000C0B21FF052F8071C3DD07D81022038703E737C709DF854203A7207F110057D6096
:204B20009DF84000800928BF01247C72149978681FF0C8FE4046007839461AF07FF922E0BA
:204B40009DF8417040461F30B189036817F0030F10D110A807901048ADF8181006A91DF06B
:204B60005BFD80B1062141730068407B21461AF0FDFE08E03BB110A82246984703E08DF807
:204B80004D408DF8544021B0BDE8F08F48530020201900202951002025EC01002DE9F04F65
:204BA000D24CDFF84C93DFF84C83080CADF1140D019180F0D4810846400838BF0020C0F0F4
:204BC000D881676820F0E8FF054620F077FC4FF47A764FF6FF726843B0FBF6F081B267B178
:204BE0003B887888CB1A9BB2984210DDC01A8242C8BF82B2FF68002FF2D14FF6FF709042C1
:204C000000F095802078012120F00AFE8FE0B87902287FD020F0C0FF054620F04FFC97F8A0
:204C200038204946684301F10A03B0FBF6F038801878904266DD97F83600FF2808D197F8A1
:204C40003800401C87F8380097F8370087F8360097F8356097F839300020012101E0401CF3
:204C6000C0B283420FDD97F8365001FA00F285F0FF052A42F3D03618814097F83600F6B2EB
:204C8000014387F8361097F83400B98F10FB06F2891A89B28842C7BFFF2087F83600011CDE
:204CA00097F8360099F82320FF2818BF97F83A0006D140460078642510FB02F212FB05F035
:204CC000788046B9388D3E7A40F020003885386C87F82E600BE03A8D4FF6DF70104038854F
:204CE0003D6C87F82E6097F8342012FB06507862F879CEB287F82D0007F110007E8405F042
:204D0000ABF810E0B87E97F82A10FA8BE9231CF057FB05E0387CFF2802D0B8691FF04CF80C
:204D200038461DF021FA2078012118F0C1FB019880F001001DE12878012840F00D8195F833
:204D4000338095F813A06F6995F83100698802221DF06EFE05F11C0405F1020B06460020B7
:204D6000002E02907BD1687F400876D3A87FCDF80CA020F0ADFABA4605F11009071C60D0FE
:204D80001C2013F0FBFD061C59D000211C2215F070FBA87F69461EF02AFF9DF801000221FC
:204DA000307530461EF0C4F96888317DB08095F83100FF22F07102FA01F0707478680078D6
:204DC000307495F83000B07495F8331011FB00F0303080B21EF0E9FE0746B76127B9304640
:204DE0001DF0C2F900262AE01A20387000237B701A467A80E0885946B880B81D1FF0ACF8AA
:204E0000E0783C4BF87303F1200000883882608BB88560897882A0783875207B787599F809
:204E20000000B87599F80100F87599F902003876039A7A76C7F81CA007F13001B962304642
:204E400000E000200028064600F08680274886F808800078012118F02BFB002E7CD0307A87
:204E6000A8EB0000B0F1FF3F04BF01200290307CFF285CD06078400828BF4FF00008317D4F
:204E8000F07C4018404503DCF074FF2088407074B069B17C227D806A08FB010021691FF04F
:204EA00011FD029F317D727C012398FBF1F04843A8EB000003FA00F11143C9B27174DFB1BF
:204EC000401CFF2202FA00F001437174B769B17C207D08FB0100B884707CFF280CD1307C7A
:204EE000B16919F0ABFFFF20307420E0D8540020E84E00204419002020F04EFE074620F04A
:204F0000DDFA1D4B1D4A4FF47A717843B0FBF1F0308093F8231010781F4610FB01F1B87AEC
:204F20006423401C10FB01F010FB03F07080F17C327DA8EB0100801AB0F1FF3F04D0707CBB
:204F4000FF2801D0029F3FB1E175707C2076BBF80000214613F040FA28461EF02DFF0848A1
:204F6000007818F077FA051C7FF4E5AE019880F4004005B0BDE8F08FE84E00204419002020
:204F8000D85400202DE9FC41CE4C0D46CE4ACF4B94F83E601178401E072800F2B881DFE8A1
:204FA00010F0970170010B01ED00C90080004900080005208DF8010094F83F008DB394F813
:204FC0002300002784F82000394684F8237042F208000BF00DF90D2694F83F0084F83E6008
:204FE00000F0DF0084F83F0004201FF0E3FC94F82000394606280BD1606948B1027BD309C5
:2050000003D302F0BF020121027340690028F5D16078002900F079814FF480414FF47A72BB
:2050200071E140F02000022784F83F003E4684F83E706CE10026012D8DF8016017D020F0BE
:20504000BBFA78B1052094F83F708DF80100314647F0200084F83F0008200BF0C9F80A20F5
:205060001FF0A8FC022084F83E00064614E0082031460BF0BDF804201FF09CFC15F0E6FA62
:205080000D2084F83E00607884F820600421C82220F0C6FB94F83E6094F83F0000F0EF00A1
:2050A00045E003208DF801000EB9012020722078002840F04F81627860691FF028FE0028E8
:2050C00040F0488110464FF480411BF075F9002840F040810025A561E5611DF0DDFD6078BB
:2050E0004FF4804118F04AFD277A94F83E602FB10B2E03D1284684F83E002E46257294F8E6
:2051000020106078062906D094F82300062808BF84F8235007E084F820500421322220F093
:205120007FFB94F83E6094F83F0000F0F70084F83F00ECE00221012D8DF8011004D00820AF
:20514000002584F83E000DE00025184684F83E500088D0852E32832020F06AFA0321284610
:205160001CF026FB607884F820500421322220F057FB94F83F0000F0FB009FE001208DF888
:20518000010065B100201F8884F83E000221D7852E32832020F04CFA06201FF00BFC002043
:2051A00084F8200060780421322220F039FB94F83F0000F0FD0081E0012918BF022940F049
:2051C000A68060780421322220F02AFB94F83F10606A012D49D0022084F83E0000268DF8B0
:2051E000046084F8206001278DF8017021F0020184F83F10522001A91BF05AFE1FF0BEFF07
:205200001BF038FE1CF015F8534D686820B168681BF0F2F82E806E60DFF84081D8F80050FA
:205220007DB128686F68006A1BF0E6F828681BF0E3F868691BF0E0F828461BF0DDF83D1CB5
:20524000EFD1404606601EF027FF4548007819F0D3FB30461FF0AEFB606A002855D01CF041
:205260009DFC606A0028FAD14FE00121002884F820106FD01CF092FC606A0028FAD1BDE878
:20528000FC8100201FF0BAFE042601208DF80160D0733DB1002084F83E0084F83F0006208D
:2052A0001FF088FB002084F8200060783146322220F0B6FA94F83F0000F0FE0084F83F00C9
:2052C00023E0C046D04F0020E84E002064190020012918BF02291AD1012D24D0012007270B
:2052E0008DF801004FF48051607884F83E7018F045FC00201DF000F9002084F83F006078F0
:20530000022141F2883220F08BFA94F83E60A76A07B38DF800600A20002103226B461AF0E3
:20532000F9FDBDE8FC81002003211CF041FA04213222607884F8201020F072FA0820002108
:205340000AF056FF002084F8210060784FF4805118F014FCBDE8FC812C55002034550020D1
:20536000201900202DE9F04FB74D014695F83F0021F03101ADF1340D00280B9140F0688169
:20538000687804211BF018F8002840F05F810B99AF7895F83F0001F03F01012F40EA010092
:2053A00085F83F00014600F03B810120A8701FF00DFB012805D156201DF04AFD08B120F05C
:2053C000CFF9B34C00202071E06808B11FF0DAF8B04847680023A24680467FB10C247868BB
:2053E00000781FF093F9061C05D0327C1AB10020824200F31E813F68002FF0D118461EF0B1
:2054000027F8002859D1D8F80470002F55D0786800781FF07BF9061C4CD0337C002B49D077
:205420004FF0000844E074690C2018FB00F94C44E079C00838D3786800788DF81400208897
:20544000ADF81600A088ADF81800079A089B069905981AF0C5FDB0B90DF1240B0021042283
:20546000584615F006F874694FF6FF700090CDF804B00A23029302460392CDF810B034F8A1
:2054800009104C440AE002681189D388009102F10A00019002930391049021887868A2888B
:2054A000007814F0ABFC337C08F101005FFA80F84345B8DC3F68002FA9D19AF80200DAF87D
:2054C0000C20162410FB04F081B2562020F0AAF80AF10C060A282BD0092825D01FF052F853
:2054E00056201DF0B5FCB0FBF4F0C7B238461DF0AFFF01281CD0336814FB07F082B200212C
:2055000056201FF085FD8AF802700DE041680468CAF814101AF070FF9AF81000401E8AF8AD
:20552000100020461AF068FFDAF814000028EDD106F0F6FD1FF026F805F1420355200021D1
:2055400001221E461FF064FD3078012866D152480078012818BF022843D1504804680021D7
:2055600020461FF008F900283BD11FF041FE002837D120460AA905AA14F03AFF04469DF81F
:205580002400FD282DD002282BD0032C4FF0000715DA05A83946142214F06BFFFF202146E6
:2055A000142205AB8DF8240004201CF015FC3C49A00000EBC4000F5009184F604F7285F8DA
:2055C000427055200121324620F032F8FF2003211CF0EEF8687885F82070042117F068FF1B
:2055E00053E095F83F000B99072440F0100001F03F0185F82040014385F83F100020014618
:20560000FDF784FE10B910F0EDFC3EE000201CF073FF00212046FFF7B5FC36E095F83F1086
:205620006878002904BF072485F82040F1D00027D1E7716910FB0411C979C90824BF5B1C8F
:20564000DBB2401CC0B2D3E6D04F002095F83F0095F82170CFB9810917D295F8427077B1AB
:205660000B9989080BD31EF07FFF04200121FFF789FC0B9995F83F0081F002010B910B99A6
:2056800001F03F01014385F83F100DB0BDE8F08F645F00201C550020E84E0020305100207D
:2056A000A04E00202DE9F04FAB4CDFF8B082DFF8B0B2ADF1340D60780591090C66D2059817
:2056C000800805D30120059FE07087F0020077E10598000938BF0020C0F0728158462E3028
:2056E000A76A00780026B146000922D220F054FA05461FF0E3FEE36A4FF47A7142466843C0
:20570000B0FBF1FC92F82510128EACEB0300824238D8B0FBF2F39BB29942ACBFDDB20D1C49
:20572000B0FBF2F15143401A80B2ACEB0000E06200E00125EFB1C846F878A8420ADD401B92
:20574000C0B2F87040B109F101061FFA86F93E467F680CE087F803807868002E82460CBFEB
:20576000C4F828A0706038461AF046FE5746002FE2D16078B9F1000F04D10021E162082197
:2057800018F0FCF9059880F0080019E117F062FE071C00F01281B87FC0B9788CA56A1328F2
:2057A00015D1B7F80290281C11D000260188894508D14568002E0CBFA56275601AF01CFEA1
:2057C000284601E0064640680028EFD1A56AB87A97F831102E46022855D1788866B1DFF8DB
:2057E000E8C13288904204D1B2789CF80030914247D07668002EF4D181468A464646002DA6
:2058000008BF002004D0012015B16B68002B34D1718E814237DD082013F0B0F896F8251077
:20582000002830D0A0F8009080F802A0C17000234360A36A83B9A0629BF82E00000911D20F
:2058400020F0AAF905461FF039FE4FF47A716843B0FBF1F0E06200E06860584690F82E0061
:20586000000910D3607808211AF0A6FD58B96078328E08211FF0D1FF05E0401C1D4680B207
:20588000C2E7F37096E0514805683878012806D0022840F08F80384616F00CFE8AE007F178
:2058A0001004B81CBE8908943B7E0690FA7C07967969099397F819B00A923C7F0B9107F1FA
:2058C0001C0604F00C000C280DD0B87F4FF0FE09FF2804D01FF0FCFC041C10D16AE0002D9E
:2058E00068D06C680FE0B088FE211BF085FD8146B9F1FE0F5ED01FF0EBFC041C5AD0207845
:205900001EF024FE05464FF6FF7A0BE020781EF01DFE054606E0B078FF284BD12D68002D44
:2059200048D06C68002C45D0AB68AAF1010823B9A3680BB1B3F8028007E021780220984732
:2059400018B1B0F800801AF057FD3389227898450AD03AB943B11CE028510020E84E002019
:20596000201900209A4514D196F80280B27008980090099B01930A9902910B9A0392CDF83B
:2059800010B0079B069A3046214611F039FA86F80280307800F00C000C28BCD1B0884946C8
:2059A0001BF02AFD8146B9F1FE0F03D01FF090FC041CABD138461EF0FFF9059880F4004058
:2059C0000DB0BDE8F08FC0460D4F002020550020F0B50E467068ADF1140D002800F0838123
:2059E000B068002800F07F810025C14C7268757004F10C00177803783FB1B06801210170E0
:205A0000284603B10846B16848707068637B877847B1B06801210171284603B10846B16863
:205A200048717068C7785FB128461FF083F8B2680121800B917138BF291CB068C171706867
:205A400007793FB3B06801230372B0680C301FF071F8B1680882184616F018F9B16848617D
:205A6000022016F013F9B1688861042016F00EF9B168C861082016F009F9B168086210209A
:205A800016F004F9B1684862202016F0FFF8B168886270684779618D37B1B068012280F8DF
:205AA0002C20B068C18570688779A18D37B1B068012280F83020B06841867068C779E18DE6
:205AC00037B1B068012280F83420B068C1867068077A61783FB1B068012280F83820B06833
:205AE00080F839107068477AA1783FB1B068012280F83A20B06880F83B107068877AA17A67
:205B00003FB1B068012280F83C20B06880F83D107068C77A21793FB1B068012280F83E20F5
:205B2000B06880F83F107068077B61793FB1B068012280F84020B06880F841107068477BD4
:205B4000A1793FB1B068012280F84220B06880F843107068877BE1783FB1B068012280F86D
:205B60004420B06880F845107068C77B37B3B068012111226B4680F84610294681201FF0CD
:205B800047FA9DF80000B16881F84700B26892F8471089B112F0F2FEB1688864B268906C14
:205BA000002808BF82F8475006D09DF800200DF101011EF087FE00E095647068007C80B169
:205BC000102012F0DBFEB1680865B168086D40B1012081F84C000B6D1022622029461FF025
:205BE00017FA7068616B477C37B1B068012280F85420B06881657068877CE17A3FB1B068E2
:205C0000012280F85C20B06880F85D107068C77C57B1B068012180F85E103649B06808226C
:205C20005F301EF04FFE7068077D67B1B068012180F867101FF0D4F80146B06808226830E1
:205C40001EF040FE7068477D87B152200DF111011DF09AFB9DF81170B068012180F87010B8
:205C600007B92946B06880F871107068877D3FB1B068012180F87210B06880F873507068B9
:205C8000C77DE37957B1B06801212A4680F8741003B10A46B06880F875207068077E217A95
:205CA0003FB1B068012280F87620B06880F877107068477E5FB1B06801210F4F80F878104F
:205CC000387800B10D46B06880F879507068807E58B1B068012180F87A1019F0B7FDB168C6
:205CE00081F87B0001E00220707005B00120F0BDE84E002079190020155500202DE9F04F63
:205D0000BC4C20780D46290CADF13C0D80F05081A90B80F02581690880F01381A9094DD223
:205D2000B54E3078A90834D23089A90A14D2280904D30120207185F0080057E1E80A09D372
:205D400015F0AAF8B4F84400012114F0BBFC85F480604BE1002049E1B4F84480A4F84400B0
:205D600006F1080150201BF0A3F83789A34C04266089804505D0874204D020461EF03CFD67
:205D800000E06781761E04F11C04F1D185F400702CE140B9618F01201DF0CEFA2078012141
:205DA00017F0ECFE07E068461FF0ECFC1FF092FB694617F0F3FA85F0020017E120211AF06D
:205DC000FBFA20B9E068002808BF012615D01FF0E3FE06461FF072FB4FF47A717043B0FB6E
:205DE000F1F1E068002808BF002004D088428CBF4FF0FF30081A460869D0002004211EF017
:205E00003BF9071C63D04FF0000B4FF0FF094FF0060A384604211EF02FF90E903889864218
:205E200004D8801B83B23B8113B14DE0A7F808B0BB7B012B02D17889C0083ED3002B39D06F
:205E40008DF800908DF801904FF0FF308DF802003968086AC97F01AA0CF05AF8D846012887
:205E600008BF4FF001085FEA08001DD0788A40F08000ADF83200B87B8DF834007889000956
:205E800008D3BDF8320040F48070ADF83200387B8DF836007B6913B1187BADF81400694634
:205EA0005A4601A8FEF780FC87F80DA0387B14F065F809E00120787306E087F80DA0386841
:205EC000407BB72119F052FD0E9F002FA1D112F00DFD2378002001211EF0CEF818B11846A5
:205EE000202117F0E5FA002004211EF0C5F8B3B270B1078926781EF0BFF8E8B9BB42AEBFE7
:205F00000027FF1ABFB2304627B9202117F0D0FA00200DE07A0020211FF082FC1FF03CFECA
:205F200006461FF0CBFA4FF47A717043B0FBF1F0E06085F0200059E00289BA42D8BF171C75
:205F4000D9E794F84C000F2807D194F8460020B1012802D000201AF07FFE85F0010045E0BA
:205F60001FF097FC264E8046301D0068074690B157F80C1C207821B94FF4005116F062FB22
:205F800003E04FF4005117F093FA304639460022001D1BF0F0FF40461FF00EFE2FB13846C9
:205FA000FDF716FF38461DF007FF85F400501DE017F050FA071C17D0124908310A78FF2AE7
:205FC0000FD03C780B460020944207D0401CC0B2C200D1189A5CFF2AF6D102E049683846A0
:205FE000884738461DF0E8FE85F400400FB0BDE8F08FC04620190020B41900200410002045
:2060000034550020287702002DE9F04FADF1440D0B908069007800210DF12A020F909C2050
:2060200016F0ACFAB54D287830F0010009D1002004211DF0CDF85FFA80FA9DF82A005044DA
:2060400002E001204FF0000A8DF82A000F989DF82A10884280F2DE809DF82A000F99401A74
:20606000C0B20D900228C4BF02200D901A2110FB01F000B212F082FC0E90002800F0CD8039
:206080000F980D9F0E9C0C90002F08BF002074D04FF00008B946012645460C9882450ADCC4
:2060A0000F9940468A4504DAA1EB0A01C9B20C9163E00C9561E0411CC9B20C911DF09CF81B
:2060C000071C54D08E480146B0F8440059312080A01C1FF0C6FB388860820223E375FF227A
:2060E0002276B87A60768DF81C503888ADF81E0007A814F0F7F9AB46012808BFB34604F11A
:206100000A00BBF1000F06D104F10A00FF21082214F0AFF902E008A91FF0A3FB3B797BB9C6
:206120003F88002F04BF2575281C04D07448267590F85800401E207602206075A57515E0C3
:206140006F4890F85800401C20763879032804DB26753879032805D106E002202075387960
:20616000012801D0667500E06575A6751A34B9F1010908F1010890D140460D9981424CDDF8
:206180000D9DDFF87CB104F1020804F10A0702264FF0000A4FF001091A3C2D1A0C998720A9
:2061A0006A4616F0EBF95849BDF80A0024F81A0F40461FF056FB0DF1020138461FF051FBE0
:2061C000BDF800004D4B6082187830F0010003D16675A675FF2006E084F8159084F816A0BD
:2061E0009BF85800401E2076E675638A9DF81200002B60760CBF84F814A084F814900C9811
:2062000008F11A081A376D1E00F10100C0B20C90C4D102E000200E900D900B98417C0D9FA9
:206220000E9D8DF82B10801C16210B9017FB01F0001DC0B28346401C12F0A0FB5FEA0008E0
:2062400054D008F101040020A2468AF800009DF82A000F9F88F802000D9E88F8037088F885
:20626000046096B30D9F2E46241D06F102090A36204649461FF0F5FA0834314620461FF0B3
:20628000F0FA0446A87C04F8010B688A001204F8010B287D2070697D40EA8100C0B22070CA
:2062A000A97D40EA011004F8010BE87D04F8010B287E04F8010B687E09F11A091A367F1E6A
:2062C00005F11A0504F8010BD2D10E4D0B990DF12B0048F231025B462C1DC4F800A015F01E
:2062E00081FF40461AF088F809346C600E9808B11AF082F811B0BDE8F08FC046E84E0020E1
:2063000020190020344E0020791900202DE9F043B24CB349A064B3480A78E064B248A270BC
:20632000891CE063B148A163ADF11C0D606202A81EF06EFF002002AA01460DF039F9002167
:2063400002AA606301200DF033F92063406800781CF07AFF18B9606A80471EF009FEA44DF4
:20636000206B29461FF04DFA606B29461FF049FA0DF0FEFF9F49A062012204F18C0019F0B0
:20638000D9F8A06A80461CF04BFF002840F09B80994E3068002800F09680984D286B4FF02F
:2063A000FF311EF0E2FED5F830C000204FF0FF3305F18C0E024671464F6837B90F6827B9E4
:2063C000B3F1FF3F08BF131C03E00F68B74277D0401C521C0831042AEEDBB3F1FF3F6FD030
:2063E000D90001EB0E02C2F8048000284EF801605CDDDFF80CC2DFF80C9201280FF23C18EA
:2064000023D12B6A61468B611A68D9600A6000230B752F6A0B619E4681F815E0397A01226B
:206420000C2311FB03710A72397A11FB037181F809E0296A0A7A474612FB03114F60296A95
:206440000A7A4F4612FB0311CF60C6F80CC0317A82004FF00C0E02EBC002002311FB0E6770
:2064600062440121397201289661317A13614746137511FB0E614B72317A537511FB0E612F
:206480004F60317A82F821304F4611FB0E614FF00206CF602EA7D7615B4F82F820606646F4
:2064A00057621ABF307A401C032030722E62EE61307A401E6862002009F0F6FA286B00E052
:2064C00060461FF0FAF9A06A04F10C0225A10CF0B5FB0CF09FFDA06A04F1100226A10CF029
:2064E000ADFBA06A04F1140228A10CF0A7FB0CF0E9FFA06A04F1180229A10CF09FFBA06A11
:2065000004F11C022BA10CF099FBA06A04F120022DA10CF093FB68461EF0E8FD0120694622
:206520000BF0E6FBE062002004F084F9002014F051F8A06A07B0BDE8F083C0463C202020C4
:206540002020204241434B2020202020203E00C03C20202020202048454C50202020202047
:20656000203E00C044657669636520496E666F1B37311B3800C046C02020204E574B2049AC
:206580006E666F1B37311B3800C046C02020204E574B20496E666F1B37321B3800C046C083
:2065A0002020205A444F20496E666F1B37311B3800C046C020202042444220496E666F1B57
:2065C00037311B3800C046C0202042696E6420496E666F1B37311B3800C046C050180020AD
:2065E000501A0020E21A002059410200638001003941020019290200844F00200C41002055
:20660000F0610020914D0200D11A0100F0B50E467068ADF1140D002800F0628100277168B2
:206620007770B24C087858B1487800280CBF381C01202246012110730C3263201EF0F8FFF1
:2066400071680D7965B14879224600280CBF381C0120012150730D326D201EF0E9FF7168B4
:206660008D79ADB90D7ACDB1088A10F0070F02D0CA68632A12D9C96811F088FD384601212E
:2066800009F0B6FD9A4A352028211EF0D1FF04E0C9794FF4005009F0ABFD71688D7C45B1BC
:2066A000888A22462A320221108044201EF0C0FF71688D7D45B1088B22462C32022110803B
:2066C00046201EF0B5FF71688D7E45B1888B22462E320221108083201EF0AAFF71688D7FEB
:2066E00045B1C87F2246521C0121107029201EF09FFF716891F820504DB191F8210022460E
:20670000921C012110702B201EF092FF716891F822504DB191F8230022460A32012110707B
:2067200043201EF085FF716891F824504DB191F825002246121D012110702E201EF078FFD6
:20674000716891F826504DB191F827002246521D012110702F201EF06BFF716891F8285099
:206760004DB191F829002246921D0121107030201EF05EFF716891F82A504DB191F82B0067
:206780002246D21C012110702C201EF051FF716891F82C50A5B191F82D20102A8DF800206E
:2067A00003DD10208DF800000246096B0DF101001EF088F8812011216A461EF039FF716859
:2067C00091F8345055B191F835001028C8BF10208A6B014662201EF02BFF716891F83C5015
:2067E00045B1086C224634320421106084201EF01FFF716891F844504DB191F845002246D2
:206800000B32012110704B201EF012FF716891F8465065B104F138054731082228461EF0B1
:2068200051F8472008212A461EF002FF716891F84F5035B101F15002012008211EF0F8FE87
:20684000716891F858504DB191F859008DF811000DF1110152201AF02BFB716891F85E50F6
:2068600045B191F85F00234A0121107033201EF0DFFE716891F85C502DB391F85D00E51D17
:2068800001212A46287032201EF0D2FE3220394601222B461EF0BCFB04F1080333203946A2
:2068A00001221EF0B5FB1448E1790078012904D04FF4006117F062F904E04FF400616422B7
:2068C0001EF0AEFF716891F860705FB191F861000A4977680A4D087097F86100287001E067
:2068E0000220707005B00120F0BDC046E84E0020001A0020F04E002020190020155500203C
:20690000A81900202DE9FE4F0D46074628687C68BE6800283AD01EF0BCFFD4F8F810814663
:206920000120019008294FF0000088BF0198A968084202D16968084205D0019880F001002D
